{
	"Import.sol": {
		"Import": {
			"abi": [
				{
					"inputs": [],
					"name": "callCommonTest",
					"outputs": [
						{
							"internalType": "uint256",
							"name": "",
							"type": "uint256"
						}
					],
					"stateMutability": "view",
					"type": "function"
				}
			],
			"devdoc": {
				"kind": "dev",
				"methods": {},
				"version": 1
			},
			"evm": {
				"assembly": "    /* \"Import.sol\":784:975  contract Import {... */\n  mstore(0x40, 0x80)\n    /* \"Import.sol\":857:869  new Common() */\n  mload(0x40)\n  tag_1\n  swap1\n  tag_2\n  jump\t// in\ntag_1:\n  mload(0x40)\n  dup1\n  swap2\n  sub\n  swap1\n  0x00\n  create\n  dup1\n  iszero\n  dup1\n  iszero\n  tag_3\n  jumpi\n  returndatasize\n  0x00\n  dup1\n  returndatacopy\n  revert(0x00, returndatasize)\ntag_3:\n  pop\n    /* \"Import.sol\":841:869  Common common = new Common() */\n  0x00\n  dup1\n  0x0100\n  exp\n  dup2\n  sload\n  dup2\n  0xffffffffffffffffffffffffffffffffffffffff\n  mul\n  not\n  and\n  swap1\n  dup4\n  0xffffffffffffffffffffffffffffffffffffffff\n  and\n  mul\n  or\n  swap1\n  sstore\n  pop\n    /* \"Import.sol\":784:975  contract Import {... */\n  callvalue\n  dup1\n  iszero\n  tag_4\n  jumpi\n  0x00\n  dup1\n  revert\ntag_4:\n  pop\n  jump(tag_5)\ntag_2:\n  dataSize(sub_1)\n  dup1\n  dataOffset(sub_1)\n  dup4\n  codecopy\n  add\n  swap1\n  jump\t// out\ntag_5:\n  dataSize(sub_0)\n  dup1\n  dataOffset(sub_0)\n  0x00\n  codecopy\n  0x00\n  return\nstop\n\nsub_0: assembly {\n        /* \"Import.sol\":784:975  contract Import {... */\n      mstore(0x40, 0x80)\n      callvalue\n      dup1\n      iszero\n      tag_1\n      jumpi\n      0x00\n      dup1\n      revert\n    tag_1:\n      pop\n      jumpi(tag_2, lt(calldatasize, 0x04))\n      shr(0xe0, calldataload(0x00))\n      dup1\n      0xb30a89de\n      eq\n      tag_3\n      jumpi\n    tag_2:\n      0x00\n      dup1\n      revert\n        /* \"Import.sol\":878:970  function callCommonTest() public view returns(uint){... */\n    tag_3:\n      tag_4\n      tag_5\n      jump\t// in\n    tag_4:\n      mload(0x40)\n      tag_6\n      swap2\n      swap1\n      tag_7\n      jump\t// in\n    tag_6:\n      mload(0x40)\n      dup1\n      swap2\n      sub\n      swap1\n      return\n    tag_5:\n        /* \"Import.sol\":924:928  uint */\n      0x00\n        /* \"Import.sol\":947:953  common */\n      dup1\n      0x00\n      swap1\n      sload\n      swap1\n      0x0100\n      exp\n      swap1\n      div\n      0xffffffffffffffffffffffffffffffffffffffff\n      and\n        /* \"Import.sol\":947:958  common.test */\n      0xffffffffffffffffffffffffffffffffffffffff\n      and\n      0x29e99f07\n        /* \"Import.sol\":959:961  10 */\n      0x0a\n        /* \"Import.sol\":947:962  common.test(10) */\n      mload(0x40)\n      dup3\n      0xffffffff\n      and\n      0xe0\n      shl\n      dup2\n      mstore\n      0x04\n      add\n      tag_9\n      swap2\n      swap1\n      tag_10\n      jump\t// in\n    tag_9:\n      0x20\n      mload(0x40)\n      dup1\n      dup4\n      sub\n      dup2\n      dup7\n      gas\n      staticcall\n      iszero\n      dup1\n      iszero\n      tag_12\n      jumpi\n      returndatasize\n      0x00\n      dup1\n      returndatacopy\n      revert(0x00, returndatasize)\n    tag_12:\n      pop\n      pop\n      pop\n      pop\n      mload(0x40)\n      returndatasize\n      not(0x1f)\n      0x1f\n      dup3\n      add\n      and\n      dup3\n      add\n      dup1\n      0x40\n      mstore\n      pop\n      dup2\n      add\n      swap1\n      tag_13\n      swap2\n      swap1\n      tag_14\n      jump\t// in\n    tag_13:\n        /* \"Import.sol\":940:962  return common.test(10) */\n      swap1\n      pop\n        /* \"Import.sol\":878:970  function callCommonTest() public view returns(uint){... */\n      swap1\n      jump\t// out\n        /* \"#utility.yul\":7:84   */\n    tag_15:\n        /* \"#utility.yul\":44:51   */\n      0x00\n        /* \"#utility.yul\":73:78   */\n      dup2\n        /* \"#utility.yul\":62:78   */\n      swap1\n      pop\n        /* \"#utility.yul\":7:84   */\n      swap2\n      swap1\n      pop\n      jump\t// out\n        /* \"#utility.yul\":90:208   */\n    tag_16:\n        /* \"#utility.yul\":177:201   */\n      tag_29\n        /* \"#utility.yul\":195:200   */\n      dup2\n        /* \"#utility.yul\":177:201   */\n      tag_15\n      jump\t// in\n    tag_29:\n        /* \"#utility.yul\":172:175   */\n      dup3\n        /* \"#utility.yul\":165:202   */\n      mstore\n        /* \"#utility.yul\":90:208   */\n      pop\n      pop\n      jump\t// out\n        /* \"#utility.yul\":214:436   */\n    tag_7:\n        /* \"#utility.yul\":307:311   */\n      0x00\n        /* \"#utility.yul\":345:347   */\n      0x20\n        /* \"#utility.yul\":334:343   */\n      dup3\n        /* \"#utility.yul\":330:348   */\n      add\n        /* \"#utility.yul\":322:348   */\n      swap1\n      pop\n        /* \"#utility.yul\":358:429   */\n      tag_31\n        /* \"#utility.yul\":426:427   */\n      0x00\n        /* \"#utility.yul\":415:424   */\n      dup4\n        /* \"#utility.yul\":411:428   */\n      add\n        /* \"#utility.yul\":402:408   */\n      dup5\n        /* \"#utility.yul\":358:429   */\n      tag_16\n      jump\t// in\n    tag_31:\n        /* \"#utility.yul\":214:436   */\n      swap3\n      swap2\n      pop\n      pop\n      jump\t// out\n        /* \"#utility.yul\":442:528   */\n    tag_17:\n        /* \"#utility.yul\":488:495   */\n      0x00\n        /* \"#utility.yul\":517:522   */\n      dup2\n        /* \"#utility.yul\":506:522   */\n      swap1\n      pop\n        /* \"#utility.yul\":442:528   */\n      swap2\n      swap1\n      pop\n      jump\t// out\n        /* \"#utility.yul\":534:594   */\n    tag_18:\n        /* \"#utility.yul\":562:565   */\n      0x00\n        /* \"#utility.yul\":583:588   */\n      dup2\n        /* \"#utility.yul\":576:588   */\n      swap1\n      pop\n        /* \"#utility.yul\":534:594   */\n      swap2\n      swap1\n      pop\n      jump\t// out\n        /* \"#utility.yul\":600:760   */\n    tag_19:\n        /* \"#utility.yul\":659:668   */\n      0x00\n        /* \"#utility.yul\":692:754   */\n      tag_35\n        /* \"#utility.yul\":710:753   */\n      tag_36\n        /* \"#utility.yul\":719:752   */\n      tag_37\n        /* \"#utility.yul\":746:751   */\n      dup5\n        /* \"#utility.yul\":719:752   */\n      tag_17\n      jump\t// in\n    tag_37:\n        /* \"#utility.yul\":710:753   */\n      tag_18\n      jump\t// in\n    tag_36:\n        /* \"#utility.yul\":692:754   */\n      tag_15\n      jump\t// in\n    tag_35:\n        /* \"#utility.yul\":679:754   */\n      swap1\n      pop\n        /* \"#utility.yul\":600:760   */\n      swap2\n      swap1\n      pop\n      jump\t// out\n        /* \"#utility.yul\":766:915   */\n    tag_20:\n        /* \"#utility.yul\":862:908   */\n      tag_39\n        /* \"#utility.yul\":902:907   */\n      dup2\n        /* \"#utility.yul\":862:908   */\n      tag_19\n      jump\t// in\n    tag_39:\n        /* \"#utility.yul\":857:860   */\n      dup3\n        /* \"#utility.yul\":850:909   */\n      mstore\n        /* \"#utility.yul\":766:915   */\n      pop\n      pop\n      jump\t// out\n        /* \"#utility.yul\":921:1161   */\n    tag_10:\n        /* \"#utility.yul\":1023:1027   */\n      0x00\n        /* \"#utility.yul\":1061:1063   */\n      0x20\n        /* \"#utility.yul\":1050:1059   */\n      dup3\n        /* \"#utility.yul\":1046:1064   */\n      add\n        /* \"#utility.yul\":1038:1064   */\n      swap1\n      pop\n        /* \"#utility.yul\":1074:1154   */\n      tag_41\n        /* \"#utility.yul\":1151:1152   */\n      0x00\n        /* \"#utility.yul\":1140:1149   */\n      dup4\n        /* \"#utility.yul\":1136:1153   */\n      add\n        /* \"#utility.yul\":1127:1133   */\n      dup5\n        /* \"#utility.yul\":1074:1154   */\n      tag_20\n      jump\t// in\n    tag_41:\n        /* \"#utility.yul\":921:1161   */\n      swap3\n      swap2\n      pop\n      pop\n      jump\t// out\n        /* \"#utility.yul\":1248:1365   */\n    tag_22:\n        /* \"#utility.yul\":1357:1358   */\n      0x00\n        /* \"#utility.yul\":1354:1355   */\n      dup1\n        /* \"#utility.yul\":1347:1359   */\n      revert\n        /* \"#utility.yul\":1494:1616   */\n    tag_24:\n        /* \"#utility.yul\":1567:1591   */\n      tag_46\n        /* \"#utility.yul\":1585:1590   */\n      dup2\n        /* \"#utility.yul\":1567:1591   */\n      tag_15\n      jump\t// in\n    tag_46:\n        /* \"#utility.yul\":1560:1565   */\n      dup2\n        /* \"#utility.yul\":1557:1592   */\n      eq\n        /* \"#utility.yul\":1547:1610   */\n      tag_47\n      jumpi\n        /* \"#utility.yul\":1606:1607   */\n      0x00\n        /* \"#utility.yul\":1603:1604   */\n      dup1\n        /* \"#utility.yul\":1596:1608   */\n      revert\n        /* \"#utility.yul\":1547:1610   */\n    tag_47:\n        /* \"#utility.yul\":1494:1616   */\n      pop\n      jump\t// out\n        /* \"#utility.yul\":1622:1765   */\n    tag_25:\n        /* \"#utility.yul\":1679:1684   */\n      0x00\n        /* \"#utility.yul\":1710:1716   */\n      dup2\n        /* \"#utility.yul\":1704:1717   */\n      mload\n        /* \"#utility.yul\":1695:1717   */\n      swap1\n      pop\n        /* \"#utility.yul\":1726:1759   */\n      tag_49\n        /* \"#utility.yul\":1753:1758   */\n      dup2\n        /* \"#utility.yul\":1726:1759   */\n      tag_24\n      jump\t// in\n    tag_49:\n        /* \"#utility.yul\":1622:1765   */\n      swap3\n      swap2\n      pop\n      pop\n      jump\t// out\n        /* \"#utility.yul\":1771:2122   */\n    tag_14:\n        /* \"#utility.yul\":1841:1847   */\n      0x00\n        /* \"#utility.yul\":1890:1892   */\n      0x20\n        /* \"#utility.yul\":1878:1887   */\n      dup3\n        /* \"#utility.yul\":1869:1876   */\n      dup5\n        /* \"#utility.yul\":1865:1888   */\n      sub\n        /* \"#utility.yul\":1861:1893   */\n      slt\n        /* \"#utility.yul\":1858:1977   */\n      iszero\n      tag_51\n      jumpi\n        /* \"#utility.yul\":1896:1975   */\n      tag_52\n      tag_22\n      jump\t// in\n    tag_52:\n        /* \"#utility.yul\":1858:1977   */\n    tag_51:\n        /* \"#utility.yul\":2016:2017   */\n      0x00\n        /* \"#utility.yul\":2041:2105   */\n      tag_53\n        /* \"#utility.yul\":2097:2104   */\n      dup5\n        /* \"#utility.yul\":2088:2094   */\n      dup3\n        /* \"#utility.yul\":2077:2086   */\n      dup6\n        /* \"#utility.yul\":2073:2095   */\n      add\n        /* \"#utility.yul\":2041:2105   */\n      tag_25\n      jump\t// in\n    tag_53:\n        /* \"#utility.yul\":2031:2105   */\n      swap2\n      pop\n        /* \"#utility.yul\":1987:2115   */\n      pop\n        /* \"#utility.yul\":1771:2122   */\n      swap3\n      swap2\n      pop\n      pop\n      jump\t// out\n\n    auxdata: 0xa2646970667358221220c55c0313c8803c4ed8ae3149d1dfb3a968ebd7dc1206374c731101659df8493064736f6c634300081a0033\n}\n\nsub_1: assembly {\n        /* \"Common.sol\":61:166  contract Common {... */\n      mstore(0x40, 0x80)\n      callvalue\n      dup1\n      iszero\n      tag_1\n      jumpi\n      0x00\n      dup1\n      revert\n    tag_1:\n      pop\n      dataSize(sub_0)\n      dup1\n      dataOffset(sub_0)\n      0x00\n      codecopy\n      0x00\n      return\n    stop\n\n    sub_0: assembly {\n            /* \"Common.sol\":61:166  contract Common {... */\n          mstore(0x40, 0x80)\n          callvalue\n          dup1\n          iszero\n          tag_1\n          jumpi\n          0x00\n          dup1\n          revert\n        tag_1:\n          pop\n          jumpi(tag_2, lt(calldatasize, 0x04))\n          shr(0xe0, calldataload(0x00))\n          dup1\n          0x29e99f07\n          eq\n          tag_3\n          jumpi\n        tag_2:\n          0x00\n          dup1\n          revert\n            /* \"Common.sol\":86:161  function test(uint a) public pure returns(uint) {... */\n        tag_3:\n          tag_4\n          0x04\n          dup1\n          calldatasize\n          sub\n          dup2\n          add\n          swap1\n          tag_5\n          swap2\n          swap1\n          tag_6\n          jump\t// in\n        tag_5:\n          tag_7\n          jump\t// in\n        tag_4:\n          mload(0x40)\n          tag_8\n          swap2\n          swap1\n          tag_9\n          jump\t// in\n        tag_8:\n          mload(0x40)\n          dup1\n          swap2\n          sub\n          swap1\n          return\n        tag_7:\n            /* \"Common.sol\":128:132  uint */\n          0x00\n            /* \"Common.sol\":152:153  a */\n          dup2\n            /* \"Common.sol\":145:153  return a */\n          swap1\n          pop\n            /* \"Common.sol\":86:161  function test(uint a) public pure returns(uint) {... */\n          swap2\n          swap1\n          pop\n          jump\t// out\n            /* \"#utility.yul\":88:205   */\n        tag_12:\n            /* \"#utility.yul\":197:198   */\n          0x00\n            /* \"#utility.yul\":194:195   */\n          dup1\n            /* \"#utility.yul\":187:199   */\n          revert\n            /* \"#utility.yul\":334:411   */\n        tag_14:\n            /* \"#utility.yul\":371:378   */\n          0x00\n            /* \"#utility.yul\":400:405   */\n          dup2\n            /* \"#utility.yul\":389:405   */\n          swap1\n          pop\n            /* \"#utility.yul\":334:411   */\n          swap2\n          swap1\n          pop\n          jump\t// out\n            /* \"#utility.yul\":417:539   */\n        tag_15:\n            /* \"#utility.yul\":490:514   */\n          tag_24\n            /* \"#utility.yul\":508:513   */\n          dup2\n            /* \"#utility.yul\":490:514   */\n          tag_14\n          jump\t// in\n        tag_24:\n            /* \"#utility.yul\":483:488   */\n          dup2\n            /* \"#utility.yul\":480:515   */\n          eq\n            /* \"#utility.yul\":470:533   */\n          tag_25\n          jumpi\n            /* \"#utility.yul\":529:530   */\n          0x00\n            /* \"#utility.yul\":526:527   */\n          dup1\n            /* \"#utility.yul\":519:531   */\n          revert\n            /* \"#utility.yul\":470:533   */\n        tag_25:\n            /* \"#utility.yul\":417:539   */\n          pop\n          jump\t// out\n            /* \"#utility.yul\":545:684   */\n        tag_16:\n            /* \"#utility.yul\":591:596   */\n          0x00\n            /* \"#utility.yul\":629:635   */\n          dup2\n            /* \"#utility.yul\":616:636   */\n          calldataload\n            /* \"#utility.yul\":607:636   */\n          swap1\n          pop\n            /* \"#utility.yul\":645:678   */\n          tag_27\n            /* \"#utility.yul\":672:677   */\n          dup2\n            /* \"#utility.yul\":645:678   */\n          tag_15\n          jump\t// in\n        tag_27:\n            /* \"#utility.yul\":545:684   */\n          swap3\n          swap2\n          pop\n          pop\n          jump\t// out\n            /* \"#utility.yul\":690:1019   */\n        tag_6:\n            /* \"#utility.yul\":749:755   */\n          0x00\n            /* \"#utility.yul\":798:800   */\n          0x20\n            /* \"#utility.yul\":786:795   */\n          dup3\n            /* \"#utility.yul\":777:784   */\n          dup5\n            /* \"#utility.yul\":773:796   */\n          sub\n            /* \"#utility.yul\":769:801   */\n          slt\n            /* \"#utility.yul\":766:885   */\n          iszero\n          tag_29\n          jumpi\n            /* \"#utility.yul\":804:883   */\n          tag_30\n          tag_12\n          jump\t// in\n        tag_30:\n            /* \"#utility.yul\":766:885   */\n        tag_29:\n            /* \"#utility.yul\":924:925   */\n          0x00\n            /* \"#utility.yul\":949:1002   */\n          tag_31\n            /* \"#utility.yul\":994:1001   */\n          dup5\n            /* \"#utility.yul\":985:991   */\n          dup3\n            /* \"#utility.yul\":974:983   */\n          dup6\n            /* \"#utility.yul\":970:992   */\n          add\n            /* \"#utility.yul\":949:1002   */\n          tag_16\n          jump\t// in\n        tag_31:\n            /* \"#utility.yul\":939:1002   */\n          swap2\n          pop\n            /* \"#utility.yul\":895:1012   */\n          pop\n            /* \"#utility.yul\":690:1019   */\n          swap3\n          swap2\n          pop\n          pop\n          jump\t// out\n            /* \"#utility.yul\":1025:1143   */\n        tag_17:\n            /* \"#utility.yul\":1112:1136   */\n          tag_33\n            /* \"#utility.yul\":1130:1135   */\n          dup2\n            /* \"#utility.yul\":1112:1136   */\n          tag_14\n          jump\t// in\n        tag_33:\n            /* \"#utility.yul\":1107:1110   */\n          dup3\n            /* \"#utility.yul\":1100:1137   */\n          mstore\n            /* \"#utility.yul\":1025:1143   */\n          pop\n          pop\n          jump\t// out\n            /* \"#utility.yul\":1149:1371   */\n        tag_9:\n            /* \"#utility.yul\":1242:1246   */\n          0x00\n            /* \"#utility.yul\":1280:1282   */\n          0x20\n            /* \"#utility.yul\":1269:1278   */\n          dup3\n            /* \"#utility.yul\":1265:1283   */\n          add\n            /* \"#utility.yul\":1257:1283   */\n          swap1\n          pop\n            /* \"#utility.yul\":1293:1364   */\n          tag_35\n            /* \"#utility.yul\":1361:1362   */\n          0x00\n            /* \"#utility.yul\":1350:1359   */\n          dup4\n            /* \"#utility.yul\":1346:1363   */\n          add\n            /* \"#utility.yul\":1337:1343   */\n          dup5\n            /* \"#utility.yul\":1293:1364   */\n          tag_17\n          jump\t// in\n        tag_35:\n            /* \"#utility.yul\":1149:1371   */\n          swap3\n          swap2\n          pop\n          pop\n          jump\t// out\n\n        auxdata: 0xa264697066735822122090dfd0c036008c8dc4c94c05e4d3f01c847b875221ede6e064a8480aa77eec4164736f6c634300081a0033\n    }\n}\n",
				"bytecode": {
					"linkReferences": {},
					"object": "6080604052604051600e906074565b604051809103905ff0801580156026573d5f803e3d5ffd5b505f806101000a81548173ffffffffffffffffffffffffffffffffffffffff021916908373ffffffffffffffffffffffffffffffffffffffff160217905550348015606f575f80fd5b506081565b61012b8061029383390190565b6102058061008e5f395ff3fe608060405234801561000f575f80fd5b5060043610610029575f3560e01c8063b30a89de1461002d575b5f80fd5b61003561004b565b6040516100429190610102565b60405180910390f35b5f805f9054906101000a900473ffffffffffffffffffffffffffffffffffffffff1673ffffffffffffffffffffffffffffffffffffffff166329e99f07600a6040518263ffffffff1660e01b81526004016100a6919061015d565b602060405180830381865afa1580156100c1573d5f803e3d5ffd5b505050506040513d601f19601f820116820180604052508101906100e591906101a4565b905090565b5f819050919050565b6100fc816100ea565b82525050565b5f6020820190506101155f8301846100f3565b92915050565b5f819050919050565b5f819050919050565b5f61014761014261013d8461011b565b610124565b6100ea565b9050919050565b6101578161012d565b82525050565b5f6020820190506101705f83018461014e565b92915050565b5f80fd5b610183816100ea565b811461018d575f80fd5b50565b5f8151905061019e8161017a565b92915050565b5f602082840312156101b9576101b8610176565b5b5f6101c684828501610190565b9150509291505056fea2646970667358221220c55c0313c8803c4ed8ae3149d1dfb3a968ebd7dc1206374c731101659df8493064736f6c634300081a00336080604052348015600e575f80fd5b5061010f8061001c5f395ff3fe6080604052348015600e575f80fd5b50600436106026575f3560e01c806329e99f0714602a575b5f80fd5b60406004803603810190603c9190608f565b6054565b604051604b919060c2565b60405180910390f35b5f819050919050565b5f80fd5b5f819050919050565b6071816061565b8114607a575f80fd5b50565b5f81359050608981606a565b92915050565b5f6020828403121560a15760a0605d565b5b5f60ac84828501607d565b91505092915050565b60bc816061565b82525050565b5f60208201905060d35f83018460b5565b9291505056fea264697066735822122090dfd0c036008c8dc4c94c05e4d3f01c847b875221ede6e064a8480aa77eec4164736f6c634300081a0033",
					"opcodes": "PUSH1 0x80 PUSH1 0x40 MSTORE PUSH1 0x40 MLOAD PUSH1 0xE SWAP1 PUSH1 0x74 JUMP JUMPDEST PUSH1 0x40 MLOAD DUP1 SWAP2 SUB SWAP1 PUSH0 CREATE DUP1 ISZERO DUP1 ISZERO PUSH1 0x26 JUMPI RETURNDATASIZE PUSH0 DUP1 RETURNDATACOPY RETURNDATASIZE PUSH0 REVERT JUMPDEST POP PUSH0 DUP1 PUSH2 0x100 EXP DUP2 SLOAD DUP2 PUSH20 0xFFFFFFFFFFFFFFFFFFFFFFFFFFFFFFFFFFFFFFFF MUL NOT AND SWAP1 DUP4 PUSH20 0xFFFFFFFFFFFFFFFFFFFFFFFFFFFFFFFFFFFFFFFF AND MUL OR SWAP1 SSTORE POP CALLVALUE DUP1 ISZERO PUSH1 0x6F JUMPI PUSH0 DUP1 REVERT JUMPDEST POP PUSH1 0x81 JUMP JUMPDEST PUSH2 0x12B DUP1 PUSH2 0x293 DUP4 CODECOPY ADD SWAP1 JUMP JUMPDEST PUSH2 0x205 DUP1 PUSH2 0x8E PUSH0 CODECOPY PUSH0 RETURN INVALID PUSH1 0x80 PUSH1 0x40 MSTORE CALLVALUE DUP1 ISZERO PUSH2 0xF JUMPI PUSH0 DUP1 REVERT JUMPDEST POP PUSH1 0x4 CALLDATASIZE LT PUSH2 0x29 JUMPI PUSH0 CALLDATALOAD PUSH1 0xE0 SHR DUP1 PUSH4 0xB30A89DE EQ PUSH2 0x2D JUMPI JUMPDEST PUSH0 DUP1 REVERT JUMPDEST PUSH2 0x35 PUSH2 0x4B JUMP JUMPDEST PUSH1 0x40 MLOAD PUSH2 0x42 SWAP2 SWAP1 PUSH2 0x102 JUMP JUMPDEST PUSH1 0x40 MLOAD DUP1 SWAP2 SUB SWAP1 RETURN JUMPDEST PUSH0 DUP1 PUSH0 SWAP1 SLOAD SWAP1 PUSH2 0x100 EXP SWAP1 DIV PUSH20 0xFFFFFFFFFFFFFFFFFFFFFFFFFFFFFFFFFFFFFFFF AND PUSH20 0xFFFFFFFFFFFFFFFFFFFFFFFFFFFFFFFFFFFFFFFF AND PUSH4 0x29E99F07 PUSH1 0xA PUSH1 0x40 MLOAD DUP3 PUSH4 0xFFFFFFFF AND PUSH1 0xE0 SHL DUP2 MSTORE PUSH1 0x4 ADD PUSH2 0xA6 SWAP2 SWAP1 PUSH2 0x15D JUMP JUMPDEST PUSH1 0x20 PUSH1 0x40 MLOAD DUP1 DUP4 SUB DUP2 DUP7 GAS STATICCALL ISZERO DUP1 ISZERO PUSH2 0xC1 JUMPI RETURNDATASIZE PUSH0 DUP1 RETURNDATACOPY RETURNDATASIZE PUSH0 REVERT JUMPDEST POP POP POP POP PUSH1 0x40 MLOAD RETURNDATASIZE PUSH1 0x1F NOT PUSH1 0x1F DUP3 ADD AND DUP3 ADD DUP1 PUSH1 0x40 MSTORE POP DUP2 ADD SWAP1 PUSH2 0xE5 SWAP2 SWAP1 PUSH2 0x1A4 JUMP JUMPDEST SWAP1 POP SWAP1 JUMP JUMPDEST PUSH0 DUP2 SWAP1 POP SWAP2 SWAP1 POP JUMP JUMPDEST PUSH2 0xFC DUP2 PUSH2 0xEA JUMP JUMPDEST DUP3 MSTORE POP POP JUMP JUMPDEST PUSH0 PUSH1 0x20 DUP3 ADD SWAP1 POP PUSH2 0x115 PUSH0 DUP4 ADD DUP5 PUSH2 0xF3 JUMP JUMPDEST SWAP3 SWAP2 POP POP JUMP JUMPDEST PUSH0 DUP2 SWAP1 POP SWAP2 SWAP1 POP JUMP JUMPDEST PUSH0 DUP2 SWAP1 POP SWAP2 SWAP1 POP JUMP JUMPDEST PUSH0 PUSH2 0x147 PUSH2 0x142 PUSH2 0x13D DUP5 PUSH2 0x11B JUMP JUMPDEST PUSH2 0x124 JUMP JUMPDEST PUSH2 0xEA JUMP JUMPDEST SWAP1 POP SWAP2 SWAP1 POP JUMP JUMPDEST PUSH2 0x157 DUP2 PUSH2 0x12D JUMP JUMPDEST DUP3 MSTORE POP POP JUMP JUMPDEST PUSH0 PUSH1 0x20 DUP3 ADD SWAP1 POP PUSH2 0x170 PUSH0 DUP4 ADD DUP5 PUSH2 0x14E JUMP JUMPDEST SWAP3 SWAP2 POP POP JUMP JUMPDEST PUSH0 DUP1 REVERT JUMPDEST PUSH2 0x183 DUP2 PUSH2 0xEA JUMP JUMPDEST DUP2 EQ PUSH2 0x18D JUMPI PUSH0 DUP1 REVERT JUMPDEST POP JUMP JUMPDEST PUSH0 DUP2 MLOAD SWAP1 POP PUSH2 0x19E DUP2 PUSH2 0x17A JUMP JUMPDEST SWAP3 SWAP2 POP POP JUMP JUMPDEST PUSH0 PUSH1 0x20 DUP3 DUP5 SUB SLT ISZERO PUSH2 0x1B9 JUMPI PUSH2 0x1B8 PUSH2 0x176 JUMP JUMPDEST JUMPDEST PUSH0 PUSH2 0x1C6 DUP5 DUP3 DUP6 ADD PUSH2 0x190 JUMP JUMPDEST SWAP2 POP POP SWAP3 SWAP2 POP POP JUMP INVALID LOG2 PUSH5 0x6970667358 0x22 SLT KECCAK256 0xC5 TLOAD SUB SGT 0xC8 DUP1 EXTCODECOPY 0x4E 0xD8 0xAE BALANCE BLOBHASH 0xD1 0xDF 0xB3 0xA9 PUSH9 0xEBD7DC1206374C7311 ADD PUSH6 0x9DF849306473 PUSH16 0x6C634300081A00336080604052348015 PUSH1 0xE JUMPI PUSH0 DUP1 REVERT JUMPDEST POP PUSH2 0x10F DUP1 PUSH2 0x1C PUSH0 CODECOPY PUSH0 RETURN INVALID PUSH1 0x80 PUSH1 0x40 MSTORE CALLVALUE DUP1 ISZERO PUSH1 0xE JUMPI PUSH0 DUP1 REVERT JUMPDEST POP PUSH1 0x4 CALLDATASIZE LT PUSH1 0x26 JUMPI PUSH0 CALLDATALOAD PUSH1 0xE0 SHR DUP1 PUSH4 0x29E99F07 EQ PUSH1 0x2A JUMPI JUMPDEST PUSH0 DUP1 REVERT JUMPDEST PUSH1 0x40 PUSH1 0x4 DUP1 CALLDATASIZE SUB DUP2 ADD SWAP1 PUSH1 0x3C SWAP2 SWAP1 PUSH1 0x8F JUMP JUMPDEST PUSH1 0x54 JUMP JUMPDEST PUSH1 0x40 MLOAD PUSH1 0x4B SWAP2 SWAP1 PUSH1 0xC2 JUMP JUMPDEST PUSH1 0x40 MLOAD DUP1 SWAP2 SUB SWAP1 RETURN JUMPDEST PUSH0 DUP2 SWAP1 POP SWAP2 SWAP1 POP JUMP JUMPDEST PUSH0 DUP1 REVERT JUMPDEST PUSH0 DUP2 SWAP1 POP SWAP2 SWAP1 POP JUMP JUMPDEST PUSH1 0x71 DUP2 PUSH1 0x61 JUMP JUMPDEST DUP2 EQ PUSH1 0x7A JUMPI PUSH0 DUP1 REVERT JUMPDEST POP JUMP JUMPDEST PUSH0 DUP2 CALLDATALOAD SWAP1 POP PUSH1 0x89 DUP2 PUSH1 0x6A JUMP JUMPDEST SWAP3 SWAP2 POP POP JUMP JUMPDEST PUSH0 PUSH1 0x20 DUP3 DUP5 SUB SLT ISZERO PUSH1 0xA1 JUMPI PUSH1 0xA0 PUSH1 0x5D JUMP JUMPDEST JUMPDEST PUSH0 PUSH1 0xAC DUP5 DUP3 DUP6 ADD PUSH1 0x7D JUMP JUMPDEST SWAP2 POP POP SWAP3 SWAP2 POP POP JUMP JUMPDEST PUSH1 0xBC DUP2 PUSH1 0x61 JUMP JUMPDEST DUP3 MSTORE POP POP JUMP JUMPDEST PUSH0 PUSH1 0x20 DUP3 ADD SWAP1 POP PUSH1 0xD3 PUSH0 DUP4 ADD DUP5 PUSH1 0xB5 JUMP JUMPDEST SWAP3 SWAP2 POP POP JUMP INVALID LOG2 PUSH5 0x6970667358 0x22 SLT KECCAK256 SWAP1 0xDF 0xD0 0xC0 CALLDATASIZE STOP DUP13 DUP14 0xC4 0xC9 0x4C SDIV 0xE4 0xD3 CREATE SHR DUP5 PUSH28 0x875221EDE6E064A8480AA77EEC4164736F6C634300081A0033000000 "
				},
				"gasEstimates": {
					"creation": {
						"codeDepositCost": "103400",
						"executionCost": "infinite",
						"totalCost": "infinite"
					},
					"external": {
						"callCommonTest()": "infinite"
					}
				},
				"methodIdentifiers": {
					"callCommonTest()": "b30a89de"
				}
			},
			"storageLayout": {
				"storage": [
					{
						"astId": 207,
						"contract": "Import.sol:Import",
						"label": "common",
						"offset": 0,
						"slot": "0",
						"type": "t_contract(Common)190"
					}
				],
				"types": {
					"t_contract(Common)190": {
						"encoding": "inplace",
						"label": "contract Common",
						"numberOfBytes": "20"
					}
				}
			},
			"userdoc": {
				"kind": "user",
				"methods": {},
				"version": 1
			}
		}
	}
}