{
	"LibraryContract.sol": {
		"Strings": {
			"abi": [
				{
					"inputs": [
						{
							"internalType": "uint256",
							"name": "value",
							"type": "uint256"
						},
						{
							"internalType": "uint256",
							"name": "length",
							"type": "uint256"
						}
					],
					"name": "toHexString",
					"outputs": [
						{
							"internalType": "string",
							"name": "",
							"type": "string"
						}
					],
					"stateMutability": "pure",
					"type": "function"
				},
				{
					"inputs": [
						{
							"internalType": "uint256",
							"name": "value",
							"type": "uint256"
						}
					],
					"name": "toHexString",
					"outputs": [
						{
							"internalType": "string",
							"name": "",
							"type": "string"
						}
					],
					"stateMutability": "pure",
					"type": "function"
				},
				{
					"inputs": [
						{
							"internalType": "uint256",
							"name": "value",
							"type": "uint256"
						}
					],
					"name": "toString",
					"outputs": [
						{
							"internalType": "string",
							"name": "",
							"type": "string"
						}
					],
					"stateMutability": "pure",
					"type": "function"
				}
			],
			"devdoc": {
				"kind": "dev",
				"methods": {
					"toHexString(uint256)": {
						"details": "Converts a `uint256` to its ASCII `string` hexadecimal representation."
					},
					"toHexString(uint256,uint256)": {
						"details": "Converts a `uint256` to its ASCII `string` hexadecimal representation with fixed length."
					},
					"toString(uint256)": {
						"details": "Converts a `uint256` to its ASCII `string` decimal representation."
					}
				},
				"version": 1
			},
			"evm": {
				"assembly": "    /* \"LibraryContract.sol\":1007:2944  library Strings {... */\n  dataSize(sub_0)\n  dataOffset(sub_0)\n  0x0b\n  dup3\n  dup3\n  dup3\n  codecopy\n  dup1\n  mload\n  0x00\n  byte\n  0x73\n  eq\n  tag_1\n  jumpi\n  mstore(0x00, 0x4e487b7100000000000000000000000000000000000000000000000000000000)\n  mstore(0x04, 0x00)\n  revert(0x00, 0x24)\ntag_1:\n  mstore(0x00, address)\n  0x73\n  dup2\n  mstore8\n  dup3\n  dup2\n  return\nstop\n\nsub_0: assembly {\n        /* \"LibraryContract.sol\":1007:2944  library Strings {... */\n      eq(address, deployTimeAddress())\n      mstore(0x40, 0x80)\n      jumpi(tag_1, lt(calldatasize, 0x04))\n      shr(0xe0, calldataload(0x00))\n      dup1\n      0x63e1cbea\n      eq\n      tag_2\n      jumpi\n      dup1\n      0x6900a3ae\n      eq\n      tag_3\n      jumpi\n      dup1\n      0x8fba8d5c\n      eq\n      tag_4\n      jumpi\n    tag_1:\n      0x00\n      dup1\n      revert\n        /* \"LibraryContract.sol\":2492:2941  function toHexString(uint256 value, uint256 length) public pure returns (string memory) {... */\n    tag_2:\n      tag_5\n      0x04\n      dup1\n      calldatasize\n      sub\n      dup2\n      add\n      swap1\n      tag_6\n      swap2\n      swap1\n      tag_7\n      jump\t// in\n    tag_6:\n      tag_8\n      jump\t// in\n    tag_5:\n      mload(0x40)\n      tag_9\n      swap2\n      swap1\n      tag_10\n      jump\t// in\n    tag_9:\n      mload(0x40)\n      dup1\n      swap2\n      sub\n      swap1\n      return\n        /* \"LibraryContract.sol\":1195:1916  function toString(uint256 value) public pure returns (string memory) {... */\n    tag_3:\n      tag_11\n      0x04\n      dup1\n      calldatasize\n      sub\n      dup2\n      add\n      swap1\n      tag_12\n      swap2\n      swap1\n      tag_13\n      jump\t// in\n    tag_12:\n      tag_14\n      jump\t// in\n    tag_11:\n      mload(0x40)\n      tag_15\n      swap2\n      swap1\n      tag_10\n      jump\t// in\n    tag_15:\n      mload(0x40)\n      dup1\n      swap2\n      sub\n      swap1\n      return\n        /* \"LibraryContract.sol\":2026:2364  function toHexString(uint256 value) public pure returns (string memory) {... */\n    tag_4:\n      tag_16\n      0x04\n      dup1\n      calldatasize\n      sub\n      dup2\n      add\n      swap1\n      tag_17\n      swap2\n      swap1\n      tag_13\n      jump\t// in\n    tag_17:\n      tag_18\n      jump\t// in\n    tag_16:\n      mload(0x40)\n      tag_19\n      swap2\n      swap1\n      tag_10\n      jump\t// in\n    tag_19:\n      mload(0x40)\n      dup1\n      swap2\n      sub\n      swap1\n      return\n        /* \"LibraryContract.sol\":2492:2941  function toHexString(uint256 value, uint256 length) public pure returns (string memory) {... */\n    tag_8:\n        /* \"LibraryContract.sol\":2565:2578  string memory */\n      0x60\n        /* \"LibraryContract.sol\":2591:2610  bytes memory buffer */\n      0x00\n        /* \"LibraryContract.sol\":2636:2637  2 */\n      0x02\n        /* \"LibraryContract.sol\":2627:2633  length */\n      dup4\n        /* \"LibraryContract.sol\":2623:2624  2 */\n      0x02\n        /* \"LibraryContract.sol\":2623:2633  2 * length */\n      tag_21\n      swap2\n      swap1\n      tag_22\n      jump\t// in\n    tag_21:\n        /* \"LibraryContract.sol\":2623:2637  2 * length + 2 */\n      tag_23\n      swap2\n      swap1\n      tag_24\n      jump\t// in\n    tag_23:\n        /* \"LibraryContract.sol\":2613:2638  new bytes(2 * length + 2) */\n      0xffffffffffffffff\n      dup2\n      gt\n      iszero\n      tag_25\n      jumpi\n      tag_26\n      tag_27\n      jump\t// in\n    tag_26:\n    tag_25:\n      mload(0x40)\n      swap1\n      dup1\n      dup3\n      mstore\n      dup1\n      0x1f\n      add\n      not(0x1f)\n      and\n      0x20\n      add\n      dup3\n      add\n      0x40\n      mstore\n      dup1\n      iszero\n      tag_28\n      jumpi\n      dup2\n      0x20\n      add\n      0x01\n      dup3\n      mul\n      dup1\n      calldatasize\n      dup4\n      calldatacopy\n      dup1\n      dup3\n      add\n      swap2\n      pop\n      pop\n      swap1\n      pop\n    tag_28:\n      pop\n        /* \"LibraryContract.sol\":2591:2638  bytes memory buffer = new bytes(2 * length + 2) */\n      swap1\n      pop\n        /* \"LibraryContract.sol\":2649:2664  buffer[0] = \"0\" */\n      0x3000000000000000000000000000000000000000000000000000000000000000\n        /* \"LibraryContract.sol\":2649:2655  buffer */\n      dup2\n        /* \"LibraryContract.sol\":2656:2657  0 */\n      0x00\n        /* \"LibraryContract.sol\":2649:2658  buffer[0] */\n      dup2\n      mload\n      dup2\n      lt\n      tag_29\n      jumpi\n      tag_30\n      tag_31\n      jump\t// in\n    tag_30:\n    tag_29:\n      0x20\n      add\n      add\n        /* \"LibraryContract.sol\":2649:2664  buffer[0] = \"0\" */\n      swap1\n      not(0xffffffffffffffffffffffffffffffffffffffffffffffffffffffffffffff)\n      and\n      swap1\n      dup2\n      0x00\n      byte\n      swap1\n      mstore8\n      pop\n        /* \"LibraryContract.sol\":2675:2690  buffer[1] = \"x\" */\n      0x7800000000000000000000000000000000000000000000000000000000000000\n        /* \"LibraryContract.sol\":2675:2681  buffer */\n      dup2\n        /* \"LibraryContract.sol\":2682:2683  1 */\n      0x01\n        /* \"LibraryContract.sol\":2675:2684  buffer[1] */\n      dup2\n      mload\n      dup2\n      lt\n      tag_32\n      jumpi\n      tag_33\n      tag_31\n      jump\t// in\n    tag_33:\n    tag_32:\n      0x20\n      add\n      add\n        /* \"LibraryContract.sol\":2675:2690  buffer[1] = \"x\" */\n      swap1\n      not(0xffffffffffffffffffffffffffffffffffffffffffffffffffffffffffffff)\n      and\n      swap1\n      dup2\n      0x00\n      byte\n      swap1\n      mstore8\n      pop\n        /* \"LibraryContract.sol\":2706:2715  uint256 i */\n      0x00\n        /* \"LibraryContract.sol\":2731:2732  1 */\n      0x01\n        /* \"LibraryContract.sol\":2722:2728  length */\n      dup5\n        /* \"LibraryContract.sol\":2718:2719  2 */\n      0x02\n        /* \"LibraryContract.sol\":2718:2728  2 * length */\n      tag_37\n      swap2\n      swap1\n      tag_22\n      jump\t// in\n    tag_37:\n        /* \"LibraryContract.sol\":2718:2732  2 * length + 1 */\n      tag_38\n      swap2\n      swap1\n      tag_24\n      jump\t// in\n    tag_38:\n        /* \"LibraryContract.sol\":2706:2732  uint256 i = 2 * length + 1 */\n      swap1\n      pop\n        /* \"LibraryContract.sol\":2701:2836  for (uint256 i = 2 * length + 1; i > 1; --i) {... */\n    tag_34:\n        /* \"LibraryContract.sol\":2738:2739  1 */\n      0x01\n        /* \"LibraryContract.sol\":2734:2735  i */\n      dup2\n        /* \"LibraryContract.sol\":2734:2739  i > 1 */\n      gt\n        /* \"LibraryContract.sol\":2701:2836  for (uint256 i = 2 * length + 1; i > 1; --i) {... */\n      iszero\n      tag_35\n      jumpi\n        /* \"LibraryContract.sol\":2773:2785  _HEX_SYMBOLS */\n      0x3031323334353637383961626364656600000000000000000000000000000000\n        /* \"LibraryContract.sol\":2794:2797  0xf */\n      0x0f\n        /* \"LibraryContract.sol\":2786:2791  value */\n      dup7\n        /* \"LibraryContract.sol\":2786:2797  value & 0xf */\n      and\n        /* \"LibraryContract.sol\":2773:2798  _HEX_SYMBOLS[value & 0xf] */\n      0x10\n      dup2\n      lt\n      tag_39\n      jumpi\n      tag_40\n      tag_31\n      jump\t// in\n    tag_40:\n    tag_39:\n      byte\n      0xf8\n      shl\n        /* \"LibraryContract.sol\":2761:2767  buffer */\n      dup3\n        /* \"LibraryContract.sol\":2768:2769  i */\n      dup3\n        /* \"LibraryContract.sol\":2761:2770  buffer[i] */\n      dup2\n      mload\n      dup2\n      lt\n      tag_41\n      jumpi\n      tag_42\n      tag_31\n      jump\t// in\n    tag_42:\n    tag_41:\n      0x20\n      add\n      add\n        /* \"LibraryContract.sol\":2761:2798  buffer[i] = _HEX_SYMBOLS[value & 0xf] */\n      swap1\n      not(0xffffffffffffffffffffffffffffffffffffffffffffffffffffffffffffff)\n      and\n      swap1\n      dup2\n      0x00\n      byte\n      swap1\n      mstore8\n      pop\n        /* \"LibraryContract.sol\":2823:2824  4 */\n      0x04\n        /* \"LibraryContract.sol\":2813:2824  value >>= 4 */\n      dup6\n      swap1\n      shr\n      swap5\n      pop\n        /* \"LibraryContract.sol\":2741:2744  --i */\n      dup1\n      tag_43\n      swap1\n      tag_44\n      jump\t// in\n    tag_43:\n      swap1\n      pop\n        /* \"LibraryContract.sol\":2701:2836  for (uint256 i = 2 * length + 1; i > 1; --i) {... */\n      jump(tag_34)\n    tag_35:\n      pop\n        /* \"LibraryContract.sol\":2863:2864  0 */\n      0x00\n        /* \"LibraryContract.sol\":2854:2859  value */\n      dup5\n        /* \"LibraryContract.sol\":2854:2864  value == 0 */\n      eq\n        /* \"LibraryContract.sol\":2846:2901  require(value == 0, \"Strings: hex length insufficient\") */\n      tag_45\n      jumpi\n      mload(0x40)\n      0x08c379a000000000000000000000000000000000000000000000000000000000\n      dup2\n      mstore\n      0x04\n      add\n      tag_46\n      swap1\n      tag_47\n      jump\t// in\n    tag_46:\n      mload(0x40)\n      dup1\n      swap2\n      sub\n      swap1\n      revert\n    tag_45:\n        /* \"LibraryContract.sol\":2926:2932  buffer */\n      dup1\n        /* \"LibraryContract.sol\":2912:2933  return string(buffer) */\n      swap2\n      pop\n      pop\n        /* \"LibraryContract.sol\":2492:2941  function toHexString(uint256 value, uint256 length) public pure returns (string memory) {... */\n      swap3\n      swap2\n      pop\n      pop\n      jump\t// out\n        /* \"LibraryContract.sol\":1195:1916  function toString(uint256 value) public pure returns (string memory) {... */\n    tag_14:\n        /* \"LibraryContract.sol\":1249:1262  string memory */\n      0x60\n        /* \"LibraryContract.sol\":1479:1480  0 */\n      0x00\n        /* \"LibraryContract.sol\":1470:1475  value */\n      dup3\n        /* \"LibraryContract.sol\":1470:1480  value == 0 */\n      sub\n        /* \"LibraryContract.sol\":1466:1519  if (value == 0) {... */\n      tag_49\n      jumpi\n        /* \"LibraryContract.sol\":1497:1507  return \"0\" */\n      mload(0x40)\n      dup1\n      0x40\n      add\n      0x40\n      mstore\n      dup1\n      0x01\n      dup2\n      mstore\n      0x20\n      add\n      0x3000000000000000000000000000000000000000000000000000000000000000\n      dup2\n      mstore\n      pop\n      swap1\n      pop\n      jump(tag_48)\n        /* \"LibraryContract.sol\":1466:1519  if (value == 0) {... */\n    tag_49:\n        /* \"LibraryContract.sol\":1529:1541  uint256 temp */\n      0x00\n        /* \"LibraryContract.sol\":1544:1549  value */\n      dup3\n        /* \"LibraryContract.sol\":1529:1549  uint256 temp = value */\n      swap1\n      pop\n        /* \"LibraryContract.sol\":1560:1574  uint256 digits */\n      0x00\n        /* \"LibraryContract.sol\":1585:1663  while (temp != 0) {... */\n    tag_50:\n        /* \"LibraryContract.sol\":1600:1601  0 */\n      0x00\n        /* \"LibraryContract.sol\":1592:1596  temp */\n      dup3\n        /* \"LibraryContract.sol\":1592:1601  temp != 0 */\n      eq\n        /* \"LibraryContract.sol\":1585:1663  while (temp != 0) {... */\n      tag_51\n      jumpi\n        /* \"LibraryContract.sol\":1618:1626  digits++ */\n      dup1\n      dup1\n      tag_52\n      swap1\n      tag_53\n      jump\t// in\n    tag_52:\n      swap2\n      pop\n      pop\n        /* \"LibraryContract.sol\":1649:1651  10 */\n      0x0a\n        /* \"LibraryContract.sol\":1641:1651  temp /= 10 */\n      dup3\n      tag_54\n      swap2\n      swap1\n      tag_55\n      jump\t// in\n    tag_54:\n      swap2\n      pop\n        /* \"LibraryContract.sol\":1585:1663  while (temp != 0) {... */\n      jump(tag_50)\n    tag_51:\n        /* \"LibraryContract.sol\":1673:1692  bytes memory buffer */\n      0x00\n        /* \"LibraryContract.sol\":1705:1711  digits */\n      dup2\n        /* \"LibraryContract.sol\":1695:1712  new bytes(digits) */\n      0xffffffffffffffff\n      dup2\n      gt\n      iszero\n      tag_56\n      jumpi\n      tag_57\n      tag_27\n      jump\t// in\n    tag_57:\n    tag_56:\n      mload(0x40)\n      swap1\n      dup1\n      dup3\n      mstore\n      dup1\n      0x1f\n      add\n      not(0x1f)\n      and\n      0x20\n      add\n      dup3\n      add\n      0x40\n      mstore\n      dup1\n      iszero\n      tag_58\n      jumpi\n      dup2\n      0x20\n      add\n      0x01\n      dup3\n      mul\n      dup1\n      calldatasize\n      dup4\n      calldatacopy\n      dup1\n      dup3\n      add\n      swap2\n      pop\n      pop\n      swap1\n      pop\n    tag_58:\n      pop\n        /* \"LibraryContract.sol\":1673:1712  bytes memory buffer = new bytes(digits) */\n      swap1\n      pop\n        /* \"LibraryContract.sol\":1723:1877  while (value != 0) {... */\n    tag_59:\n        /* \"LibraryContract.sol\":1739:1740  0 */\n      0x00\n        /* \"LibraryContract.sol\":1730:1735  value */\n      dup6\n        /* \"LibraryContract.sol\":1730:1740  value != 0 */\n      eq\n        /* \"LibraryContract.sol\":1723:1877  while (value != 0) {... */\n      tag_60\n      jumpi\n        /* \"LibraryContract.sol\":1767:1768  1 */\n      0x01\n        /* \"LibraryContract.sol\":1757:1768  digits -= 1 */\n      dup3\n      tag_61\n      swap2\n      swap1\n      tag_62\n      jump\t// in\n    tag_61:\n      swap2\n      pop\n        /* \"LibraryContract.sol\":1834:1836  10 */\n      0x0a\n        /* \"LibraryContract.sol\":1826:1831  value */\n      dup6\n        /* \"LibraryContract.sol\":1826:1836  value % 10 */\n      tag_63\n      swap2\n      swap1\n      tag_64\n      jump\t// in\n    tag_63:\n        /* \"LibraryContract.sol\":1813:1815  48 */\n      0x30\n        /* \"LibraryContract.sol\":1813:1837  48 + uint256(value % 10) */\n      tag_65\n      swap2\n      swap1\n      tag_24\n      jump\t// in\n    tag_65:\n        /* \"LibraryContract.sol\":1800:1839  bytes1(uint8(48 + uint256(value % 10))) */\n      0xf8\n      shl\n        /* \"LibraryContract.sol\":1783:1789  buffer */\n      dup2\n        /* \"LibraryContract.sol\":1790:1796  digits */\n      dup4\n        /* \"LibraryContract.sol\":1783:1797  buffer[digits] */\n      dup2\n      mload\n      dup2\n      lt\n      tag_66\n      jumpi\n      tag_67\n      tag_31\n      jump\t// in\n    tag_67:\n    tag_66:\n      0x20\n      add\n      add\n        /* \"LibraryContract.sol\":1783:1839  buffer[digits] = bytes1(uint8(48 + uint256(value % 10))) */\n      swap1\n      not(0xffffffffffffffffffffffffffffffffffffffffffffffffffffffffffffff)\n      and\n      swap1\n      dup2\n      0x00\n      byte\n      swap1\n      mstore8\n      pop\n        /* \"LibraryContract.sol\":1863:1865  10 */\n      0x0a\n        /* \"LibraryContract.sol\":1854:1865  value /= 10 */\n      dup6\n      tag_68\n      swap2\n      swap1\n      tag_55\n      jump\t// in\n    tag_68:\n      swap5\n      pop\n        /* \"LibraryContract.sol\":1723:1877  while (value != 0) {... */\n      jump(tag_59)\n    tag_60:\n        /* \"LibraryContract.sol\":1901:1907  buffer */\n      dup1\n        /* \"LibraryContract.sol\":1887:1908  return string(buffer) */\n      swap4\n      pop\n      pop\n      pop\n      pop\n        /* \"LibraryContract.sol\":1195:1916  function toString(uint256 value) public pure returns (string memory) {... */\n    tag_48:\n      swap2\n      swap1\n      pop\n      jump\t// out\n        /* \"LibraryContract.sol\":2026:2364  function toHexString(uint256 value) public pure returns (string memory) {... */\n    tag_18:\n        /* \"LibraryContract.sol\":2083:2096  string memory */\n      0x60\n        /* \"LibraryContract.sol\":2122:2123  0 */\n      0x00\n        /* \"LibraryContract.sol\":2113:2118  value */\n      dup3\n        /* \"LibraryContract.sol\":2113:2123  value == 0 */\n      sub\n        /* \"LibraryContract.sol\":2109:2165  if (value == 0) {... */\n      tag_70\n      jumpi\n        /* \"LibraryContract.sol\":2140:2153  return \"0x00\" */\n      mload(0x40)\n      dup1\n      0x40\n      add\n      0x40\n      mstore\n      dup1\n      0x04\n      dup2\n      mstore\n      0x20\n      add\n      0x3078303000000000000000000000000000000000000000000000000000000000\n      dup2\n      mstore\n      pop\n      swap1\n      pop\n      jump(tag_69)\n        /* \"LibraryContract.sol\":2109:2165  if (value == 0) {... */\n    tag_70:\n        /* \"LibraryContract.sol\":2175:2187  uint256 temp */\n      0x00\n        /* \"LibraryContract.sol\":2190:2195  value */\n      dup3\n        /* \"LibraryContract.sol\":2175:2195  uint256 temp = value */\n      swap1\n      pop\n        /* \"LibraryContract.sol\":2206:2220  uint256 length */\n      0x00\n        /* \"LibraryContract.sol\":2235:2313  while (temp != 0) {... */\n    tag_71:\n        /* \"LibraryContract.sol\":2250:2251  0 */\n      0x00\n        /* \"LibraryContract.sol\":2242:2246  temp */\n      dup3\n        /* \"LibraryContract.sol\":2242:2251  temp != 0 */\n      eq\n        /* \"LibraryContract.sol\":2235:2313  while (temp != 0) {... */\n      tag_72\n      jumpi\n        /* \"LibraryContract.sol\":2268:2276  length++ */\n      dup1\n      dup1\n      tag_73\n      swap1\n      tag_53\n      jump\t// in\n    tag_73:\n      swap2\n      pop\n      pop\n        /* \"LibraryContract.sol\":2300:2301  8 */\n      0x08\n        /* \"LibraryContract.sol\":2291:2301  temp >>= 8 */\n      dup3\n      swap1\n      shr\n      swap2\n      pop\n        /* \"LibraryContract.sol\":2235:2313  while (temp != 0) {... */\n      jump(tag_71)\n    tag_72:\n        /* \"LibraryContract.sol\":2330:2356  toHexString(value, length) */\n      tag_74\n        /* \"LibraryContract.sol\":2342:2347  value */\n      dup5\n        /* \"LibraryContract.sol\":2349:2355  length */\n      dup3\n        /* \"LibraryContract.sol\":2330:2341  toHexString */\n      tag_8\n        /* \"LibraryContract.sol\":2330:2356  toHexString(value, length) */\n      jump\t// in\n    tag_74:\n        /* \"LibraryContract.sol\":2323:2356  return toHexString(value, length) */\n      swap3\n      pop\n      pop\n      pop\n        /* \"LibraryContract.sol\":2026:2364  function toHexString(uint256 value) public pure returns (string memory) {... */\n    tag_69:\n      swap2\n      swap1\n      pop\n      jump\t// out\n        /* \"#utility.yul\":88:205   */\n    tag_76:\n        /* \"#utility.yul\":197:198   */\n      0x00\n        /* \"#utility.yul\":194:195   */\n      dup1\n        /* \"#utility.yul\":187:199   */\n      revert\n        /* \"#utility.yul\":334:411   */\n    tag_78:\n        /* \"#utility.yul\":371:378   */\n      0x00\n        /* \"#utility.yul\":400:405   */\n      dup2\n        /* \"#utility.yul\":389:405   */\n      swap1\n      pop\n        /* \"#utility.yul\":334:411   */\n      swap2\n      swap1\n      pop\n      jump\t// out\n        /* \"#utility.yul\":417:539   */\n    tag_79:\n        /* \"#utility.yul\":490:514   */\n      tag_97\n        /* \"#utility.yul\":508:513   */\n      dup2\n        /* \"#utility.yul\":490:514   */\n      tag_78\n      jump\t// in\n    tag_97:\n        /* \"#utility.yul\":483:488   */\n      dup2\n        /* \"#utility.yul\":480:515   */\n      eq\n        /* \"#utility.yul\":470:533   */\n      tag_98\n      jumpi\n        /* \"#utility.yul\":529:530   */\n      0x00\n        /* \"#utility.yul\":526:527   */\n      dup1\n        /* \"#utility.yul\":519:531   */\n      revert\n        /* \"#utility.yul\":470:533   */\n    tag_98:\n        /* \"#utility.yul\":417:539   */\n      pop\n      jump\t// out\n        /* \"#utility.yul\":545:684   */\n    tag_80:\n        /* \"#utility.yul\":591:596   */\n      0x00\n        /* \"#utility.yul\":629:635   */\n      dup2\n        /* \"#utility.yul\":616:636   */\n      calldataload\n        /* \"#utility.yul\":607:636   */\n      swap1\n      pop\n        /* \"#utility.yul\":645:678   */\n      tag_100\n        /* \"#utility.yul\":672:677   */\n      dup2\n        /* \"#utility.yul\":645:678   */\n      tag_79\n      jump\t// in\n    tag_100:\n        /* \"#utility.yul\":545:684   */\n      swap3\n      swap2\n      pop\n      pop\n      jump\t// out\n        /* \"#utility.yul\":690:1164   */\n    tag_7:\n        /* \"#utility.yul\":758:764   */\n      0x00\n        /* \"#utility.yul\":766:772   */\n      dup1\n        /* \"#utility.yul\":815:817   */\n      0x40\n        /* \"#utility.yul\":803:812   */\n      dup4\n        /* \"#utility.yul\":794:801   */\n      dup6\n        /* \"#utility.yul\":790:813   */\n      sub\n        /* \"#utility.yul\":786:818   */\n      slt\n        /* \"#utility.yul\":783:902   */\n      iszero\n      tag_102\n      jumpi\n        /* \"#utility.yul\":821:900   */\n      tag_103\n      tag_76\n      jump\t// in\n    tag_103:\n        /* \"#utility.yul\":783:902   */\n    tag_102:\n        /* \"#utility.yul\":941:942   */\n      0x00\n        /* \"#utility.yul\":966:1019   */\n      tag_104\n        /* \"#utility.yul\":1011:1018   */\n      dup6\n        /* \"#utility.yul\":1002:1008   */\n      dup3\n        /* \"#utility.yul\":991:1000   */\n      dup7\n        /* \"#utility.yul\":987:1009   */\n      add\n        /* \"#utility.yul\":966:1019   */\n      tag_80\n      jump\t// in\n    tag_104:\n        /* \"#utility.yul\":956:1019   */\n      swap3\n      pop\n        /* \"#utility.yul\":912:1029   */\n      pop\n        /* \"#utility.yul\":1068:1070   */\n      0x20\n        /* \"#utility.yul\":1094:1147   */\n      tag_105\n        /* \"#utility.yul\":1139:1146   */\n      dup6\n        /* \"#utility.yul\":1130:1136   */\n      dup3\n        /* \"#utility.yul\":1119:1128   */\n      dup7\n        /* \"#utility.yul\":1115:1137   */\n      add\n        /* \"#utility.yul\":1094:1147   */\n      tag_80\n      jump\t// in\n    tag_105:\n        /* \"#utility.yul\":1084:1147   */\n      swap2\n      pop\n        /* \"#utility.yul\":1039:1157   */\n      pop\n        /* \"#utility.yul\":690:1164   */\n      swap3\n      pop\n      swap3\n      swap1\n      pop\n      jump\t// out\n        /* \"#utility.yul\":1170:1269   */\n    tag_81:\n        /* \"#utility.yul\":1222:1228   */\n      0x00\n        /* \"#utility.yul\":1256:1261   */\n      dup2\n        /* \"#utility.yul\":1250:1262   */\n      mload\n        /* \"#utility.yul\":1240:1262   */\n      swap1\n      pop\n        /* \"#utility.yul\":1170:1269   */\n      swap2\n      swap1\n      pop\n      jump\t// out\n        /* \"#utility.yul\":1275:1452   */\n    tag_82:\n        /* \"#utility.yul\":1367:1378   */\n      0x00\n        /* \"#utility.yul\":1401:1407   */\n      dup3\n        /* \"#utility.yul\":1396:1399   */\n      dup3\n        /* \"#utility.yul\":1389:1408   */\n      mstore\n        /* \"#utility.yul\":1441:1445   */\n      0x20\n        /* \"#utility.yul\":1436:1439   */\n      dup3\n        /* \"#utility.yul\":1432:1446   */\n      add\n        /* \"#utility.yul\":1417:1446   */\n      swap1\n      pop\n        /* \"#utility.yul\":1275:1452   */\n      swap3\n      swap2\n      pop\n      pop\n      jump\t// out\n        /* \"#utility.yul\":1458:1597   */\n    tag_83:\n        /* \"#utility.yul\":1547:1553   */\n      dup3\n        /* \"#utility.yul\":1542:1545   */\n      dup2\n        /* \"#utility.yul\":1537:1540   */\n      dup4\n        /* \"#utility.yul\":1531:1554   */\n      mcopy\n        /* \"#utility.yul\":1588:1589   */\n      0x00\n        /* \"#utility.yul\":1579:1585   */\n      dup4\n        /* \"#utility.yul\":1574:1577   */\n      dup4\n        /* \"#utility.yul\":1570:1586   */\n      add\n        /* \"#utility.yul\":1563:1590   */\n      mstore\n        /* \"#utility.yul\":1458:1597   */\n      pop\n      pop\n      pop\n      jump\t// out\n        /* \"#utility.yul\":1603:1705   */\n    tag_84:\n        /* \"#utility.yul\":1644:1650   */\n      0x00\n        /* \"#utility.yul\":1695:1697   */\n      0x1f\n        /* \"#utility.yul\":1691:1698   */\n      not\n        /* \"#utility.yul\":1686:1688   */\n      0x1f\n        /* \"#utility.yul\":1679:1684   */\n      dup4\n        /* \"#utility.yul\":1675:1689   */\n      add\n        /* \"#utility.yul\":1671:1699   */\n      and\n        /* \"#utility.yul\":1661:1699   */\n      swap1\n      pop\n        /* \"#utility.yul\":1603:1705   */\n      swap2\n      swap1\n      pop\n      jump\t// out\n        /* \"#utility.yul\":1711:2104   */\n    tag_85:\n        /* \"#utility.yul\":1807:1810   */\n      0x00\n        /* \"#utility.yul\":1835:1874   */\n      tag_111\n        /* \"#utility.yul\":1868:1873   */\n      dup3\n        /* \"#utility.yul\":1835:1874   */\n      tag_81\n      jump\t// in\n    tag_111:\n        /* \"#utility.yul\":1890:1969   */\n      tag_112\n        /* \"#utility.yul\":1962:1968   */\n      dup2\n        /* \"#utility.yul\":1957:1960   */\n      dup6\n        /* \"#utility.yul\":1890:1969   */\n      tag_82\n      jump\t// in\n    tag_112:\n        /* \"#utility.yul\":1883:1969   */\n      swap4\n      pop\n        /* \"#utility.yul\":1978:2043   */\n      tag_113\n        /* \"#utility.yul\":2036:2042   */\n      dup2\n        /* \"#utility.yul\":2031:2034   */\n      dup6\n        /* \"#utility.yul\":2024:2028   */\n      0x20\n        /* \"#utility.yul\":2017:2022   */\n      dup7\n        /* \"#utility.yul\":2013:2029   */\n      add\n        /* \"#utility.yul\":1978:2043   */\n      tag_83\n      jump\t// in\n    tag_113:\n        /* \"#utility.yul\":2068:2097   */\n      tag_114\n        /* \"#utility.yul\":2090:2096   */\n      dup2\n        /* \"#utility.yul\":2068:2097   */\n      tag_84\n      jump\t// in\n    tag_114:\n        /* \"#utility.yul\":2063:2066   */\n      dup5\n        /* \"#utility.yul\":2059:2098   */\n      add\n        /* \"#utility.yul\":2052:2098   */\n      swap2\n      pop\n        /* \"#utility.yul\":1811:2104   */\n      pop\n        /* \"#utility.yul\":1711:2104   */\n      swap3\n      swap2\n      pop\n      pop\n      jump\t// out\n        /* \"#utility.yul\":2110:2439   */\n    tag_10:\n        /* \"#utility.yul\":2231:2235   */\n      0x00\n        /* \"#utility.yul\":2269:2271   */\n      0x20\n        /* \"#utility.yul\":2258:2267   */\n      dup3\n        /* \"#utility.yul\":2254:2272   */\n      add\n        /* \"#utility.yul\":2246:2272   */\n      swap1\n      pop\n        /* \"#utility.yul\":2318:2327   */\n      dup2\n        /* \"#utility.yul\":2312:2316   */\n      dup2\n        /* \"#utility.yul\":2308:2328   */\n      sub\n        /* \"#utility.yul\":2304:2305   */\n      0x00\n        /* \"#utility.yul\":2293:2302   */\n      dup4\n        /* \"#utility.yul\":2289:2306   */\n      add\n        /* \"#utility.yul\":2282:2329   */\n      mstore\n        /* \"#utility.yul\":2346:2432   */\n      tag_116\n        /* \"#utility.yul\":2427:2431   */\n      dup2\n        /* \"#utility.yul\":2418:2424   */\n      dup5\n        /* \"#utility.yul\":2346:2432   */\n      tag_85\n      jump\t// in\n    tag_116:\n        /* \"#utility.yul\":2338:2432   */\n      swap1\n      pop\n        /* \"#utility.yul\":2110:2439   */\n      swap3\n      swap2\n      pop\n      pop\n      jump\t// out\n        /* \"#utility.yul\":2445:2774   */\n    tag_13:\n        /* \"#utility.yul\":2504:2510   */\n      0x00\n        /* \"#utility.yul\":2553:2555   */\n      0x20\n        /* \"#utility.yul\":2541:2550   */\n      dup3\n        /* \"#utility.yul\":2532:2539   */\n      dup5\n        /* \"#utility.yul\":2528:2551   */\n      sub\n        /* \"#utility.yul\":2524:2556   */\n      slt\n        /* \"#utility.yul\":2521:2640   */\n      iszero\n      tag_118\n      jumpi\n        /* \"#utility.yul\":2559:2638   */\n      tag_119\n      tag_76\n      jump\t// in\n    tag_119:\n        /* \"#utility.yul\":2521:2640   */\n    tag_118:\n        /* \"#utility.yul\":2679:2680   */\n      0x00\n        /* \"#utility.yul\":2704:2757   */\n      tag_120\n        /* \"#utility.yul\":2749:2756   */\n      dup5\n        /* \"#utility.yul\":2740:2746   */\n      dup3\n        /* \"#utility.yul\":2729:2738   */\n      dup6\n        /* \"#utility.yul\":2725:2747   */\n      add\n        /* \"#utility.yul\":2704:2757   */\n      tag_80\n      jump\t// in\n    tag_120:\n        /* \"#utility.yul\":2694:2757   */\n      swap2\n      pop\n        /* \"#utility.yul\":2650:2767   */\n      pop\n        /* \"#utility.yul\":2445:2774   */\n      swap3\n      swap2\n      pop\n      pop\n      jump\t// out\n        /* \"#utility.yul\":2780:2960   */\n    tag_86:\n        /* \"#utility.yul\":2828:2905   */\n      0x4e487b7100000000000000000000000000000000000000000000000000000000\n        /* \"#utility.yul\":2825:2826   */\n      0x00\n        /* \"#utility.yul\":2818:2906   */\n      mstore\n        /* \"#utility.yul\":2925:2929   */\n      0x11\n        /* \"#utility.yul\":2922:2923   */\n      0x04\n        /* \"#utility.yul\":2915:2930   */\n      mstore\n        /* \"#utility.yul\":2949:2953   */\n      0x24\n        /* \"#utility.yul\":2946:2947   */\n      0x00\n        /* \"#utility.yul\":2939:2954   */\n      revert\n        /* \"#utility.yul\":2966:3376   */\n    tag_22:\n        /* \"#utility.yul\":3006:3013   */\n      0x00\n        /* \"#utility.yul\":3029:3049   */\n      tag_123\n        /* \"#utility.yul\":3047:3048   */\n      dup3\n        /* \"#utility.yul\":3029:3049   */\n      tag_78\n      jump\t// in\n    tag_123:\n        /* \"#utility.yul\":3024:3049   */\n      swap2\n      pop\n        /* \"#utility.yul\":3063:3083   */\n      tag_124\n        /* \"#utility.yul\":3081:3082   */\n      dup4\n        /* \"#utility.yul\":3063:3083   */\n      tag_78\n      jump\t// in\n    tag_124:\n        /* \"#utility.yul\":3058:3083   */\n      swap3\n      pop\n        /* \"#utility.yul\":3118:3119   */\n      dup3\n        /* \"#utility.yul\":3115:3116   */\n      dup3\n        /* \"#utility.yul\":3111:3120   */\n      mul\n        /* \"#utility.yul\":3140:3170   */\n      tag_125\n        /* \"#utility.yul\":3158:3169   */\n      dup2\n        /* \"#utility.yul\":3140:3170   */\n      tag_78\n      jump\t// in\n    tag_125:\n        /* \"#utility.yul\":3129:3170   */\n      swap2\n      pop\n        /* \"#utility.yul\":3319:3320   */\n      dup3\n        /* \"#utility.yul\":3310:3317   */\n      dup3\n        /* \"#utility.yul\":3306:3321   */\n      div\n        /* \"#utility.yul\":3303:3304   */\n      dup5\n        /* \"#utility.yul\":3300:3322   */\n      eq\n        /* \"#utility.yul\":3280:3281   */\n      dup4\n        /* \"#utility.yul\":3273:3282   */\n      iszero\n        /* \"#utility.yul\":3253:3336   */\n      or\n        /* \"#utility.yul\":3230:3369   */\n      tag_126\n      jumpi\n        /* \"#utility.yul\":3349:3367   */\n      tag_127\n      tag_86\n      jump\t// in\n    tag_127:\n        /* \"#utility.yul\":3230:3369   */\n    tag_126:\n        /* \"#utility.yul\":3014:3376   */\n      pop\n        /* \"#utility.yul\":2966:3376   */\n      swap3\n      swap2\n      pop\n      pop\n      jump\t// out\n        /* \"#utility.yul\":3382:3573   */\n    tag_24:\n        /* \"#utility.yul\":3422:3425   */\n      0x00\n        /* \"#utility.yul\":3441:3461   */\n      tag_129\n        /* \"#utility.yul\":3459:3460   */\n      dup3\n        /* \"#utility.yul\":3441:3461   */\n      tag_78\n      jump\t// in\n    tag_129:\n        /* \"#utility.yul\":3436:3461   */\n      swap2\n      pop\n        /* \"#utility.yul\":3475:3495   */\n      tag_130\n        /* \"#utility.yul\":3493:3494   */\n      dup4\n        /* \"#utility.yul\":3475:3495   */\n      tag_78\n      jump\t// in\n    tag_130:\n        /* \"#utility.yul\":3470:3495   */\n      swap3\n      pop\n        /* \"#utility.yul\":3518:3519   */\n      dup3\n        /* \"#utility.yul\":3515:3516   */\n      dup3\n        /* \"#utility.yul\":3511:3520   */\n      add\n        /* \"#utility.yul\":3504:3520   */\n      swap1\n      pop\n        /* \"#utility.yul\":3539:3542   */\n      dup1\n        /* \"#utility.yul\":3536:3537   */\n      dup3\n        /* \"#utility.yul\":3533:3543   */\n      gt\n        /* \"#utility.yul\":3530:3566   */\n      iszero\n      tag_131\n      jumpi\n        /* \"#utility.yul\":3546:3564   */\n      tag_132\n      tag_86\n      jump\t// in\n    tag_132:\n        /* \"#utility.yul\":3530:3566   */\n    tag_131:\n        /* \"#utility.yul\":3382:3573   */\n      swap3\n      swap2\n      pop\n      pop\n      jump\t// out\n        /* \"#utility.yul\":3579:3759   */\n    tag_27:\n        /* \"#utility.yul\":3627:3704   */\n      0x4e487b7100000000000000000000000000000000000000000000000000000000\n        /* \"#utility.yul\":3624:3625   */\n      0x00\n        /* \"#utility.yul\":3617:3705   */\n      mstore\n        /* \"#utility.yul\":3724:3728   */\n      0x41\n        /* \"#utility.yul\":3721:3722   */\n      0x04\n        /* \"#utility.yul\":3714:3729   */\n      mstore\n        /* \"#utility.yul\":3748:3752   */\n      0x24\n        /* \"#utility.yul\":3745:3746   */\n      0x00\n        /* \"#utility.yul\":3738:3753   */\n      revert\n        /* \"#utility.yul\":3765:3945   */\n    tag_31:\n        /* \"#utility.yul\":3813:3890   */\n      0x4e487b7100000000000000000000000000000000000000000000000000000000\n        /* \"#utility.yul\":3810:3811   */\n      0x00\n        /* \"#utility.yul\":3803:3891   */\n      mstore\n        /* \"#utility.yul\":3910:3914   */\n      0x32\n        /* \"#utility.yul\":3907:3908   */\n      0x04\n        /* \"#utility.yul\":3900:3915   */\n      mstore\n        /* \"#utility.yul\":3934:3938   */\n      0x24\n        /* \"#utility.yul\":3931:3932   */\n      0x00\n        /* \"#utility.yul\":3924:3939   */\n      revert\n        /* \"#utility.yul\":3951:4122   */\n    tag_44:\n        /* \"#utility.yul\":3990:3993   */\n      0x00\n        /* \"#utility.yul\":4013:4037   */\n      tag_136\n        /* \"#utility.yul\":4031:4036   */\n      dup3\n        /* \"#utility.yul\":4013:4037   */\n      tag_78\n      jump\t// in\n    tag_136:\n        /* \"#utility.yul\":4004:4037   */\n      swap2\n      pop\n        /* \"#utility.yul\":4059:4063   */\n      0x00\n        /* \"#utility.yul\":4052:4057   */\n      dup3\n        /* \"#utility.yul\":4049:4064   */\n      sub\n        /* \"#utility.yul\":4046:4087   */\n      tag_137\n      jumpi\n        /* \"#utility.yul\":4067:4085   */\n      tag_138\n      tag_86\n      jump\t// in\n    tag_138:\n        /* \"#utility.yul\":4046:4087   */\n    tag_137:\n        /* \"#utility.yul\":4114:4115   */\n      0x01\n        /* \"#utility.yul\":4107:4112   */\n      dup3\n        /* \"#utility.yul\":4103:4116   */\n      sub\n        /* \"#utility.yul\":4096:4116   */\n      swap1\n      pop\n        /* \"#utility.yul\":3951:4122   */\n      swap2\n      swap1\n      pop\n      jump\t// out\n        /* \"#utility.yul\":4128:4297   */\n    tag_87:\n        /* \"#utility.yul\":4212:4223   */\n      0x00\n        /* \"#utility.yul\":4246:4252   */\n      dup3\n        /* \"#utility.yul\":4241:4244   */\n      dup3\n        /* \"#utility.yul\":4234:4253   */\n      mstore\n        /* \"#utility.yul\":4286:4290   */\n      0x20\n        /* \"#utility.yul\":4281:4284   */\n      dup3\n        /* \"#utility.yul\":4277:4291   */\n      add\n        /* \"#utility.yul\":4262:4291   */\n      swap1\n      pop\n        /* \"#utility.yul\":4128:4297   */\n      swap3\n      swap2\n      pop\n      pop\n      jump\t// out\n        /* \"#utility.yul\":4303:4485   */\n    tag_88:\n        /* \"#utility.yul\":4443:4477   */\n      0x537472696e67733a20686578206c656e67746820696e73756666696369656e74\n        /* \"#utility.yul\":4439:4440   */\n      0x00\n        /* \"#utility.yul\":4431:4437   */\n      dup3\n        /* \"#utility.yul\":4427:4441   */\n      add\n        /* \"#utility.yul\":4420:4478   */\n      mstore\n        /* \"#utility.yul\":4303:4485   */\n      pop\n      jump\t// out\n        /* \"#utility.yul\":4491:4857   */\n    tag_89:\n        /* \"#utility.yul\":4633:4636   */\n      0x00\n        /* \"#utility.yul\":4654:4721   */\n      tag_142\n        /* \"#utility.yul\":4718:4720   */\n      0x20\n        /* \"#utility.yul\":4713:4716   */\n      dup4\n        /* \"#utility.yul\":4654:4721   */\n      tag_87\n      jump\t// in\n    tag_142:\n        /* \"#utility.yul\":4647:4721   */\n      swap2\n      pop\n        /* \"#utility.yul\":4730:4823   */\n      tag_143\n        /* \"#utility.yul\":4819:4822   */\n      dup3\n        /* \"#utility.yul\":4730:4823   */\n      tag_88\n      jump\t// in\n    tag_143:\n        /* \"#utility.yul\":4848:4850   */\n      0x20\n        /* \"#utility.yul\":4843:4846   */\n      dup3\n        /* \"#utility.yul\":4839:4851   */\n      add\n        /* \"#utility.yul\":4832:4851   */\n      swap1\n      pop\n        /* \"#utility.yul\":4491:4857   */\n      swap2\n      swap1\n      pop\n      jump\t// out\n        /* \"#utility.yul\":4863:5282   */\n    tag_47:\n        /* \"#utility.yul\":5029:5033   */\n      0x00\n        /* \"#utility.yul\":5067:5069   */\n      0x20\n        /* \"#utility.yul\":5056:5065   */\n      dup3\n        /* \"#utility.yul\":5052:5070   */\n      add\n        /* \"#utility.yul\":5044:5070   */\n      swap1\n      pop\n        /* \"#utility.yul\":5116:5125   */\n      dup2\n        /* \"#utility.yul\":5110:5114   */\n      dup2\n        /* \"#utility.yul\":5106:5126   */\n      sub\n        /* \"#utility.yul\":5102:5103   */\n      0x00\n        /* \"#utility.yul\":5091:5100   */\n      dup4\n        /* \"#utility.yul\":5087:5104   */\n      add\n        /* \"#utility.yul\":5080:5127   */\n      mstore\n        /* \"#utility.yul\":5144:5275   */\n      tag_145\n        /* \"#utility.yul\":5270:5274   */\n      dup2\n        /* \"#utility.yul\":5144:5275   */\n      tag_89\n      jump\t// in\n    tag_145:\n        /* \"#utility.yul\":5136:5275   */\n      swap1\n      pop\n        /* \"#utility.yul\":4863:5282   */\n      swap2\n      swap1\n      pop\n      jump\t// out\n        /* \"#utility.yul\":5288:5521   */\n    tag_53:\n        /* \"#utility.yul\":5327:5330   */\n      0x00\n        /* \"#utility.yul\":5350:5374   */\n      tag_147\n        /* \"#utility.yul\":5368:5373   */\n      dup3\n        /* \"#utility.yul\":5350:5374   */\n      tag_78\n      jump\t// in\n    tag_147:\n        /* \"#utility.yul\":5341:5374   */\n      swap2\n      pop\n        /* \"#utility.yul\":5396:5462   */\n      0xffffffffffffffffffffffffffffffffffffffffffffffffffffffffffffffff\n        /* \"#utility.yul\":5389:5394   */\n      dup3\n        /* \"#utility.yul\":5386:5463   */\n      sub\n        /* \"#utility.yul\":5383:5486   */\n      tag_148\n      jumpi\n        /* \"#utility.yul\":5466:5484   */\n      tag_149\n      tag_86\n      jump\t// in\n    tag_149:\n        /* \"#utility.yul\":5383:5486   */\n    tag_148:\n        /* \"#utility.yul\":5513:5514   */\n      0x01\n        /* \"#utility.yul\":5506:5511   */\n      dup3\n        /* \"#utility.yul\":5502:5515   */\n      add\n        /* \"#utility.yul\":5495:5515   */\n      swap1\n      pop\n        /* \"#utility.yul\":5288:5521   */\n      swap2\n      swap1\n      pop\n      jump\t// out\n        /* \"#utility.yul\":5527:5707   */\n    tag_90:\n        /* \"#utility.yul\":5575:5652   */\n      0x4e487b7100000000000000000000000000000000000000000000000000000000\n        /* \"#utility.yul\":5572:5573   */\n      0x00\n        /* \"#utility.yul\":5565:5653   */\n      mstore\n        /* \"#utility.yul\":5672:5676   */\n      0x12\n        /* \"#utility.yul\":5669:5670   */\n      0x04\n        /* \"#utility.yul\":5662:5677   */\n      mstore\n        /* \"#utility.yul\":5696:5700   */\n      0x24\n        /* \"#utility.yul\":5693:5694   */\n      0x00\n        /* \"#utility.yul\":5686:5701   */\n      revert\n        /* \"#utility.yul\":5713:5898   */\n    tag_55:\n        /* \"#utility.yul\":5753:5754   */\n      0x00\n        /* \"#utility.yul\":5770:5790   */\n      tag_152\n        /* \"#utility.yul\":5788:5789   */\n      dup3\n        /* \"#utility.yul\":5770:5790   */\n      tag_78\n      jump\t// in\n    tag_152:\n        /* \"#utility.yul\":5765:5790   */\n      swap2\n      pop\n        /* \"#utility.yul\":5804:5824   */\n      tag_153\n        /* \"#utility.yul\":5822:5823   */\n      dup4\n        /* \"#utility.yul\":5804:5824   */\n      tag_78\n      jump\t// in\n    tag_153:\n        /* \"#utility.yul\":5799:5824   */\n      swap3\n      pop\n        /* \"#utility.yul\":5843:5844   */\n      dup3\n        /* \"#utility.yul\":5833:5868   */\n      tag_154\n      jumpi\n        /* \"#utility.yul\":5848:5866   */\n      tag_155\n      tag_90\n      jump\t// in\n    tag_155:\n        /* \"#utility.yul\":5833:5868   */\n    tag_154:\n        /* \"#utility.yul\":5890:5891   */\n      dup3\n        /* \"#utility.yul\":5887:5888   */\n      dup3\n        /* \"#utility.yul\":5883:5892   */\n      div\n        /* \"#utility.yul\":5878:5892   */\n      swap1\n      pop\n        /* \"#utility.yul\":5713:5898   */\n      swap3\n      swap2\n      pop\n      pop\n      jump\t// out\n        /* \"#utility.yul\":5904:6098   */\n    tag_62:\n        /* \"#utility.yul\":5944:5948   */\n      0x00\n        /* \"#utility.yul\":5964:5984   */\n      tag_157\n        /* \"#utility.yul\":5982:5983   */\n      dup3\n        /* \"#utility.yul\":5964:5984   */\n      tag_78\n      jump\t// in\n    tag_157:\n        /* \"#utility.yul\":5959:5984   */\n      swap2\n      pop\n        /* \"#utility.yul\":5998:6018   */\n      tag_158\n        /* \"#utility.yul\":6016:6017   */\n      dup4\n        /* \"#utility.yul\":5998:6018   */\n      tag_78\n      jump\t// in\n    tag_158:\n        /* \"#utility.yul\":5993:6018   */\n      swap3\n      pop\n        /* \"#utility.yul\":6042:6043   */\n      dup3\n        /* \"#utility.yul\":6039:6040   */\n      dup3\n        /* \"#utility.yul\":6035:6044   */\n      sub\n        /* \"#utility.yul\":6027:6044   */\n      swap1\n      pop\n        /* \"#utility.yul\":6066:6067   */\n      dup2\n        /* \"#utility.yul\":6060:6064   */\n      dup2\n        /* \"#utility.yul\":6057:6068   */\n      gt\n        /* \"#utility.yul\":6054:6091   */\n      iszero\n      tag_159\n      jumpi\n        /* \"#utility.yul\":6071:6089   */\n      tag_160\n      tag_86\n      jump\t// in\n    tag_160:\n        /* \"#utility.yul\":6054:6091   */\n    tag_159:\n        /* \"#utility.yul\":5904:6098   */\n      swap3\n      swap2\n      pop\n      pop\n      jump\t// out\n        /* \"#utility.yul\":6104:6280   */\n    tag_64:\n        /* \"#utility.yul\":6136:6137   */\n      0x00\n        /* \"#utility.yul\":6153:6173   */\n      tag_162\n        /* \"#utility.yul\":6171:6172   */\n      dup3\n        /* \"#utility.yul\":6153:6173   */\n      tag_78\n      jump\t// in\n    tag_162:\n        /* \"#utility.yul\":6148:6173   */\n      swap2\n      pop\n        /* \"#utility.yul\":6187:6207   */\n      tag_163\n        /* \"#utility.yul\":6205:6206   */\n      dup4\n        /* \"#utility.yul\":6187:6207   */\n      tag_78\n      jump\t// in\n    tag_163:\n        /* \"#utility.yul\":6182:6207   */\n      swap3\n      pop\n        /* \"#utility.yul\":6226:6227   */\n      dup3\n        /* \"#utility.yul\":6216:6251   */\n      tag_164\n      jumpi\n        /* \"#utility.yul\":6231:6249   */\n      tag_165\n      tag_90\n      jump\t// in\n    tag_165:\n        /* \"#utility.yul\":6216:6251   */\n    tag_164:\n        /* \"#utility.yul\":6272:6273   */\n      dup3\n        /* \"#utility.yul\":6269:6270   */\n      dup3\n        /* \"#utility.yul\":6265:6274   */\n      mod\n        /* \"#utility.yul\":6260:6274   */\n      swap1\n      pop\n        /* \"#utility.yul\":6104:6280   */\n      swap3\n      swap2\n      pop\n      pop\n      jump\t// out\n\n    auxdata: 0xa2646970667358221220b996391c28ddc503236b2894f036f3ac9388272c696ee5b45de56a7904a2d08b64736f6c634300081a0033\n}\n",
				"bytecode": {
					"linkReferences": {},
					"object": "6108f461004d600b8282823980515f1a6073146041577f4e487b71000000000000000000000000000000000000000000000000000000005f525f60045260245ffd5b305f52607381538281f3fe730000000000000000000000000000000000000000301460806040526004361061004a575f3560e01c806363e1cbea1461004e5780636900a3ae1461007e5780638fba8d5c146100ae575b5f80fd5b61006860048036038101906100639190610524565b6100de565b60405161007591906105d2565b60405180910390f35b610098600480360381019061009391906105f2565b610313565b6040516100a591906105d2565b60405180910390f35b6100c860048036038101906100c391906105f2565b61046c565b6040516100d591906105d2565b60405180910390f35b60605f60028360026100f0919061064a565b6100fa919061068b565b67ffffffffffffffff811115610113576101126106be565b5b6040519080825280601f01601f1916602001820160405280156101455781602001600182028036833780820191505090505b5090507f3000000000000000000000000000000000000000000000000000000000000000815f8151811061017c5761017b6106eb565b5b60200101907effffffffffffffffffffffffffffffffffffffffffffffffffffffffffffff191690815f1a9053507f7800000000000000000000000000000000000000000000000000000000000000816001815181106101df576101de6106eb565b5b60200101907effffffffffffffffffffffffffffffffffffffffffffffffffffffffffffff191690815f1a9053505f600184600261021d919061064a565b610227919061068b565b90505b60018111156102c6577f3031323334353637383961626364656600000000000000000000000000000000600f861660108110610269576102686106eb565b5b1a60f81b8282815181106102805761027f6106eb565b5b60200101907effffffffffffffffffffffffffffffffffffffffffffffffffffffffffffff191690815f1a905350600485901c9450806102bf90610718565b905061022a565b505f8414610309576040517f08c379a000000000000000000000000000000000000000000000000000000000815260040161030090610799565b60405180910390fd5b8091505092915050565b60605f8203610359576040518060400160405280600181526020017f30000000000000000000000000000000000000000000000000000000000000008152509050610467565b5f8290505f5b5f8214610388578080610371906107b7565b915050600a82610381919061082b565b915061035f565b5f8167ffffffffffffffff8111156103a3576103a26106be565b5b6040519080825280601f01601f1916602001820160405280156103d55781602001600182028036833780820191505090505b5090505b5f8514610460576001826103ed919061085b565b9150600a856103fc919061088e565b6030610408919061068b565b60f81b81838151811061041e5761041d6106eb565b5b60200101907effffffffffffffffffffffffffffffffffffffffffffffffffffffffffffff191690815f1a905350600a85610459919061082b565b94506103d9565b8093505050505b919050565b60605f82036104b2576040518060400160405280600481526020017f307830300000000000000000000000000000000000000000000000000000000081525090506104e8565b5f8290505f5b5f82146104d95780806104ca906107b7565b915050600882901c91506104b8565b6104e384826100de565b925050505b919050565b5f80fd5b5f819050919050565b610503816104f1565b811461050d575f80fd5b50565b5f8135905061051e816104fa565b92915050565b5f806040838503121561053a576105396104ed565b5b5f61054785828601610510565b925050602061055885828601610510565b9150509250929050565b5f81519050919050565b5f82825260208201905092915050565b8281835e5f83830152505050565b5f601f19601f8301169050919050565b5f6105a482610562565b6105ae818561056c565b93506105be81856020860161057c565b6105c78161058a565b840191505092915050565b5f6020820190508181035f8301526105ea818461059a565b905092915050565b5f60208284031215610607576106066104ed565b5b5f61061484828501610510565b91505092915050565b7f4e487b71000000000000000000000000000000000000000000000000000000005f52601160045260245ffd5b5f610654826104f1565b915061065f836104f1565b925082820261066d816104f1565b915082820484148315176106845761068361061d565b5b5092915050565b5f610695826104f1565b91506106a0836104f1565b92508282019050808211156106b8576106b761061d565b5b92915050565b7f4e487b71000000000000000000000000000000000000000000000000000000005f52604160045260245ffd5b7f4e487b71000000000000000000000000000000000000000000000000000000005f52603260045260245ffd5b5f610722826104f1565b91505f82036107345761073361061d565b5b600182039050919050565b5f82825260208201905092915050565b7f537472696e67733a20686578206c656e67746820696e73756666696369656e745f82015250565b5f61078360208361073f565b915061078e8261074f565b602082019050919050565b5f6020820190508181035f8301526107b081610777565b9050919050565b5f6107c1826104f1565b91507fffffffffffffffffffffffffffffffffffffffffffffffffffffffffffffffff82036107f3576107f261061d565b5b600182019050919050565b7f4e487b71000000000000000000000000000000000000000000000000000000005f52601260045260245ffd5b5f610835826104f1565b9150610840836104f1565b9250826108505761084f6107fe565b5b828204905092915050565b5f610865826104f1565b9150610870836104f1565b92508282039050818111156108885761088761061d565b5b92915050565b5f610898826104f1565b91506108a3836104f1565b9250826108b3576108b26107fe565b5b82820690509291505056fea2646970667358221220b996391c28ddc503236b2894f036f3ac9388272c696ee5b45de56a7904a2d08b64736f6c634300081a0033",
					"opcodes": "PUSH2 0x8F4 PUSH2 0x4D PUSH1 0xB DUP3 DUP3 DUP3 CODECOPY DUP1 MLOAD PUSH0 BYTE PUSH1 0x73 EQ PUSH1 0x41 JUMPI PUSH32 0x4E487B7100000000000000000000000000000000000000000000000000000000 PUSH0 MSTORE PUSH0 PUSH1 0x4 MSTORE PUSH1 0x24 PUSH0 REVERT JUMPDEST ADDRESS PUSH0 MSTORE PUSH1 0x73 DUP2 MSTORE8 DUP3 DUP2 RETURN INVALID PUSH20 0x0 ADDRESS EQ PUSH1 0x80 PUSH1 0x40 MSTORE PUSH1 0x4 CALLDATASIZE LT PUSH2 0x4A JUMPI PUSH0 CALLDATALOAD PUSH1 0xE0 SHR DUP1 PUSH4 0x63E1CBEA EQ PUSH2 0x4E JUMPI DUP1 PUSH4 0x6900A3AE EQ PUSH2 0x7E JUMPI DUP1 PUSH4 0x8FBA8D5C EQ PUSH2 0xAE JUMPI JUMPDEST PUSH0 DUP1 REVERT JUMPDEST PUSH2 0x68 PUSH1 0x4 DUP1 CALLDATASIZE SUB DUP2 ADD SWAP1 PUSH2 0x63 SWAP2 SWAP1 PUSH2 0x524 JUMP JUMPDEST PUSH2 0xDE JUMP JUMPDEST PUSH1 0x40 MLOAD PUSH2 0x75 SWAP2 SWAP1 PUSH2 0x5D2 JUMP JUMPDEST PUSH1 0x40 MLOAD DUP1 SWAP2 SUB SWAP1 RETURN JUMPDEST PUSH2 0x98 PUSH1 0x4 DUP1 CALLDATASIZE SUB DUP2 ADD SWAP1 PUSH2 0x93 SWAP2 SWAP1 PUSH2 0x5F2 JUMP JUMPDEST PUSH2 0x313 JUMP JUMPDEST PUSH1 0x40 MLOAD PUSH2 0xA5 SWAP2 SWAP1 PUSH2 0x5D2 JUMP JUMPDEST PUSH1 0x40 MLOAD DUP1 SWAP2 SUB SWAP1 RETURN JUMPDEST PUSH2 0xC8 PUSH1 0x4 DUP1 CALLDATASIZE SUB DUP2 ADD SWAP1 PUSH2 0xC3 SWAP2 SWAP1 PUSH2 0x5F2 JUMP JUMPDEST PUSH2 0x46C JUMP JUMPDEST PUSH1 0x40 MLOAD PUSH2 0xD5 SWAP2 SWAP1 PUSH2 0x5D2 JUMP JUMPDEST PUSH1 0x40 MLOAD DUP1 SWAP2 SUB SWAP1 RETURN JUMPDEST PUSH1 0x60 PUSH0 PUSH1 0x2 DUP4 PUSH1 0x2 PUSH2 0xF0 SWAP2 SWAP1 PUSH2 0x64A JUMP JUMPDEST PUSH2 0xFA SWAP2 SWAP1 PUSH2 0x68B JUMP JUMPDEST PUSH8 0xFFFFFFFFFFFFFFFF DUP2 GT ISZERO PUSH2 0x113 JUMPI PUSH2 0x112 PUSH2 0x6BE JUMP JUMPDEST JUMPDEST PUSH1 0x40 MLOAD SWAP1 DUP1 DUP3 MSTORE DUP1 PUSH1 0x1F ADD PUSH1 0x1F NOT AND PUSH1 0x20 ADD DUP3 ADD PUSH1 0x40 MSTORE DUP1 ISZERO PUSH2 0x145 JUMPI DUP2 PUSH1 0x20 ADD PUSH1 0x1 DUP3 MUL DUP1 CALLDATASIZE DUP4 CALLDATACOPY DUP1 DUP3 ADD SWAP2 POP POP SWAP1 POP JUMPDEST POP SWAP1 POP PUSH32 0x3000000000000000000000000000000000000000000000000000000000000000 DUP2 PUSH0 DUP2 MLOAD DUP2 LT PUSH2 0x17C JUMPI PUSH2 0x17B PUSH2 0x6EB JUMP JUMPDEST JUMPDEST PUSH1 0x20 ADD ADD SWAP1 PUSH31 0xFFFFFFFFFFFFFFFFFFFFFFFFFFFFFFFFFFFFFFFFFFFFFFFFFFFFFFFFFFFFFF NOT AND SWAP1 DUP2 PUSH0 BYTE SWAP1 MSTORE8 POP PUSH32 0x7800000000000000000000000000000000000000000000000000000000000000 DUP2 PUSH1 0x1 DUP2 MLOAD DUP2 LT PUSH2 0x1DF JUMPI PUSH2 0x1DE PUSH2 0x6EB JUMP JUMPDEST JUMPDEST PUSH1 0x20 ADD ADD SWAP1 PUSH31 0xFFFFFFFFFFFFFFFFFFFFFFFFFFFFFFFFFFFFFFFFFFFFFFFFFFFFFFFFFFFFFF NOT AND SWAP1 DUP2 PUSH0 BYTE SWAP1 MSTORE8 POP PUSH0 PUSH1 0x1 DUP5 PUSH1 0x2 PUSH2 0x21D SWAP2 SWAP1 PUSH2 0x64A JUMP JUMPDEST PUSH2 0x227 SWAP2 SWAP1 PUSH2 0x68B JUMP JUMPDEST SWAP1 POP JUMPDEST PUSH1 0x1 DUP2 GT ISZERO PUSH2 0x2C6 JUMPI PUSH32 0x3031323334353637383961626364656600000000000000000000000000000000 PUSH1 0xF DUP7 AND PUSH1 0x10 DUP2 LT PUSH2 0x269 JUMPI PUSH2 0x268 PUSH2 0x6EB JUMP JUMPDEST JUMPDEST BYTE PUSH1 0xF8 SHL DUP3 DUP3 DUP2 MLOAD DUP2 LT PUSH2 0x280 JUMPI PUSH2 0x27F PUSH2 0x6EB JUMP JUMPDEST JUMPDEST PUSH1 0x20 ADD ADD SWAP1 PUSH31 0xFFFFFFFFFFFFFFFFFFFFFFFFFFFFFFFFFFFFFFFFFFFFFFFFFFFFFFFFFFFFFF NOT AND SWAP1 DUP2 PUSH0 BYTE SWAP1 MSTORE8 POP PUSH1 0x4 DUP6 SWAP1 SHR SWAP5 POP DUP1 PUSH2 0x2BF SWAP1 PUSH2 0x718 JUMP JUMPDEST SWAP1 POP PUSH2 0x22A JUMP JUMPDEST POP PUSH0 DUP5 EQ PUSH2 0x309 JUMPI PUSH1 0x40 MLOAD PUSH32 0x8C379A000000000000000000000000000000000000000000000000000000000 DUP2 MSTORE PUSH1 0x4 ADD PUSH2 0x300 SWAP1 PUSH2 0x799 JUMP JUMPDEST PUSH1 0x40 MLOAD DUP1 SWAP2 SUB SWAP1 REVERT JUMPDEST DUP1 SWAP2 POP POP SWAP3 SWAP2 POP POP JUMP JUMPDEST PUSH1 0x60 PUSH0 DUP3 SUB PUSH2 0x359 JUMPI PUSH1 0x40 MLOAD DUP1 PUSH1 0x40 ADD PUSH1 0x40 MSTORE DUP1 PUSH1 0x1 DUP2 MSTORE PUSH1 0x20 ADD PUSH32 0x3000000000000000000000000000000000000000000000000000000000000000 DUP2 MSTORE POP SWAP1 POP PUSH2 0x467 JUMP JUMPDEST PUSH0 DUP3 SWAP1 POP PUSH0 JUMPDEST PUSH0 DUP3 EQ PUSH2 0x388 JUMPI DUP1 DUP1 PUSH2 0x371 SWAP1 PUSH2 0x7B7 JUMP JUMPDEST SWAP2 POP POP PUSH1 0xA DUP3 PUSH2 0x381 SWAP2 SWAP1 PUSH2 0x82B JUMP JUMPDEST SWAP2 POP PUSH2 0x35F JUMP JUMPDEST PUSH0 DUP2 PUSH8 0xFFFFFFFFFFFFFFFF DUP2 GT ISZERO PUSH2 0x3A3 JUMPI PUSH2 0x3A2 PUSH2 0x6BE JUMP JUMPDEST JUMPDEST PUSH1 0x40 MLOAD SWAP1 DUP1 DUP3 MSTORE DUP1 PUSH1 0x1F ADD PUSH1 0x1F NOT AND PUSH1 0x20 ADD DUP3 ADD PUSH1 0x40 MSTORE DUP1 ISZERO PUSH2 0x3D5 JUMPI DUP2 PUSH1 0x20 ADD PUSH1 0x1 DUP3 MUL DUP1 CALLDATASIZE DUP4 CALLDATACOPY DUP1 DUP3 ADD SWAP2 POP POP SWAP1 POP JUMPDEST POP SWAP1 POP JUMPDEST PUSH0 DUP6 EQ PUSH2 0x460 JUMPI PUSH1 0x1 DUP3 PUSH2 0x3ED SWAP2 SWAP1 PUSH2 0x85B JUMP JUMPDEST SWAP2 POP PUSH1 0xA DUP6 PUSH2 0x3FC SWAP2 SWAP1 PUSH2 0x88E JUMP JUMPDEST PUSH1 0x30 PUSH2 0x408 SWAP2 SWAP1 PUSH2 0x68B JUMP JUMPDEST PUSH1 0xF8 SHL DUP2 DUP4 DUP2 MLOAD DUP2 LT PUSH2 0x41E JUMPI PUSH2 0x41D PUSH2 0x6EB JUMP JUMPDEST JUMPDEST PUSH1 0x20 ADD ADD SWAP1 PUSH31 0xFFFFFFFFFFFFFFFFFFFFFFFFFFFFFFFFFFFFFFFFFFFFFFFFFFFFFFFFFFFFFF NOT AND SWAP1 DUP2 PUSH0 BYTE SWAP1 MSTORE8 POP PUSH1 0xA DUP6 PUSH2 0x459 SWAP2 SWAP1 PUSH2 0x82B JUMP JUMPDEST SWAP5 POP PUSH2 0x3D9 JUMP JUMPDEST DUP1 SWAP4 POP POP POP POP JUMPDEST SWAP2 SWAP1 POP JUMP JUMPDEST PUSH1 0x60 PUSH0 DUP3 SUB PUSH2 0x4B2 JUMPI PUSH1 0x40 MLOAD DUP1 PUSH1 0x40 ADD PUSH1 0x40 MSTORE DUP1 PUSH1 0x4 DUP2 MSTORE PUSH1 0x20 ADD PUSH32 0x3078303000000000000000000000000000000000000000000000000000000000 DUP2 MSTORE POP SWAP1 POP PUSH2 0x4E8 JUMP JUMPDEST PUSH0 DUP3 SWAP1 POP PUSH0 JUMPDEST PUSH0 DUP3 EQ PUSH2 0x4D9 JUMPI DUP1 DUP1 PUSH2 0x4CA SWAP1 PUSH2 0x7B7 JUMP JUMPDEST SWAP2 POP POP PUSH1 0x8 DUP3 SWAP1 SHR SWAP2 POP PUSH2 0x4B8 JUMP JUMPDEST PUSH2 0x4E3 DUP5 DUP3 PUSH2 0xDE JUMP JUMPDEST SWAP3 POP POP POP JUMPDEST SWAP2 SWAP1 POP JUMP JUMPDEST PUSH0 DUP1 REVERT JUMPDEST PUSH0 DUP2 SWAP1 POP SWAP2 SWAP1 POP JUMP JUMPDEST PUSH2 0x503 DUP2 PUSH2 0x4F1 JUMP JUMPDEST DUP2 EQ PUSH2 0x50D JUMPI PUSH0 DUP1 REVERT JUMPDEST POP JUMP JUMPDEST PUSH0 DUP2 CALLDATALOAD SWAP1 POP PUSH2 0x51E DUP2 PUSH2 0x4FA JUMP JUMPDEST SWAP3 SWAP2 POP POP JUMP JUMPDEST PUSH0 DUP1 PUSH1 0x40 DUP4 DUP6 SUB SLT ISZERO PUSH2 0x53A JUMPI PUSH2 0x539 PUSH2 0x4ED JUMP JUMPDEST JUMPDEST PUSH0 PUSH2 0x547 DUP6 DUP3 DUP7 ADD PUSH2 0x510 JUMP JUMPDEST SWAP3 POP POP PUSH1 0x20 PUSH2 0x558 DUP6 DUP3 DUP7 ADD PUSH2 0x510 JUMP JUMPDEST SWAP2 POP POP SWAP3 POP SWAP3 SWAP1 POP JUMP JUMPDEST PUSH0 DUP2 MLOAD SWAP1 POP SWAP2 SWAP1 POP JUMP JUMPDEST PUSH0 DUP3 DUP3 MSTORE PUSH1 0x20 DUP3 ADD SWAP1 POP SWAP3 SWAP2 POP POP JUMP JUMPDEST DUP3 DUP2 DUP4 MCOPY PUSH0 DUP4 DUP4 ADD MSTORE POP POP POP JUMP JUMPDEST PUSH0 PUSH1 0x1F NOT PUSH1 0x1F DUP4 ADD AND SWAP1 POP SWAP2 SWAP1 POP JUMP JUMPDEST PUSH0 PUSH2 0x5A4 DUP3 PUSH2 0x562 JUMP JUMPDEST PUSH2 0x5AE DUP2 DUP6 PUSH2 0x56C JUMP JUMPDEST SWAP4 POP PUSH2 0x5BE DUP2 DUP6 PUSH1 0x20 DUP7 ADD PUSH2 0x57C JUMP JUMPDEST PUSH2 0x5C7 DUP2 PUSH2 0x58A JUMP JUMPDEST DUP5 ADD SWAP2 POP POP SWAP3 SWAP2 POP POP JUMP JUMPDEST PUSH0 PUSH1 0x20 DUP3 ADD SWAP1 POP DUP2 DUP2 SUB PUSH0 DUP4 ADD MSTORE PUSH2 0x5EA DUP2 DUP5 PUSH2 0x59A JUMP JUMPDEST SWAP1 POP SWAP3 SWAP2 POP POP JUMP JUMPDEST PUSH0 PUSH1 0x20 DUP3 DUP5 SUB SLT ISZERO PUSH2 0x607 JUMPI PUSH2 0x606 PUSH2 0x4ED JUMP JUMPDEST JUMPDEST PUSH0 PUSH2 0x614 DUP5 DUP3 DUP6 ADD PUSH2 0x510 JUMP JUMPDEST SWAP2 POP POP SWAP3 SWAP2 POP POP JUMP JUMPDEST PUSH32 0x4E487B7100000000000000000000000000000000000000000000000000000000 PUSH0 MSTORE PUSH1 0x11 PUSH1 0x4 MSTORE PUSH1 0x24 PUSH0 REVERT JUMPDEST PUSH0 PUSH2 0x654 DUP3 PUSH2 0x4F1 JUMP JUMPDEST SWAP2 POP PUSH2 0x65F DUP4 PUSH2 0x4F1 JUMP JUMPDEST SWAP3 POP DUP3 DUP3 MUL PUSH2 0x66D DUP2 PUSH2 0x4F1 JUMP JUMPDEST SWAP2 POP DUP3 DUP3 DIV DUP5 EQ DUP4 ISZERO OR PUSH2 0x684 JUMPI PUSH2 0x683 PUSH2 0x61D JUMP JUMPDEST JUMPDEST POP SWAP3 SWAP2 POP POP JUMP JUMPDEST PUSH0 PUSH2 0x695 DUP3 PUSH2 0x4F1 JUMP JUMPDEST SWAP2 POP PUSH2 0x6A0 DUP4 PUSH2 0x4F1 JUMP JUMPDEST SWAP3 POP DUP3 DUP3 ADD SWAP1 POP DUP1 DUP3 GT ISZERO PUSH2 0x6B8 JUMPI PUSH2 0x6B7 PUSH2 0x61D JUMP JUMPDEST JUMPDEST SWAP3 SWAP2 POP POP JUMP JUMPDEST PUSH32 0x4E487B7100000000000000000000000000000000000000000000000000000000 PUSH0 MSTORE PUSH1 0x41 PUSH1 0x4 MSTORE PUSH1 0x24 PUSH0 REVERT JUMPDEST PUSH32 0x4E487B7100000000000000000000000000000000000000000000000000000000 PUSH0 MSTORE PUSH1 0x32 PUSH1 0x4 MSTORE PUSH1 0x24 PUSH0 REVERT JUMPDEST PUSH0 PUSH2 0x722 DUP3 PUSH2 0x4F1 JUMP JUMPDEST SWAP2 POP PUSH0 DUP3 SUB PUSH2 0x734 JUMPI PUSH2 0x733 PUSH2 0x61D JUMP JUMPDEST JUMPDEST PUSH1 0x1 DUP3 SUB SWAP1 POP SWAP2 SWAP1 POP JUMP JUMPDEST PUSH0 DUP3 DUP3 MSTORE PUSH1 0x20 DUP3 ADD SWAP1 POP SWAP3 SWAP2 POP POP JUMP JUMPDEST PUSH32 0x537472696E67733A20686578206C656E67746820696E73756666696369656E74 PUSH0 DUP3 ADD MSTORE POP JUMP JUMPDEST PUSH0 PUSH2 0x783 PUSH1 0x20 DUP4 PUSH2 0x73F JUMP JUMPDEST SWAP2 POP PUSH2 0x78E DUP3 PUSH2 0x74F JUMP JUMPDEST PUSH1 0x20 DUP3 ADD SWAP1 POP SWAP2 SWAP1 POP JUMP JUMPDEST PUSH0 PUSH1 0x20 DUP3 ADD SWAP1 POP DUP2 DUP2 SUB PUSH0 DUP4 ADD MSTORE PUSH2 0x7B0 DUP2 PUSH2 0x777 JUMP JUMPDEST SWAP1 POP SWAP2 SWAP1 POP JUMP JUMPDEST PUSH0 PUSH2 0x7C1 DUP3 PUSH2 0x4F1 JUMP JUMPDEST SWAP2 POP PUSH32 0xFFFFFFFFFFFFFFFFFFFFFFFFFFFFFFFFFFFFFFFFFFFFFFFFFFFFFFFFFFFFFFFF DUP3 SUB PUSH2 0x7F3 JUMPI PUSH2 0x7F2 PUSH2 0x61D JUMP JUMPDEST JUMPDEST PUSH1 0x1 DUP3 ADD SWAP1 POP SWAP2 SWAP1 POP JUMP JUMPDEST PUSH32 0x4E487B7100000000000000000000000000000000000000000000000000000000 PUSH0 MSTORE PUSH1 0x12 PUSH1 0x4 MSTORE PUSH1 0x24 PUSH0 REVERT JUMPDEST PUSH0 PUSH2 0x835 DUP3 PUSH2 0x4F1 JUMP JUMPDEST SWAP2 POP PUSH2 0x840 DUP4 PUSH2 0x4F1 JUMP JUMPDEST SWAP3 POP DUP3 PUSH2 0x850 JUMPI PUSH2 0x84F PUSH2 0x7FE JUMP JUMPDEST JUMPDEST DUP3 DUP3 DIV SWAP1 POP SWAP3 SWAP2 POP POP JUMP JUMPDEST PUSH0 PUSH2 0x865 DUP3 PUSH2 0x4F1 JUMP JUMPDEST SWAP2 POP PUSH2 0x870 DUP4 PUSH2 0x4F1 JUMP JUMPDEST SWAP3 POP DUP3 DUP3 SUB SWAP1 POP DUP2 DUP2 GT ISZERO PUSH2 0x888 JUMPI PUSH2 0x887 PUSH2 0x61D JUMP JUMPDEST JUMPDEST SWAP3 SWAP2 POP POP JUMP JUMPDEST PUSH0 PUSH2 0x898 DUP3 PUSH2 0x4F1 JUMP JUMPDEST SWAP2 POP PUSH2 0x8A3 DUP4 PUSH2 0x4F1 JUMP JUMPDEST SWAP3 POP DUP3 PUSH2 0x8B3 JUMPI PUSH2 0x8B2 PUSH2 0x7FE JUMP JUMPDEST JUMPDEST DUP3 DUP3 MOD SWAP1 POP SWAP3 SWAP2 POP POP JUMP INVALID LOG2 PUSH5 0x6970667358 0x22 SLT KECCAK256 0xB9 SWAP7 CODECOPY SHR 0x28 0xDD 0xC5 SUB 0x23 PUSH12 0x2894F036F3AC9388272C696E 0xE5 0xB4 TSTORE 0xE5 PUSH11 0x7904A2D08B64736F6C6343 STOP ADDMOD BYTE STOP CALLER "
				},
				"gasEstimates": {
					"creation": {
						"codeDepositCost": "458400",
						"executionCost": "516",
						"totalCost": "458916"
					},
					"external": {
						"toHexString(uint256)": "infinite",
						"toHexString(uint256,uint256)": "infinite",
						"toString(uint256)": "infinite"
					}
				},
				"methodIdentifiers": {
					"toHexString(uint256)": "8fba8d5c",
					"toHexString(uint256,uint256)": "63e1cbea",
					"toString(uint256)": "6900a3ae"
				}
			},
			"storageLayout": {
				"storage": [],
				"types": null
			},
			"userdoc": {
				"kind": "user",
				"methods": {},
				"version": 1
			}
		}
	}
}