{
	"LibraryContract.sol": {
		"LibraryContract": {
			"abi": [
				{
					"inputs": [
						{
							"internalType": "uint256",
							"name": "_number",
							"type": "uint256"
						}
					],
					"name": "getHexString1",
					"outputs": [
						{
							"internalType": "string",
							"name": "",
							"type": "string"
						}
					],
					"stateMutability": "pure",
					"type": "function"
				},
				{
					"inputs": [
						{
							"internalType": "uint256",
							"name": "_number",
							"type": "uint256"
						}
					],
					"name": "getHexString2",
					"outputs": [
						{
							"internalType": "string",
							"name": "",
							"type": "string"
						}
					],
					"stateMutability": "pure",
					"type": "function"
				}
			],
			"devdoc": {
				"kind": "dev",
				"methods": {},
				"version": 1
			},
			"evm": {
				"assembly": "    /* \"LibraryContract.sol\":3629:3943  contract LibraryContract {... */\n  mstore(0x40, 0x80)\n  callvalue\n  dup1\n  iszero\n  tag_1\n  jumpi\n  0x00\n  dup1\n  revert\ntag_1:\n  pop\n  dataSize(sub_0)\n  dup1\n  dataOffset(sub_0)\n  0x00\n  codecopy\n  0x00\n  return\nstop\n\nsub_0: assembly {\n        /* \"LibraryContract.sol\":3629:3943  contract LibraryContract {... */\n      mstore(0x40, 0x80)\n      callvalue\n      dup1\n      iszero\n      tag_1\n      jumpi\n      0x00\n      dup1\n      revert\n    tag_1:\n      pop\n      jumpi(tag_2, lt(calldatasize, 0x04))\n      shr(0xe0, calldataload(0x00))\n      dup1\n      0x6d8b6c0b\n      eq\n      tag_3\n      jumpi\n      dup1\n      0xe88f1cd8\n      eq\n      tag_4\n      jumpi\n    tag_2:\n      0x00\n      dup1\n      revert\n        /* \"LibraryContract.sol\":3811:3940  function getHexString2(uint256 _number) public pure returns(string memory) {... */\n    tag_3:\n      tag_5\n      0x04\n      dup1\n      calldatasize\n      sub\n      dup2\n      add\n      swap1\n      tag_6\n      swap2\n      swap1\n      tag_7\n      jump\t// in\n    tag_6:\n      tag_8\n      jump\t// in\n    tag_5:\n      mload(0x40)\n      tag_9\n      swap2\n      swap1\n      tag_10\n      jump\t// in\n    tag_9:\n      mload(0x40)\n      dup1\n      swap2\n      sub\n      swap1\n      return\n        /* \"LibraryContract.sol\":3677:3799  function getHexString1(uint256 _number) public pure returns(string memory) {... */\n    tag_4:\n      tag_11\n      0x04\n      dup1\n      calldatasize\n      sub\n      dup2\n      add\n      swap1\n      tag_12\n      swap2\n      swap1\n      tag_7\n      jump\t// in\n    tag_12:\n      tag_13\n      jump\t// in\n    tag_11:\n      mload(0x40)\n      tag_14\n      swap2\n      swap1\n      tag_10\n      jump\t// in\n    tag_14:\n      mload(0x40)\n      dup1\n      swap2\n      sub\n      swap1\n      return\n        /* \"LibraryContract.sol\":3811:3940  function getHexString2(uint256 _number) public pure returns(string memory) {... */\n    tag_8:\n        /* \"LibraryContract.sol\":3871:3884  string memory */\n      0x60\n        /* \"LibraryContract.sol\":3904:3911  Strings */\n      linkerSymbol(\"b619df4f213ae1931478743823f171264122aa8b87d1a294637e0e9cf4905c5b\")\n        /* \"LibraryContract.sol\":3904:3923  Strings.toHexString */\n      0x8fba8d5c\n        /* \"LibraryContract.sol\":3924:3931  _number */\n      dup4\n        /* \"LibraryContract.sol\":3904:3932  Strings.toHexString(_number) */\n      mload(0x40)\n      dup3\n      0xffffffff\n      and\n      0xe0\n      shl\n      dup2\n      mstore\n      0x04\n      add\n      tag_16\n      swap2\n      swap1\n      tag_17\n      jump\t// in\n    tag_16:\n      0x00\n      mload(0x40)\n      dup1\n      dup4\n      sub\n      dup2\n      dup7\n      gas\n      delegatecall\n      iszero\n      dup1\n      iszero\n      tag_19\n      jumpi\n      returndatasize\n      0x00\n      dup1\n      returndatacopy\n      revert(0x00, returndatasize)\n    tag_19:\n      pop\n      pop\n      pop\n      pop\n      mload(0x40)\n      returndatasize\n      0x00\n      dup3\n      returndatacopy\n      returndatasize\n      not(0x1f)\n      0x1f\n      dup3\n      add\n      and\n      dup3\n      add\n      dup1\n      0x40\n      mstore\n      pop\n      dup2\n      add\n      swap1\n      tag_20\n      swap2\n      swap1\n      tag_21\n      jump\t// in\n    tag_20:\n        /* \"LibraryContract.sol\":3897:3932  return Strings.toHexString(_number) */\n      swap1\n      pop\n        /* \"LibraryContract.sol\":3811:3940  function getHexString2(uint256 _number) public pure returns(string memory) {... */\n      swap2\n      swap1\n      pop\n      jump\t// out\n        /* \"LibraryContract.sol\":3677:3799  function getHexString1(uint256 _number) public pure returns(string memory) {... */\n    tag_13:\n        /* \"LibraryContract.sol\":3737:3750  string memory */\n      0x60\n        /* \"LibraryContract.sol\":3770:3777  _number */\n      dup2\n        /* \"LibraryContract.sol\":3770:3789  _number.toHexString */\n      linkerSymbol(\"b619df4f213ae1931478743823f171264122aa8b87d1a294637e0e9cf4905c5b\")\n      0x8fba8d5c\n      swap1\n      swap2\n        /* \"LibraryContract.sol\":3770:3791  _number.toHexString() */\n      mload(0x40)\n      dup3\n      0xffffffff\n      and\n      0xe0\n      shl\n      dup2\n      mstore\n      0x04\n      add\n      tag_23\n      swap2\n      swap1\n      tag_17\n      jump\t// in\n    tag_23:\n      0x00\n      mload(0x40)\n      dup1\n      dup4\n      sub\n      dup2\n      dup7\n      gas\n      delegatecall\n      iszero\n      dup1\n      iszero\n      tag_25\n      jumpi\n      returndatasize\n      0x00\n      dup1\n      returndatacopy\n      revert(0x00, returndatasize)\n    tag_25:\n      pop\n      pop\n      pop\n      pop\n      mload(0x40)\n      returndatasize\n      0x00\n      dup3\n      returndatacopy\n      returndatasize\n      not(0x1f)\n      0x1f\n      dup3\n      add\n      and\n      dup3\n      add\n      dup1\n      0x40\n      mstore\n      pop\n      dup2\n      add\n      swap1\n      tag_26\n      swap2\n      swap1\n      tag_21\n      jump\t// in\n    tag_26:\n        /* \"LibraryContract.sol\":3763:3791  return _number.toHexString() */\n      swap1\n      pop\n        /* \"LibraryContract.sol\":3677:3799  function getHexString1(uint256 _number) public pure returns(string memory) {... */\n      swap2\n      swap1\n      pop\n      jump\t// out\n        /* \"#utility.yul\":7:82   */\n    tag_27:\n        /* \"#utility.yul\":40:46   */\n      0x00\n        /* \"#utility.yul\":73:75   */\n      0x40\n        /* \"#utility.yul\":67:76   */\n      mload\n        /* \"#utility.yul\":57:76   */\n      swap1\n      pop\n        /* \"#utility.yul\":7:82   */\n      swap1\n      jump\t// out\n        /* \"#utility.yul\":88:205   */\n    tag_28:\n        /* \"#utility.yul\":197:198   */\n      0x00\n        /* \"#utility.yul\":194:195   */\n      dup1\n        /* \"#utility.yul\":187:199   */\n      revert\n        /* \"#utility.yul\":211:328   */\n    tag_29:\n        /* \"#utility.yul\":320:321   */\n      0x00\n        /* \"#utility.yul\":317:318   */\n      dup1\n        /* \"#utility.yul\":310:322   */\n      revert\n        /* \"#utility.yul\":334:411   */\n    tag_30:\n        /* \"#utility.yul\":371:378   */\n      0x00\n        /* \"#utility.yul\":400:405   */\n      dup2\n        /* \"#utility.yul\":389:405   */\n      swap1\n      pop\n        /* \"#utility.yul\":334:411   */\n      swap2\n      swap1\n      pop\n      jump\t// out\n        /* \"#utility.yul\":417:539   */\n    tag_31:\n        /* \"#utility.yul\":490:514   */\n      tag_53\n        /* \"#utility.yul\":508:513   */\n      dup2\n        /* \"#utility.yul\":490:514   */\n      tag_30\n      jump\t// in\n    tag_53:\n        /* \"#utility.yul\":483:488   */\n      dup2\n        /* \"#utility.yul\":480:515   */\n      eq\n        /* \"#utility.yul\":470:533   */\n      tag_54\n      jumpi\n        /* \"#utility.yul\":529:530   */\n      0x00\n        /* \"#utility.yul\":526:527   */\n      dup1\n        /* \"#utility.yul\":519:531   */\n      revert\n        /* \"#utility.yul\":470:533   */\n    tag_54:\n        /* \"#utility.yul\":417:539   */\n      pop\n      jump\t// out\n        /* \"#utility.yul\":545:684   */\n    tag_32:\n        /* \"#utility.yul\":591:596   */\n      0x00\n        /* \"#utility.yul\":629:635   */\n      dup2\n        /* \"#utility.yul\":616:636   */\n      calldataload\n        /* \"#utility.yul\":607:636   */\n      swap1\n      pop\n        /* \"#utility.yul\":645:678   */\n      tag_56\n        /* \"#utility.yul\":672:677   */\n      dup2\n        /* \"#utility.yul\":645:678   */\n      tag_31\n      jump\t// in\n    tag_56:\n        /* \"#utility.yul\":545:684   */\n      swap3\n      swap2\n      pop\n      pop\n      jump\t// out\n        /* \"#utility.yul\":690:1019   */\n    tag_7:\n        /* \"#utility.yul\":749:755   */\n      0x00\n        /* \"#utility.yul\":798:800   */\n      0x20\n        /* \"#utility.yul\":786:795   */\n      dup3\n        /* \"#utility.yul\":777:784   */\n      dup5\n        /* \"#utility.yul\":773:796   */\n      sub\n        /* \"#utility.yul\":769:801   */\n      slt\n        /* \"#utility.yul\":766:885   */\n      iszero\n      tag_58\n      jumpi\n        /* \"#utility.yul\":804:883   */\n      tag_59\n      tag_28\n      jump\t// in\n    tag_59:\n        /* \"#utility.yul\":766:885   */\n    tag_58:\n        /* \"#utility.yul\":924:925   */\n      0x00\n        /* \"#utility.yul\":949:1002   */\n      tag_60\n        /* \"#utility.yul\":994:1001   */\n      dup5\n        /* \"#utility.yul\":985:991   */\n      dup3\n        /* \"#utility.yul\":974:983   */\n      dup6\n        /* \"#utility.yul\":970:992   */\n      add\n        /* \"#utility.yul\":949:1002   */\n      tag_32\n      jump\t// in\n    tag_60:\n        /* \"#utility.yul\":939:1002   */\n      swap2\n      pop\n        /* \"#utility.yul\":895:1012   */\n      pop\n        /* \"#utility.yul\":690:1019   */\n      swap3\n      swap2\n      pop\n      pop\n      jump\t// out\n        /* \"#utility.yul\":1025:1124   */\n    tag_33:\n        /* \"#utility.yul\":1077:1083   */\n      0x00\n        /* \"#utility.yul\":1111:1116   */\n      dup2\n        /* \"#utility.yul\":1105:1117   */\n      mload\n        /* \"#utility.yul\":1095:1117   */\n      swap1\n      pop\n        /* \"#utility.yul\":1025:1124   */\n      swap2\n      swap1\n      pop\n      jump\t// out\n        /* \"#utility.yul\":1130:1299   */\n    tag_34:\n        /* \"#utility.yul\":1214:1225   */\n      0x00\n        /* \"#utility.yul\":1248:1254   */\n      dup3\n        /* \"#utility.yul\":1243:1246   */\n      dup3\n        /* \"#utility.yul\":1236:1255   */\n      mstore\n        /* \"#utility.yul\":1288:1292   */\n      0x20\n        /* \"#utility.yul\":1283:1286   */\n      dup3\n        /* \"#utility.yul\":1279:1293   */\n      add\n        /* \"#utility.yul\":1264:1293   */\n      swap1\n      pop\n        /* \"#utility.yul\":1130:1299   */\n      swap3\n      swap2\n      pop\n      pop\n      jump\t// out\n        /* \"#utility.yul\":1305:1444   */\n    tag_35:\n        /* \"#utility.yul\":1394:1400   */\n      dup3\n        /* \"#utility.yul\":1389:1392   */\n      dup2\n        /* \"#utility.yul\":1384:1387   */\n      dup4\n        /* \"#utility.yul\":1378:1401   */\n      mcopy\n        /* \"#utility.yul\":1435:1436   */\n      0x00\n        /* \"#utility.yul\":1426:1432   */\n      dup4\n        /* \"#utility.yul\":1421:1424   */\n      dup4\n        /* \"#utility.yul\":1417:1433   */\n      add\n        /* \"#utility.yul\":1410:1437   */\n      mstore\n        /* \"#utility.yul\":1305:1444   */\n      pop\n      pop\n      pop\n      jump\t// out\n        /* \"#utility.yul\":1450:1552   */\n    tag_36:\n        /* \"#utility.yul\":1491:1497   */\n      0x00\n        /* \"#utility.yul\":1542:1544   */\n      0x1f\n        /* \"#utility.yul\":1538:1545   */\n      not\n        /* \"#utility.yul\":1533:1535   */\n      0x1f\n        /* \"#utility.yul\":1526:1531   */\n      dup4\n        /* \"#utility.yul\":1522:1536   */\n      add\n        /* \"#utility.yul\":1518:1546   */\n      and\n        /* \"#utility.yul\":1508:1546   */\n      swap1\n      pop\n        /* \"#utility.yul\":1450:1552   */\n      swap2\n      swap1\n      pop\n      jump\t// out\n        /* \"#utility.yul\":1558:1935   */\n    tag_37:\n        /* \"#utility.yul\":1646:1649   */\n      0x00\n        /* \"#utility.yul\":1674:1713   */\n      tag_66\n        /* \"#utility.yul\":1707:1712   */\n      dup3\n        /* \"#utility.yul\":1674:1713   */\n      tag_33\n      jump\t// in\n    tag_66:\n        /* \"#utility.yul\":1729:1800   */\n      tag_67\n        /* \"#utility.yul\":1793:1799   */\n      dup2\n        /* \"#utility.yul\":1788:1791   */\n      dup6\n        /* \"#utility.yul\":1729:1800   */\n      tag_34\n      jump\t// in\n    tag_67:\n        /* \"#utility.yul\":1722:1800   */\n      swap4\n      pop\n        /* \"#utility.yul\":1809:1874   */\n      tag_68\n        /* \"#utility.yul\":1867:1873   */\n      dup2\n        /* \"#utility.yul\":1862:1865   */\n      dup6\n        /* \"#utility.yul\":1855:1859   */\n      0x20\n        /* \"#utility.yul\":1848:1853   */\n      dup7\n        /* \"#utility.yul\":1844:1860   */\n      add\n        /* \"#utility.yul\":1809:1874   */\n      tag_35\n      jump\t// in\n    tag_68:\n        /* \"#utility.yul\":1899:1928   */\n      tag_69\n        /* \"#utility.yul\":1921:1927   */\n      dup2\n        /* \"#utility.yul\":1899:1928   */\n      tag_36\n      jump\t// in\n    tag_69:\n        /* \"#utility.yul\":1894:1897   */\n      dup5\n        /* \"#utility.yul\":1890:1929   */\n      add\n        /* \"#utility.yul\":1883:1929   */\n      swap2\n      pop\n        /* \"#utility.yul\":1650:1935   */\n      pop\n        /* \"#utility.yul\":1558:1935   */\n      swap3\n      swap2\n      pop\n      pop\n      jump\t// out\n        /* \"#utility.yul\":1941:2254   */\n    tag_10:\n        /* \"#utility.yul\":2054:2058   */\n      0x00\n        /* \"#utility.yul\":2092:2094   */\n      0x20\n        /* \"#utility.yul\":2081:2090   */\n      dup3\n        /* \"#utility.yul\":2077:2095   */\n      add\n        /* \"#utility.yul\":2069:2095   */\n      swap1\n      pop\n        /* \"#utility.yul\":2141:2150   */\n      dup2\n        /* \"#utility.yul\":2135:2139   */\n      dup2\n        /* \"#utility.yul\":2131:2151   */\n      sub\n        /* \"#utility.yul\":2127:2128   */\n      0x00\n        /* \"#utility.yul\":2116:2125   */\n      dup4\n        /* \"#utility.yul\":2112:2129   */\n      add\n        /* \"#utility.yul\":2105:2152   */\n      mstore\n        /* \"#utility.yul\":2169:2247   */\n      tag_71\n        /* \"#utility.yul\":2242:2246   */\n      dup2\n        /* \"#utility.yul\":2233:2239   */\n      dup5\n        /* \"#utility.yul\":2169:2247   */\n      tag_37\n      jump\t// in\n    tag_71:\n        /* \"#utility.yul\":2161:2247   */\n      swap1\n      pop\n        /* \"#utility.yul\":1941:2254   */\n      swap3\n      swap2\n      pop\n      pop\n      jump\t// out\n        /* \"#utility.yul\":2260:2386   */\n    tag_38:\n        /* \"#utility.yul\":2355:2379   */\n      tag_73\n        /* \"#utility.yul\":2373:2378   */\n      dup2\n        /* \"#utility.yul\":2355:2379   */\n      tag_30\n      jump\t// in\n    tag_73:\n        /* \"#utility.yul\":2350:2353   */\n      dup3\n        /* \"#utility.yul\":2343:2380   */\n      mstore\n        /* \"#utility.yul\":2260:2386   */\n      pop\n      pop\n      jump\t// out\n        /* \"#utility.yul\":2392:2630   */\n    tag_17:\n        /* \"#utility.yul\":2493:2497   */\n      0x00\n        /* \"#utility.yul\":2531:2533   */\n      0x20\n        /* \"#utility.yul\":2520:2529   */\n      dup3\n        /* \"#utility.yul\":2516:2534   */\n      add\n        /* \"#utility.yul\":2508:2534   */\n      swap1\n      pop\n        /* \"#utility.yul\":2544:2623   */\n      tag_75\n        /* \"#utility.yul\":2620:2621   */\n      0x00\n        /* \"#utility.yul\":2609:2618   */\n      dup4\n        /* \"#utility.yul\":2605:2622   */\n      add\n        /* \"#utility.yul\":2596:2602   */\n      dup5\n        /* \"#utility.yul\":2544:2623   */\n      tag_38\n      jump\t// in\n    tag_75:\n        /* \"#utility.yul\":2392:2630   */\n      swap3\n      swap2\n      pop\n      pop\n      jump\t// out\n        /* \"#utility.yul\":2636:2753   */\n    tag_39:\n        /* \"#utility.yul\":2745:2746   */\n      0x00\n        /* \"#utility.yul\":2742:2743   */\n      dup1\n        /* \"#utility.yul\":2735:2747   */\n      revert\n        /* \"#utility.yul\":2759:2876   */\n    tag_40:\n        /* \"#utility.yul\":2868:2869   */\n      0x00\n        /* \"#utility.yul\":2865:2866   */\n      dup1\n        /* \"#utility.yul\":2858:2870   */\n      revert\n        /* \"#utility.yul\":2882:3062   */\n    tag_41:\n        /* \"#utility.yul\":2930:3007   */\n      0x4e487b7100000000000000000000000000000000000000000000000000000000\n        /* \"#utility.yul\":2927:2928   */\n      0x00\n        /* \"#utility.yul\":2920:3008   */\n      mstore\n        /* \"#utility.yul\":3027:3031   */\n      0x41\n        /* \"#utility.yul\":3024:3025   */\n      0x04\n        /* \"#utility.yul\":3017:3032   */\n      mstore\n        /* \"#utility.yul\":3051:3055   */\n      0x24\n        /* \"#utility.yul\":3048:3049   */\n      0x00\n        /* \"#utility.yul\":3041:3056   */\n      revert\n        /* \"#utility.yul\":3068:3349   */\n    tag_42:\n        /* \"#utility.yul\":3151:3178   */\n      tag_80\n        /* \"#utility.yul\":3173:3177   */\n      dup3\n        /* \"#utility.yul\":3151:3178   */\n      tag_36\n      jump\t// in\n    tag_80:\n        /* \"#utility.yul\":3143:3149   */\n      dup2\n        /* \"#utility.yul\":3139:3179   */\n      add\n        /* \"#utility.yul\":3281:3287   */\n      dup2\n        /* \"#utility.yul\":3269:3279   */\n      dup2\n        /* \"#utility.yul\":3266:3288   */\n      lt\n        /* \"#utility.yul\":3245:3263   */\n      0xffffffffffffffff\n        /* \"#utility.yul\":3233:3243   */\n      dup3\n        /* \"#utility.yul\":3230:3264   */\n      gt\n        /* \"#utility.yul\":3227:3289   */\n      or\n        /* \"#utility.yul\":3224:3312   */\n      iszero\n      tag_81\n      jumpi\n        /* \"#utility.yul\":3292:3310   */\n      tag_82\n      tag_41\n      jump\t// in\n    tag_82:\n        /* \"#utility.yul\":3224:3312   */\n    tag_81:\n        /* \"#utility.yul\":3332:3342   */\n      dup1\n        /* \"#utility.yul\":3328:3330   */\n      0x40\n        /* \"#utility.yul\":3321:3343   */\n      mstore\n        /* \"#utility.yul\":3111:3349   */\n      pop\n        /* \"#utility.yul\":3068:3349   */\n      pop\n      pop\n      jump\t// out\n        /* \"#utility.yul\":3355:3484   */\n    tag_43:\n        /* \"#utility.yul\":3389:3395   */\n      0x00\n        /* \"#utility.yul\":3416:3436   */\n      tag_84\n      tag_27\n      jump\t// in\n    tag_84:\n        /* \"#utility.yul\":3406:3436   */\n      swap1\n      pop\n        /* \"#utility.yul\":3445:3478   */\n      tag_85\n        /* \"#utility.yul\":3473:3477   */\n      dup3\n        /* \"#utility.yul\":3465:3471   */\n      dup3\n        /* \"#utility.yul\":3445:3478   */\n      tag_42\n      jump\t// in\n    tag_85:\n        /* \"#utility.yul\":3355:3484   */\n      swap2\n      swap1\n      pop\n      jump\t// out\n        /* \"#utility.yul\":3490:3798   */\n    tag_44:\n        /* \"#utility.yul\":3552:3556   */\n      0x00\n        /* \"#utility.yul\":3642:3660   */\n      0xffffffffffffffff\n        /* \"#utility.yul\":3634:3640   */\n      dup3\n        /* \"#utility.yul\":3631:3661   */\n      gt\n        /* \"#utility.yul\":3628:3684   */\n      iszero\n      tag_87\n      jumpi\n        /* \"#utility.yul\":3664:3682   */\n      tag_88\n      tag_41\n      jump\t// in\n    tag_88:\n        /* \"#utility.yul\":3628:3684   */\n    tag_87:\n        /* \"#utility.yul\":3702:3731   */\n      tag_89\n        /* \"#utility.yul\":3724:3730   */\n      dup3\n        /* \"#utility.yul\":3702:3731   */\n      tag_36\n      jump\t// in\n    tag_89:\n        /* \"#utility.yul\":3694:3731   */\n      swap1\n      pop\n        /* \"#utility.yul\":3786:3790   */\n      0x20\n        /* \"#utility.yul\":3780:3784   */\n      dup2\n        /* \"#utility.yul\":3776:3791   */\n      add\n        /* \"#utility.yul\":3768:3791   */\n      swap1\n      pop\n        /* \"#utility.yul\":3490:3798   */\n      swap2\n      swap1\n      pop\n      jump\t// out\n        /* \"#utility.yul\":3804:4238   */\n    tag_45:\n        /* \"#utility.yul\":3893:3898   */\n      0x00\n        /* \"#utility.yul\":3918:3984   */\n      tag_91\n        /* \"#utility.yul\":3934:3983   */\n      tag_92\n        /* \"#utility.yul\":3976:3982   */\n      dup5\n        /* \"#utility.yul\":3934:3983   */\n      tag_44\n      jump\t// in\n    tag_92:\n        /* \"#utility.yul\":3918:3984   */\n      tag_43\n      jump\t// in\n    tag_91:\n        /* \"#utility.yul\":3909:3984   */\n      swap1\n      pop\n        /* \"#utility.yul\":4007:4013   */\n      dup3\n        /* \"#utility.yul\":4000:4005   */\n      dup2\n        /* \"#utility.yul\":3993:4014   */\n      mstore\n        /* \"#utility.yul\":4045:4049   */\n      0x20\n        /* \"#utility.yul\":4038:4043   */\n      dup2\n        /* \"#utility.yul\":4034:4050   */\n      add\n        /* \"#utility.yul\":4083:4086   */\n      dup5\n        /* \"#utility.yul\":4074:4080   */\n      dup5\n        /* \"#utility.yul\":4069:4072   */\n      dup5\n        /* \"#utility.yul\":4065:4081   */\n      add\n        /* \"#utility.yul\":4062:4087   */\n      gt\n        /* \"#utility.yul\":4059:4171   */\n      iszero\n      tag_93\n      jumpi\n        /* \"#utility.yul\":4090:4169   */\n      tag_94\n      tag_40\n      jump\t// in\n    tag_94:\n        /* \"#utility.yul\":4059:4171   */\n    tag_93:\n        /* \"#utility.yul\":4180:4232   */\n      tag_95\n        /* \"#utility.yul\":4225:4231   */\n      dup5\n        /* \"#utility.yul\":4220:4223   */\n      dup3\n        /* \"#utility.yul\":4215:4218   */\n      dup6\n        /* \"#utility.yul\":4180:4232   */\n      tag_35\n      jump\t// in\n    tag_95:\n        /* \"#utility.yul\":3899:4238   */\n      pop\n        /* \"#utility.yul\":3804:4238   */\n      swap4\n      swap3\n      pop\n      pop\n      pop\n      jump\t// out\n        /* \"#utility.yul\":4258:4613   */\n    tag_46:\n        /* \"#utility.yul\":4325:4330   */\n      0x00\n        /* \"#utility.yul\":4374:4377   */\n      dup3\n        /* \"#utility.yul\":4367:4371   */\n      0x1f\n        /* \"#utility.yul\":4359:4365   */\n      dup4\n        /* \"#utility.yul\":4355:4372   */\n      add\n        /* \"#utility.yul\":4351:4378   */\n      slt\n        /* \"#utility.yul\":4341:4463   */\n      tag_97\n      jumpi\n        /* \"#utility.yul\":4382:4461   */\n      tag_98\n      tag_39\n      jump\t// in\n    tag_98:\n        /* \"#utility.yul\":4341:4463   */\n    tag_97:\n        /* \"#utility.yul\":4492:4498   */\n      dup2\n        /* \"#utility.yul\":4486:4499   */\n      mload\n        /* \"#utility.yul\":4517:4607   */\n      tag_99\n        /* \"#utility.yul\":4603:4606   */\n      dup5\n        /* \"#utility.yul\":4595:4601   */\n      dup3\n        /* \"#utility.yul\":4588:4592   */\n      0x20\n        /* \"#utility.yul\":4580:4586   */\n      dup7\n        /* \"#utility.yul\":4576:4593   */\n      add\n        /* \"#utility.yul\":4517:4607   */\n      tag_45\n      jump\t// in\n    tag_99:\n        /* \"#utility.yul\":4508:4607   */\n      swap2\n      pop\n        /* \"#utility.yul\":4331:4613   */\n      pop\n        /* \"#utility.yul\":4258:4613   */\n      swap3\n      swap2\n      pop\n      pop\n      jump\t// out\n        /* \"#utility.yul\":4619:5143   */\n    tag_21:\n        /* \"#utility.yul\":4699:4705   */\n      0x00\n        /* \"#utility.yul\":4748:4750   */\n      0x20\n        /* \"#utility.yul\":4736:4745   */\n      dup3\n        /* \"#utility.yul\":4727:4734   */\n      dup5\n        /* \"#utility.yul\":4723:4746   */\n      sub\n        /* \"#utility.yul\":4719:4751   */\n      slt\n        /* \"#utility.yul\":4716:4835   */\n      iszero\n      tag_101\n      jumpi\n        /* \"#utility.yul\":4754:4833   */\n      tag_102\n      tag_28\n      jump\t// in\n    tag_102:\n        /* \"#utility.yul\":4716:4835   */\n    tag_101:\n        /* \"#utility.yul\":4895:4896   */\n      0x00\n        /* \"#utility.yul\":4884:4893   */\n      dup3\n        /* \"#utility.yul\":4880:4897   */\n      add\n        /* \"#utility.yul\":4874:4898   */\n      mload\n        /* \"#utility.yul\":4925:4943   */\n      0xffffffffffffffff\n        /* \"#utility.yul\":4917:4923   */\n      dup2\n        /* \"#utility.yul\":4914:4944   */\n      gt\n        /* \"#utility.yul\":4911:5028   */\n      iszero\n      tag_103\n      jumpi\n        /* \"#utility.yul\":4947:5026   */\n      tag_104\n      tag_29\n      jump\t// in\n    tag_104:\n        /* \"#utility.yul\":4911:5028   */\n    tag_103:\n        /* \"#utility.yul\":5052:5126   */\n      tag_105\n        /* \"#utility.yul\":5118:5125   */\n      dup5\n        /* \"#utility.yul\":5109:5115   */\n      dup3\n        /* \"#utility.yul\":5098:5107   */\n      dup6\n        /* \"#utility.yul\":5094:5116   */\n      add\n        /* \"#utility.yul\":5052:5126   */\n      tag_46\n      jump\t// in\n    tag_105:\n        /* \"#utility.yul\":5042:5126   */\n      swap2\n      pop\n        /* \"#utility.yul\":4845:5136   */\n      pop\n        /* \"#utility.yul\":4619:5143   */\n      swap3\n      swap2\n      pop\n      pop\n      jump\t// out\n\n    auxdata: 0xa264697066735822122066e6e02d33248862594a9b541e567f4a7c9058aec70cdc982b1fe36d0a60608264736f6c634300081a0033\n}\n",
				"bytecode": {
					"linkReferences": {
						"LibraryContract.sol": {
							"Strings": [
								{
									"length": 20,
									"start": 184
								},
								{
									"length": 20,
									"start": 315
								}
							]
						}
					},
					"object": "6080604052348015600e575f80fd5b506104608061001c5f395ff3fe608060405234801561000f575f80fd5b5060043610610034575f3560e01c80636d8b6c0b14610038578063e88f1cd814610068575b5f80fd5b610052600480360381019061004d91906101e2565b610098565b60405161005f919061027d565b60405180910390f35b610082600480360381019061007d91906101e2565b61011a565b60405161008f919061027d565b60405180910390f35b606073__$b619df4f213ae1931478743823f1712641$__638fba8d5c836040518263ffffffff1660e01b81526004016100d191906102ac565b5f60405180830381865af41580156100eb573d5f803e3d5ffd5b505050506040513d5f823e3d601f19601f8201168201806040525081019061011391906103e3565b9050919050565b60608173__$b619df4f213ae1931478743823f1712641$__638fba8d5c90916040518263ffffffff1660e01b815260040161015591906102ac565b5f60405180830381865af415801561016f573d5f803e3d5ffd5b505050506040513d5f823e3d601f19601f8201168201806040525081019061019791906103e3565b9050919050565b5f604051905090565b5f80fd5b5f80fd5b5f819050919050565b6101c1816101af565b81146101cb575f80fd5b50565b5f813590506101dc816101b8565b92915050565b5f602082840312156101f7576101f66101a7565b5b5f610204848285016101ce565b91505092915050565b5f81519050919050565b5f82825260208201905092915050565b8281835e5f83830152505050565b5f601f19601f8301169050919050565b5f61024f8261020d565b6102598185610217565b9350610269818560208601610227565b61027281610235565b840191505092915050565b5f6020820190508181035f8301526102958184610245565b905092915050565b6102a6816101af565b82525050565b5f6020820190506102bf5f83018461029d565b92915050565b5f80fd5b5f80fd5b7f4e487b71000000000000000000000000000000000000000000000000000000005f52604160045260245ffd5b61030382610235565b810181811067ffffffffffffffff82111715610322576103216102cd565b5b80604052505050565b5f61033461019e565b905061034082826102fa565b919050565b5f67ffffffffffffffff82111561035f5761035e6102cd565b5b61036882610235565b9050602081019050919050565b5f61038761038284610345565b61032b565b9050828152602081018484840111156103a3576103a26102c9565b5b6103ae848285610227565b509392505050565b5f82601f8301126103ca576103c96102c5565b5b81516103da848260208601610375565b91505092915050565b5f602082840312156103f8576103f76101a7565b5b5f82015167ffffffffffffffff811115610415576104146101ab565b5b610421848285016103b6565b9150509291505056fea264697066735822122066e6e02d33248862594a9b541e567f4a7c9058aec70cdc982b1fe36d0a60608264736f6c634300081a0033",
					"opcodes": "PUSH1 0x80 PUSH1 0x40 MSTORE CALLVALUE DUP1 ISZERO PUSH1 0xE JUMPI PUSH0 DUP1 REVERT JUMPDEST POP PUSH2 0x460 DUP1 PUSH2 0x1C PUSH0 CODECOPY PUSH0 RETURN INVALID PUSH1 0x80 PUSH1 0x40 MSTORE CALLVALUE DUP1 ISZERO PUSH2 0xF JUMPI PUSH0 DUP1 REVERT JUMPDEST POP PUSH1 0x4 CALLDATASIZE LT PUSH2 0x34 JUMPI PUSH0 CALLDATALOAD PUSH1 0xE0 SHR DUP1 PUSH4 0x6D8B6C0B EQ PUSH2 0x38 JUMPI DUP1 PUSH4 0xE88F1CD8 EQ PUSH2 0x68 JUMPI JUMPDEST PUSH0 DUP1 REVERT JUMPDEST PUSH2 0x52 PUSH1 0x4 DUP1 CALLDATASIZE SUB DUP2 ADD SWAP1 PUSH2 0x4D SWAP2 SWAP1 PUSH2 0x1E2 JUMP JUMPDEST PUSH2 0x98 JUMP JUMPDEST PUSH1 0x40 MLOAD PUSH2 0x5F SWAP2 SWAP1 PUSH2 0x27D JUMP JUMPDEST PUSH1 0x40 MLOAD DUP1 SWAP2 SUB SWAP1 RETURN JUMPDEST PUSH2 0x82 PUSH1 0x4 DUP1 CALLDATASIZE SUB DUP2 ADD SWAP1 PUSH2 0x7D SWAP2 SWAP1 PUSH2 0x1E2 JUMP JUMPDEST PUSH2 0x11A JUMP JUMPDEST PUSH1 0x40 MLOAD PUSH2 0x8F SWAP2 SWAP1 PUSH2 0x27D JUMP JUMPDEST PUSH1 0x40 MLOAD DUP1 SWAP2 SUB SWAP1 RETURN JUMPDEST PUSH1 0x60 PUSH20 0x0 PUSH4 0x8FBA8D5C DUP4 PUSH1 0x40 MLOAD DUP3 PUSH4 0xFFFFFFFF AND PUSH1 0xE0 SHL DUP2 MSTORE PUSH1 0x4 ADD PUSH2 0xD1 SWAP2 SWAP1 PUSH2 0x2AC JUMP JUMPDEST PUSH0 PUSH1 0x40 MLOAD DUP1 DUP4 SUB DUP2 DUP7 GAS DELEGATECALL ISZERO DUP1 ISZERO PUSH2 0xEB JUMPI RETURNDATASIZE PUSH0 DUP1 RETURNDATACOPY RETURNDATASIZE PUSH0 REVERT JUMPDEST POP POP POP POP PUSH1 0x40 MLOAD RETURNDATASIZE PUSH0 DUP3 RETURNDATACOPY RETURNDATASIZE PUSH1 0x1F NOT PUSH1 0x1F DUP3 ADD AND DUP3 ADD DUP1 PUSH1 0x40 MSTORE POP DUP2 ADD SWAP1 PUSH2 0x113 SWAP2 SWAP1 PUSH2 0x3E3 JUMP JUMPDEST SWAP1 POP SWAP2 SWAP1 POP JUMP JUMPDEST PUSH1 0x60 DUP2 PUSH20 0x0 PUSH4 0x8FBA8D5C SWAP1 SWAP2 PUSH1 0x40 MLOAD DUP3 PUSH4 0xFFFFFFFF AND PUSH1 0xE0 SHL DUP2 MSTORE PUSH1 0x4 ADD PUSH2 0x155 SWAP2 SWAP1 PUSH2 0x2AC JUMP JUMPDEST PUSH0 PUSH1 0x40 MLOAD DUP1 DUP4 SUB DUP2 DUP7 GAS DELEGATECALL ISZERO DUP1 ISZERO PUSH2 0x16F JUMPI RETURNDATASIZE PUSH0 DUP1 RETURNDATACOPY RETURNDATASIZE PUSH0 REVERT JUMPDEST POP POP POP POP PUSH1 0x40 MLOAD RETURNDATASIZE PUSH0 DUP3 RETURNDATACOPY RETURNDATASIZE PUSH1 0x1F NOT PUSH1 0x1F DUP3 ADD AND DUP3 ADD DUP1 PUSH1 0x40 MSTORE POP DUP2 ADD SWAP1 PUSH2 0x197 SWAP2 SWAP1 PUSH2 0x3E3 JUMP JUMPDEST SWAP1 POP SWAP2 SWAP1 POP JUMP JUMPDEST PUSH0 PUSH1 0x40 MLOAD SWAP1 POP SWAP1 JUMP JUMPDEST PUSH0 DUP1 REVERT JUMPDEST PUSH0 DUP1 REVERT JUMPDEST PUSH0 DUP2 SWAP1 POP SWAP2 SWAP1 POP JUMP JUMPDEST PUSH2 0x1C1 DUP2 PUSH2 0x1AF JUMP JUMPDEST DUP2 EQ PUSH2 0x1CB JUMPI PUSH0 DUP1 REVERT JUMPDEST POP JUMP JUMPDEST PUSH0 DUP2 CALLDATALOAD SWAP1 POP PUSH2 0x1DC DUP2 PUSH2 0x1B8 JUMP JUMPDEST SWAP3 SWAP2 POP POP JUMP JUMPDEST PUSH0 PUSH1 0x20 DUP3 DUP5 SUB SLT ISZERO PUSH2 0x1F7 JUMPI PUSH2 0x1F6 PUSH2 0x1A7 JUMP JUMPDEST JUMPDEST PUSH0 PUSH2 0x204 DUP5 DUP3 DUP6 ADD PUSH2 0x1CE JUMP JUMPDEST SWAP2 POP POP SWAP3 SWAP2 POP POP JUMP JUMPDEST PUSH0 DUP2 MLOAD SWAP1 POP SWAP2 SWAP1 POP JUMP JUMPDEST PUSH0 DUP3 DUP3 MSTORE PUSH1 0x20 DUP3 ADD SWAP1 POP SWAP3 SWAP2 POP POP JUMP JUMPDEST DUP3 DUP2 DUP4 MCOPY PUSH0 DUP4 DUP4 ADD MSTORE POP POP POP JUMP JUMPDEST PUSH0 PUSH1 0x1F NOT PUSH1 0x1F DUP4 ADD AND SWAP1 POP SWAP2 SWAP1 POP JUMP JUMPDEST PUSH0 PUSH2 0x24F DUP3 PUSH2 0x20D JUMP JUMPDEST PUSH2 0x259 DUP2 DUP6 PUSH2 0x217 JUMP JUMPDEST SWAP4 POP PUSH2 0x269 DUP2 DUP6 PUSH1 0x20 DUP7 ADD PUSH2 0x227 JUMP JUMPDEST PUSH2 0x272 DUP2 PUSH2 0x235 JUMP JUMPDEST DUP5 ADD SWAP2 POP POP SWAP3 SWAP2 POP POP JUMP JUMPDEST PUSH0 PUSH1 0x20 DUP3 ADD SWAP1 POP DUP2 DUP2 SUB PUSH0 DUP4 ADD MSTORE PUSH2 0x295 DUP2 DUP5 PUSH2 0x245 JUMP JUMPDEST SWAP1 POP SWAP3 SWAP2 POP POP JUMP JUMPDEST PUSH2 0x2A6 DUP2 PUSH2 0x1AF JUMP JUMPDEST DUP3 MSTORE POP POP JUMP JUMPDEST PUSH0 PUSH1 0x20 DUP3 ADD SWAP1 POP PUSH2 0x2BF PUSH0 DUP4 ADD DUP5 PUSH2 0x29D JUMP JUMPDEST SWAP3 SWAP2 POP POP JUMP JUMPDEST PUSH0 DUP1 REVERT JUMPDEST PUSH0 DUP1 REVERT JUMPDEST PUSH32 0x4E487B7100000000000000000000000000000000000000000000000000000000 PUSH0 MSTORE PUSH1 0x41 PUSH1 0x4 MSTORE PUSH1 0x24 PUSH0 REVERT JUMPDEST PUSH2 0x303 DUP3 PUSH2 0x235 JUMP JUMPDEST DUP2 ADD DUP2 DUP2 LT PUSH8 0xFFFFFFFFFFFFFFFF DUP3 GT OR ISZERO PUSH2 0x322 JUMPI PUSH2 0x321 PUSH2 0x2CD JUMP JUMPDEST JUMPDEST DUP1 PUSH1 0x40 MSTORE POP POP POP JUMP JUMPDEST PUSH0 PUSH2 0x334 PUSH2 0x19E JUMP JUMPDEST SWAP1 POP PUSH2 0x340 DUP3 DUP3 PUSH2 0x2FA JUMP JUMPDEST SWAP2 SWAP1 POP JUMP JUMPDEST PUSH0 PUSH8 0xFFFFFFFFFFFFFFFF DUP3 GT ISZERO PUSH2 0x35F JUMPI PUSH2 0x35E PUSH2 0x2CD JUMP JUMPDEST JUMPDEST PUSH2 0x368 DUP3 PUSH2 0x235 JUMP JUMPDEST SWAP1 POP PUSH1 0x20 DUP2 ADD SWAP1 POP SWAP2 SWAP1 POP JUMP JUMPDEST PUSH0 PUSH2 0x387 PUSH2 0x382 DUP5 PUSH2 0x345 JUMP JUMPDEST PUSH2 0x32B JUMP JUMPDEST SWAP1 POP DUP3 DUP2 MSTORE PUSH1 0x20 DUP2 ADD DUP5 DUP5 DUP5 ADD GT ISZERO PUSH2 0x3A3 JUMPI PUSH2 0x3A2 PUSH2 0x2C9 JUMP JUMPDEST JUMPDEST PUSH2 0x3AE DUP5 DUP3 DUP6 PUSH2 0x227 JUMP JUMPDEST POP SWAP4 SWAP3 POP POP POP JUMP JUMPDEST PUSH0 DUP3 PUSH1 0x1F DUP4 ADD SLT PUSH2 0x3CA JUMPI PUSH2 0x3C9 PUSH2 0x2C5 JUMP JUMPDEST JUMPDEST DUP2 MLOAD PUSH2 0x3DA DUP5 DUP3 PUSH1 0x20 DUP7 ADD PUSH2 0x375 JUMP JUMPDEST SWAP2 POP POP SWAP3 SWAP2 POP POP JUMP JUMPDEST PUSH0 PUSH1 0x20 DUP3 DUP5 SUB SLT ISZERO PUSH2 0x3F8 JUMPI PUSH2 0x3F7 PUSH2 0x1A7 JUMP JUMPDEST JUMPDEST PUSH0 DUP3 ADD MLOAD PUSH8 0xFFFFFFFFFFFFFFFF DUP2 GT ISZERO PUSH2 0x415 JUMPI PUSH2 0x414 PUSH2 0x1AB JUMP JUMPDEST JUMPDEST PUSH2 0x421 DUP5 DUP3 DUP6 ADD PUSH2 0x3B6 JUMP JUMPDEST SWAP2 POP POP SWAP3 SWAP2 POP POP JUMP INVALID LOG2 PUSH5 0x6970667358 0x22 SLT KECCAK256 PUSH7 0xE6E02D33248862 MSIZE BLOBBASEFEE SWAP12 SLOAD 0x1E JUMP PUSH32 0x4A7C9058AEC70CDC982B1FE36D0A60608264736F6C634300081A003300000000 "
				},
				"gasEstimates": {
					"creation": {
						"codeDepositCost": "224000",
						"executionCost": "261",
						"totalCost": "224261"
					},
					"external": {
						"getHexString1(uint256)": "infinite",
						"getHexString2(uint256)": "infinite"
					}
				},
				"methodIdentifiers": {
					"getHexString1(uint256)": "e88f1cd8",
					"getHexString2(uint256)": "6d8b6c0b"
				}
			},
			"storageLayout": {
				"storage": [],
				"types": null
			},
			"userdoc": {
				"kind": "user",
				"methods": {},
				"version": 1
			}
		}
	}
}