{
	"data": {
		"bytecode": {
			"linkReferences": {},
			"object": "60806040526040516020016011906088565b604051602081830303815290604052805190602001205f553480156033575f80fd5b50609a565b5f81905092915050565b7f30784141000000000000000000000000000000000000000000000000000000005f82015250565b5f60746004836038565b9150607d826042565b600482019050919050565b5f609082606a565b9150819050919050565b610696806100a75f395ff3fe608060405234801561000f575f80fd5b5060043610610055575f3560e01c806310be181c1461005957806310c8c11d1461008957806341652936146100a75780634f6b068d146100c55780635995e76f146100f5575b5f80fd5b610073600480360381019061006e9190610341565b610125565b60405161008091906103d1565b60405180910390f35b61009161017d565b60405161009e9190610402565b60405180910390f35b6100af610182565b6040516100bc9190610402565b60405180910390f35b6100df60048036038101906100da91906104a8565b610188565b6040516100ec9190610402565b60405180910390f35b61010f600480360381019061010a9190610514565b6101bd565b60405161011c91906103d1565b60405180910390f35b5f8160405160200161013791906105ad565b604051602081830303815290604052805190602001208360405160200161015e91906105ad565b6040516020818303038152906040528051906020012014905092915050565b5f5481565b60015481565b5f83838360405160200161019e93929190610628565b6040516020818303038152906040528051906020012090509392505050565b5f8054826040516020016101d191906105ad565b604051602081830303815290604052805190602001206001819055149050919050565b5f604051905090565b5f80fd5b5f80fd5b5f80fd5b5f80fd5b5f601f19601f8301169050919050565b7f4e487b71000000000000000000000000000000000000000000000000000000005f52604160045260245ffd5b6102538261020d565b810181811067ffffffffffffffff821117156102725761027161021d565b5b80604052505050565b5f6102846101f4565b9050610290828261024a565b919050565b5f67ffffffffffffffff8211156102af576102ae61021d565b5b6102b88261020d565b9050602081019050919050565b828183375f83830152505050565b5f6102e56102e084610295565b61027b565b90508281526020810184848401111561030157610300610209565b5b61030c8482856102c5565b509392505050565b5f82601f83011261032857610327610205565b5b81356103388482602086016102d3565b91505092915050565b5f8060408385031215610357576103566101fd565b5b5f83013567ffffffffffffffff81111561037457610373610201565b5b61038085828601610314565b925050602083013567ffffffffffffffff8111156103a1576103a0610201565b5b6103ad85828601610314565b9150509250929050565b5f8115159050919050565b6103cb816103b7565b82525050565b5f6020820190506103e45f8301846103c2565b92915050565b5f819050919050565b6103fc816103ea565b82525050565b5f6020820190506104155f8301846103f3565b92915050565b5f819050919050565b61042d8161041b565b8114610437575f80fd5b50565b5f8135905061044881610424565b92915050565b5f73ffffffffffffffffffffffffffffffffffffffff82169050919050565b5f6104778261044e565b9050919050565b6104878161046d565b8114610491575f80fd5b50565b5f813590506104a28161047e565b92915050565b5f805f606084860312156104bf576104be6101fd565b5b5f6104cc8682870161043a565b935050602084013567ffffffffffffffff8111156104ed576104ec610201565b5b6104f986828701610314565b925050604061050a86828701610494565b9150509250925092565b5f60208284031215610529576105286101fd565b5b5f82013567ffffffffffffffff81111561054657610545610201565b5b61055284828501610314565b91505092915050565b5f81519050919050565b5f81905092915050565b8281835e5f83830152505050565b5f6105878261055b565b6105918185610565565b93506105a181856020860161056f565b80840191505092915050565b5f6105b8828461057d565b915081905092915050565b5f819050919050565b6105dd6105d88261041b565b6105c3565b82525050565b5f8160601b9050919050565b5f6105f9826105e3565b9050919050565b5f61060a826105ef565b9050919050565b61062261061d8261046d565b610600565b82525050565b5f61063382866105cc565b602082019150610643828561057d565b915061064f8284610611565b60148201915081905094935050505056fea264697066735822122019ebf7d332666e2459a667b35784573f786ccfaad6a2e9cf47aa7e091eb11a2a64736f6c634300081a0033",
			"opcodes": "PUSH1 0x80 PUSH1 0x40 MSTORE PUSH1 0x40 MLOAD PUSH1 0x20 ADD PUSH1 0x11 SWAP1 PUSH1 0x88 JUMP JUMPDEST PUSH1 0x40 MLOAD PUSH1 0x20 DUP2 DUP4 SUB SUB DUP2 MSTORE SWAP1 PUSH1 0x40 MSTORE DUP1 MLOAD SWAP1 PUSH1 0x20 ADD KECCAK256 PUSH0 SSTORE CALLVALUE DUP1 ISZERO PUSH1 0x33 JUMPI PUSH0 DUP1 REVERT JUMPDEST POP PUSH1 0x9A JUMP JUMPDEST PUSH0 DUP2 SWAP1 POP SWAP3 SWAP2 POP POP JUMP JUMPDEST PUSH32 0x3078414100000000000000000000000000000000000000000000000000000000 PUSH0 DUP3 ADD MSTORE POP JUMP JUMPDEST PUSH0 PUSH1 0x74 PUSH1 0x4 DUP4 PUSH1 0x38 JUMP JUMPDEST SWAP2 POP PUSH1 0x7D DUP3 PUSH1 0x42 JUMP JUMPDEST PUSH1 0x4 DUP3 ADD SWAP1 POP SWAP2 SWAP1 POP JUMP JUMPDEST PUSH0 PUSH1 0x90 DUP3 PUSH1 0x6A JUMP JUMPDEST SWAP2 POP DUP2 SWAP1 POP SWAP2 SWAP1 POP JUMP JUMPDEST PUSH2 0x696 DUP1 PUSH2 0xA7 PUSH0 CODECOPY PUSH0 RETURN INVALID PUSH1 0x80 PUSH1 0x40 MSTORE CALLVALUE DUP1 ISZERO PUSH2 0xF JUMPI PUSH0 DUP1 REVERT JUMPDEST POP PUSH1 0x4 CALLDATASIZE LT PUSH2 0x55 JUMPI PUSH0 CALLDATALOAD PUSH1 0xE0 SHR DUP1 PUSH4 0x10BE181C EQ PUSH2 0x59 JUMPI DUP1 PUSH4 0x10C8C11D EQ PUSH2 0x89 JUMPI DUP1 PUSH4 0x41652936 EQ PUSH2 0xA7 JUMPI DUP1 PUSH4 0x4F6B068D EQ PUSH2 0xC5 JUMPI DUP1 PUSH4 0x5995E76F EQ PUSH2 0xF5 JUMPI JUMPDEST PUSH0 DUP1 REVERT JUMPDEST PUSH2 0x73 PUSH1 0x4 DUP1 CALLDATASIZE SUB DUP2 ADD SWAP1 PUSH2 0x6E SWAP2 SWAP1 PUSH2 0x341 JUMP JUMPDEST PUSH2 0x125 JUMP JUMPDEST PUSH1 0x40 MLOAD PUSH2 0x80 SWAP2 SWAP1 PUSH2 0x3D1 JUMP JUMPDEST PUSH1 0x40 MLOAD DUP1 SWAP2 SUB SWAP1 RETURN JUMPDEST PUSH2 0x91 PUSH2 0x17D JUMP JUMPDEST PUSH1 0x40 MLOAD PUSH2 0x9E SWAP2 SWAP1 PUSH2 0x402 JUMP JUMPDEST PUSH1 0x40 MLOAD DUP1 SWAP2 SUB SWAP1 RETURN JUMPDEST PUSH2 0xAF PUSH2 0x182 JUMP JUMPDEST PUSH1 0x40 MLOAD PUSH2 0xBC SWAP2 SWAP1 PUSH2 0x402 JUMP JUMPDEST PUSH1 0x40 MLOAD DUP1 SWAP2 SUB SWAP1 RETURN JUMPDEST PUSH2 0xDF PUSH1 0x4 DUP1 CALLDATASIZE SUB DUP2 ADD SWAP1 PUSH2 0xDA SWAP2 SWAP1 PUSH2 0x4A8 JUMP JUMPDEST PUSH2 0x188 JUMP JUMPDEST PUSH1 0x40 MLOAD PUSH2 0xEC SWAP2 SWAP1 PUSH2 0x402 JUMP JUMPDEST PUSH1 0x40 MLOAD DUP1 SWAP2 SUB SWAP1 RETURN JUMPDEST PUSH2 0x10F PUSH1 0x4 DUP1 CALLDATASIZE SUB DUP2 ADD SWAP1 PUSH2 0x10A SWAP2 SWAP1 PUSH2 0x514 JUMP JUMPDEST PUSH2 0x1BD JUMP JUMPDEST PUSH1 0x40 MLOAD PUSH2 0x11C SWAP2 SWAP1 PUSH2 0x3D1 JUMP JUMPDEST PUSH1 0x40 MLOAD DUP1 SWAP2 SUB SWAP1 RETURN JUMPDEST PUSH0 DUP2 PUSH1 0x40 MLOAD PUSH1 0x20 ADD PUSH2 0x137 SWAP2 SWAP1 PUSH2 0x5AD JUMP JUMPDEST PUSH1 0x40 MLOAD PUSH1 0x20 DUP2 DUP4 SUB SUB DUP2 MSTORE SWAP1 PUSH1 0x40 MSTORE DUP1 MLOAD SWAP1 PUSH1 0x20 ADD KECCAK256 DUP4 PUSH1 0x40 MLOAD PUSH1 0x20 ADD PUSH2 0x15E SWAP2 SWAP1 PUSH2 0x5AD JUMP JUMPDEST PUSH1 0x40 MLOAD PUSH1 0x20 DUP2 DUP4 SUB SUB DUP2 MSTORE SWAP1 PUSH1 0x40 MSTORE DUP1 MLOAD SWAP1 PUSH1 0x20 ADD KECCAK256 EQ SWAP1 POP SWAP3 SWAP2 POP POP JUMP JUMPDEST PUSH0 SLOAD DUP2 JUMP JUMPDEST PUSH1 0x1 SLOAD DUP2 JUMP JUMPDEST PUSH0 DUP4 DUP4 DUP4 PUSH1 0x40 MLOAD PUSH1 0x20 ADD PUSH2 0x19E SWAP4 SWAP3 SWAP2 SWAP1 PUSH2 0x628 JUMP JUMPDEST PUSH1 0x40 MLOAD PUSH1 0x20 DUP2 DUP4 SUB SUB DUP2 MSTORE SWAP1 PUSH1 0x40 MSTORE DUP1 MLOAD SWAP1 PUSH1 0x20 ADD KECCAK256 SWAP1 POP SWAP4 SWAP3 POP POP POP JUMP JUMPDEST PUSH0 DUP1 SLOAD DUP3 PUSH1 0x40 MLOAD PUSH1 0x20 ADD PUSH2 0x1D1 SWAP2 SWAP1 PUSH2 0x5AD JUMP JUMPDEST PUSH1 0x40 MLOAD PUSH1 0x20 DUP2 DUP4 SUB SUB DUP2 MSTORE SWAP1 PUSH1 0x40 MSTORE DUP1 MLOAD SWAP1 PUSH1 0x20 ADD KECCAK256 PUSH1 0x1 DUP2 SWAP1 SSTORE EQ SWAP1 POP SWAP2 SWAP1 POP JUMP JUMPDEST PUSH0 PUSH1 0x40 MLOAD SWAP1 POP SWAP1 JUMP JUMPDEST PUSH0 DUP1 REVERT JUMPDEST PUSH0 DUP1 REVERT JUMPDEST PUSH0 DUP1 REVERT JUMPDEST PUSH0 DUP1 REVERT JUMPDEST PUSH0 PUSH1 0x1F NOT PUSH1 0x1F DUP4 ADD AND SWAP1 POP SWAP2 SWAP1 POP JUMP JUMPDEST PUSH32 0x4E487B7100000000000000000000000000000000000000000000000000000000 PUSH0 MSTORE PUSH1 0x41 PUSH1 0x4 MSTORE PUSH1 0x24 PUSH0 REVERT JUMPDEST PUSH2 0x253 DUP3 PUSH2 0x20D JUMP JUMPDEST DUP2 ADD DUP2 DUP2 LT PUSH8 0xFFFFFFFFFFFFFFFF DUP3 GT OR ISZERO PUSH2 0x272 JUMPI PUSH2 0x271 PUSH2 0x21D JUMP JUMPDEST JUMPDEST DUP1 PUSH1 0x40 MSTORE POP POP POP JUMP JUMPDEST PUSH0 PUSH2 0x284 PUSH2 0x1F4 JUMP JUMPDEST SWAP1 POP PUSH2 0x290 DUP3 DUP3 PUSH2 0x24A JUMP JUMPDEST SWAP2 SWAP1 POP JUMP JUMPDEST PUSH0 PUSH8 0xFFFFFFFFFFFFFFFF DUP3 GT ISZERO PUSH2 0x2AF JUMPI PUSH2 0x2AE PUSH2 0x21D JUMP JUMPDEST JUMPDEST PUSH2 0x2B8 DUP3 PUSH2 0x20D JUMP JUMPDEST SWAP1 POP PUSH1 0x20 DUP2 ADD SWAP1 POP SWAP2 SWAP1 POP JUMP JUMPDEST DUP3 DUP2 DUP4 CALLDATACOPY PUSH0 DUP4 DUP4 ADD MSTORE POP POP POP JUMP JUMPDEST PUSH0 PUSH2 0x2E5 PUSH2 0x2E0 DUP5 PUSH2 0x295 JUMP JUMPDEST PUSH2 0x27B JUMP JUMPDEST SWAP1 POP DUP3 DUP2 MSTORE PUSH1 0x20 DUP2 ADD DUP5 DUP5 DUP5 ADD GT ISZERO PUSH2 0x301 JUMPI PUSH2 0x300 PUSH2 0x209 JUMP JUMPDEST JUMPDEST PUSH2 0x30C DUP5 DUP3 DUP6 PUSH2 0x2C5 JUMP JUMPDEST POP SWAP4 SWAP3 POP POP POP JUMP JUMPDEST PUSH0 DUP3 PUSH1 0x1F DUP4 ADD SLT PUSH2 0x328 JUMPI PUSH2 0x327 PUSH2 0x205 JUMP JUMPDEST JUMPDEST DUP2 CALLDATALOAD PUSH2 0x338 DUP5 DUP3 PUSH1 0x20 DUP7 ADD PUSH2 0x2D3 JUMP JUMPDEST SWAP2 POP POP SWAP3 SWAP2 POP POP JUMP JUMPDEST PUSH0 DUP1 PUSH1 0x40 DUP4 DUP6 SUB SLT ISZERO PUSH2 0x357 JUMPI PUSH2 0x356 PUSH2 0x1FD JUMP JUMPDEST JUMPDEST PUSH0 DUP4 ADD CALLDATALOAD PUSH8 0xFFFFFFFFFFFFFFFF DUP2 GT ISZERO PUSH2 0x374 JUMPI PUSH2 0x373 PUSH2 0x201 JUMP JUMPDEST JUMPDEST PUSH2 0x380 DUP6 DUP3 DUP7 ADD PUSH2 0x314 JUMP JUMPDEST SWAP3 POP POP PUSH1 0x20 DUP4 ADD CALLDATALOAD PUSH8 0xFFFFFFFFFFFFFFFF DUP2 GT ISZERO PUSH2 0x3A1 JUMPI PUSH2 0x3A0 PUSH2 0x201 JUMP JUMPDEST JUMPDEST PUSH2 0x3AD DUP6 DUP3 DUP7 ADD PUSH2 0x314 JUMP JUMPDEST SWAP2 POP POP SWAP3 POP SWAP3 SWAP1 POP JUMP JUMPDEST PUSH0 DUP2 ISZERO ISZERO SWAP1 POP SWAP2 SWAP1 POP JUMP JUMPDEST PUSH2 0x3CB DUP2 PUSH2 0x3B7 JUMP JUMPDEST DUP3 MSTORE POP POP JUMP JUMPDEST PUSH0 PUSH1 0x20 DUP3 ADD SWAP1 POP PUSH2 0x3E4 PUSH0 DUP4 ADD DUP5 PUSH2 0x3C2 JUMP JUMPDEST SWAP3 SWAP2 POP POP JUMP JUMPDEST PUSH0 DUP2 SWAP1 POP SWAP2 SWAP1 POP JUMP JUMPDEST PUSH2 0x3FC DUP2 PUSH2 0x3EA JUMP JUMPDEST DUP3 MSTORE POP POP JUMP JUMPDEST PUSH0 PUSH1 0x20 DUP3 ADD SWAP1 POP PUSH2 0x415 PUSH0 DUP4 ADD DUP5 PUSH2 0x3F3 JUMP JUMPDEST SWAP3 SWAP2 POP POP JUMP JUMPDEST PUSH0 DUP2 SWAP1 POP SWAP2 SWAP1 POP JUMP JUMPDEST PUSH2 0x42D DUP2 PUSH2 0x41B JUMP JUMPDEST DUP2 EQ PUSH2 0x437 JUMPI PUSH0 DUP1 REVERT JUMPDEST POP JUMP JUMPDEST PUSH0 DUP2 CALLDATALOAD SWAP1 POP PUSH2 0x448 DUP2 PUSH2 0x424 JUMP JUMPDEST SWAP3 SWAP2 POP POP JUMP JUMPDEST PUSH0 PUSH20 0xFFFFFFFFFFFFFFFFFFFFFFFFFFFFFFFFFFFFFFFF DUP3 AND SWAP1 POP SWAP2 SWAP1 POP JUMP JUMPDEST PUSH0 PUSH2 0x477 DUP3 PUSH2 0x44E JUMP JUMPDEST SWAP1 POP SWAP2 SWAP1 POP JUMP JUMPDEST PUSH2 0x487 DUP2 PUSH2 0x46D JUMP JUMPDEST DUP2 EQ PUSH2 0x491 JUMPI PUSH0 DUP1 REVERT JUMPDEST POP JUMP JUMPDEST PUSH0 DUP2 CALLDATALOAD SWAP1 POP PUSH2 0x4A2 DUP2 PUSH2 0x47E JUMP JUMPDEST SWAP3 SWAP2 POP POP JUMP JUMPDEST PUSH0 DUP1 PUSH0 PUSH1 0x60 DUP5 DUP7 SUB SLT ISZERO PUSH2 0x4BF JUMPI PUSH2 0x4BE PUSH2 0x1FD JUMP JUMPDEST JUMPDEST PUSH0 PUSH2 0x4CC DUP7 DUP3 DUP8 ADD PUSH2 0x43A JUMP JUMPDEST SWAP4 POP POP PUSH1 0x20 DUP5 ADD CALLDATALOAD PUSH8 0xFFFFFFFFFFFFFFFF DUP2 GT ISZERO PUSH2 0x4ED JUMPI PUSH2 0x4EC PUSH2 0x201 JUMP JUMPDEST JUMPDEST PUSH2 0x4F9 DUP7 DUP3 DUP8 ADD PUSH2 0x314 JUMP JUMPDEST SWAP3 POP POP PUSH1 0x40 PUSH2 0x50A DUP7 DUP3 DUP8 ADD PUSH2 0x494 JUMP JUMPDEST SWAP2 POP POP SWAP3 POP SWAP3 POP SWAP3 JUMP JUMPDEST PUSH0 PUSH1 0x20 DUP3 DUP5 SUB SLT ISZERO PUSH2 0x529 JUMPI PUSH2 0x528 PUSH2 0x1FD JUMP JUMPDEST JUMPDEST PUSH0 DUP3 ADD CALLDATALOAD PUSH8 0xFFFFFFFFFFFFFFFF DUP2 GT ISZERO PUSH2 0x546 JUMPI PUSH2 0x545 PUSH2 0x201 JUMP JUMPDEST JUMPDEST PUSH2 0x552 DUP5 DUP3 DUP6 ADD PUSH2 0x314 JUMP JUMPDEST SWAP2 POP POP SWAP3 SWAP2 POP POP JUMP JUMPDEST PUSH0 DUP2 MLOAD SWAP1 POP SWAP2 SWAP1 POP JUMP JUMPDEST PUSH0 DUP2 SWAP1 POP SWAP3 SWAP2 POP POP JUMP JUMPDEST DUP3 DUP2 DUP4 MCOPY PUSH0 DUP4 DUP4 ADD MSTORE POP POP POP JUMP JUMPDEST PUSH0 PUSH2 0x587 DUP3 PUSH2 0x55B JUMP JUMPDEST PUSH2 0x591 DUP2 DUP6 PUSH2 0x565 JUMP JUMPDEST SWAP4 POP PUSH2 0x5A1 DUP2 DUP6 PUSH1 0x20 DUP7 ADD PUSH2 0x56F JUMP JUMPDEST DUP1 DUP5 ADD SWAP2 POP POP SWAP3 SWAP2 POP POP JUMP JUMPDEST PUSH0 PUSH2 0x5B8 DUP3 DUP5 PUSH2 0x57D JUMP JUMPDEST SWAP2 POP DUP2 SWAP1 POP SWAP3 SWAP2 POP POP JUMP JUMPDEST PUSH0 DUP2 SWAP1 POP SWAP2 SWAP1 POP JUMP JUMPDEST PUSH2 0x5DD PUSH2 0x5D8 DUP3 PUSH2 0x41B JUMP JUMPDEST PUSH2 0x5C3 JUMP JUMPDEST DUP3 MSTORE POP POP JUMP JUMPDEST PUSH0 DUP2 PUSH1 0x60 SHL SWAP1 POP SWAP2 SWAP1 POP JUMP JUMPDEST PUSH0 PUSH2 0x5F9 DUP3 PUSH2 0x5E3 JUMP JUMPDEST SWAP1 POP SWAP2 SWAP1 POP JUMP JUMPDEST PUSH0 PUSH2 0x60A DUP3 PUSH2 0x5EF JUMP JUMPDEST SWAP1 POP SWAP2 SWAP1 POP JUMP JUMPDEST PUSH2 0x622 PUSH2 0x61D DUP3 PUSH2 0x46D JUMP JUMPDEST PUSH2 0x600 JUMP JUMPDEST DUP3 MSTORE POP POP JUMP JUMPDEST PUSH0 PUSH2 0x633 DUP3 DUP7 PUSH2 0x5CC JUMP JUMPDEST PUSH1 0x20 DUP3 ADD SWAP2 POP PUSH2 0x643 DUP3 DUP6 PUSH2 0x57D JUMP JUMPDEST SWAP2 POP PUSH2 0x64F DUP3 DUP5 PUSH2 0x611 JUMP JUMPDEST PUSH1 0x14 DUP3 ADD SWAP2 POP DUP2 SWAP1 POP SWAP5 SWAP4 POP POP POP POP JUMP INVALID LOG2 PUSH5 0x6970667358 0x22 SLT KECCAK256 NOT 0xEB 0xF7 0xD3 ORIGIN PUSH7 0x6E2459A667B357 DUP5 JUMPI EXTCODEHASH PUSH25 0x6CCFAAD6A2E9CF47AA7E091EB11A2A64736F6C634300081A00 CALLER "
		},
		"gasEstimates": {
			"creation": {
				"codeDepositCost": "337200",
				"executionCost": "22784",
				"totalCost": "359984"
			},
			"external": {
				"_msg()": "2424",
				"_temp()": "2447",
				"hash(uint256,string,address)": "infinite",
				"strong(string,string)": "infinite",
				"week(string)": "infinite"
			}
		},
		"methodIdentifiers": {
			"_msg()": "10c8c11d",
			"_temp()": "41652936",
			"hash(uint256,string,address)": "4f6b068d",
			"strong(string,string)": "10be181c",
			"week(string)": "5995e76f"
		}
	},
	"abi": [
		{
			"inputs": [],
			"name": "_msg",
			"outputs": [
				{
					"internalType": "bytes32",
					"name": "",
					"type": "bytes32"
				}
			],
			"stateMutability": "view",
			"type": "function"
		},
		{
			"inputs": [],
			"name": "_temp",
			"outputs": [
				{
					"internalType": "bytes32",
					"name": "",
					"type": "bytes32"
				}
			],
			"stateMutability": "view",
			"type": "function"
		},
		{
			"inputs": [
				{
					"internalType": "uint256",
					"name": "_num",
					"type": "uint256"
				},
				{
					"internalType": "string",
					"name": "_string",
					"type": "string"
				},
				{
					"internalType": "address",
					"name": "_address",
					"type": "address"
				}
			],
			"name": "hash",
			"outputs": [
				{
					"internalType": "bytes32",
					"name": "",
					"type": "bytes32"
				}
			],
			"stateMutability": "pure",
			"type": "function"
		},
		{
			"inputs": [
				{
					"internalType": "string",
					"name": "string1",
					"type": "string"
				},
				{
					"internalType": "string",
					"name": "string2",
					"type": "string"
				}
			],
			"name": "strong",
			"outputs": [
				{
					"internalType": "bool",
					"name": "",
					"type": "bool"
				}
			],
			"stateMutability": "pure",
			"type": "function"
		},
		{
			"inputs": [
				{
					"internalType": "string",
					"name": "_string",
					"type": "string"
				}
			],
			"name": "week",
			"outputs": [
				{
					"internalType": "bool",
					"name": "",
					"type": "bool"
				}
			],
			"stateMutability": "nonpayable",
			"type": "function"
		}
	]
}