{
	"data": {
		"bytecode": {
			"linkReferences": {},
			"object": "6080604052348015600e575f80fd5b50610d358061001c5f395ff3fe608060405234801561000f575f80fd5b506004361061007b575f3560e01c80636a627842116100595780636a627842146100ec578063e355b0ce14610108578063ead6b8bd14610138578063f0ca01de146101685761007b565b8063046dab161461007f5780633ec378341461009d57806359ebea23146100cd575b5f80fd5b610087610198565b60405161009491906104a2565b60405180910390f35b6100b760048036038101906100b29190610534565b6101bf565b6040516100c491906104a2565b60405180910390f35b6100d5610227565b6040516100e39291906105f1565b60405180910390f35b61010660048036038101906101019190610679565b6102f3565b005b610122600480360381019061011d9190610963565b61032f565b60405161012f91906104a2565b60405180910390f35b610152600480360381019061014d9190610aad565b610399565b60405161015f91906104a2565b60405180910390f35b610182600480360381019061017d9190610b76565b610400565b60405161018f91906104a2565b60405180910390f35b5f7f6a627842f752de95745ef8f3ca67858982b5f585d752f8163e5855050041cb3c905090565b5f7f87c76683e354abe8640b03c72d02c9175d9a00a6c0101d5bc4be081b9b8199eb633ec3783460e01b6040516101f691906104a2565b60405180910390a17f3ec3783488bfc90ed98dc398cd67f30f42b252c8ce7d59a4dce63a149c452548905092915050565b5f60605f803073ffffffffffffffffffffffffffffffffffffffff16633ec3783460018060405160240161025c929190610c3a565b6040516020818303038152906040529060e01b6020820180517bffffffffffffffffffffffffffffffffffffffffffffffffffffffff83818316178352505050506040516102aa9190610c9b565b5f604051808303815f865af19150503d805f81146102e3576040519150601f19603f3d011682016040523d82523d5f602084013e6102e8565b606091505b509150915050509091565b7fafabcf2dd47e06a477a89e49c03f8ebe8e0a7e94f775b25bbb24227c9d0110b25f36604051610324929190610cdd565b60405180910390a150565b5f7f87c76683e354abe8640b03c72d02c9175d9a00a6c0101d5bc4be081b9b8199eb63e355b0ce60e01b60405161036691906104a2565b60405180910390a17fe355b0ceecdc5a85bc460808aed3b4d8eaa7935dbf79d2db6ffcf71e5c3525769050949350505050565b5f7f87c76683e354abe8640b03c72d02c9175d9a00a6c0101d5bc4be081b9b8199eb63ead6b8bd60e01b6040516103d091906104a2565b60405180910390a17fead6b8bdece33532847146a6fe63967e794ef7c18f3b888ae6fb3aebb4ef1b959050919050565b5f7f87c76683e354abe8640b03c72d02c9175d9a00a6c0101d5bc4be081b9b8199eb63f0ca01de60e01b60405161043791906104a2565b60405180910390a17ff0ca01de95639524000d6ff4e9309b96c7f67f7961bf24b33f8b20e85f6ad977905092915050565b5f7fffffffff0000000000000000000000000000000000000000000000000000000082169050919050565b61049c81610468565b82525050565b5f6020820190506104b55f830184610493565b92915050565b5f604051905090565b5f80fd5b5f80fd5b5f819050919050565b6104de816104cc565b81146104e8575f80fd5b50565b5f813590506104f9816104d5565b92915050565b5f8115159050919050565b610513816104ff565b811461051d575f80fd5b50565b5f8135905061052e8161050a565b92915050565b5f806040838503121561054a576105496104c4565b5b5f610557858286016104eb565b925050602061056885828601610520565b9150509250929050565b61057b816104ff565b82525050565b5f81519050919050565b5f82825260208201905092915050565b8281835e5f83830152505050565b5f601f19601f8301169050919050565b5f6105c382610581565b6105cd818561058b565b93506105dd81856020860161059b565b6105e6816105a9565b840191505092915050565b5f6040820190506106045f830185610572565b818103602083015261061681846105b9565b90509392505050565b5f73ffffffffffffffffffffffffffffffffffffffff82169050919050565b5f6106488261061f565b9050919050565b6106588161063e565b8114610662575f80fd5b50565b5f813590506106738161064f565b92915050565b5f6020828403121561068e5761068d6104c4565b5b5f61069b84828501610665565b91505092915050565b5f6106ae8261063e565b9050919050565b6106be816106a4565b81146106c8575f80fd5b50565b5f813590506106d9816106b5565b92915050565b5f80fd5b7f4e487b71000000000000000000000000000000000000000000000000000000005f52604160045260245ffd5b610719826105a9565b810181811067ffffffffffffffff82111715610738576107376106e3565b5b80604052505050565b5f61074a6104bb565b90506107568282610710565b919050565b5f80fd5b5f80fd5b5f80fd5b5f67ffffffffffffffff821115610781576107806106e3565b5b61078a826105a9565b9050602081019050919050565b828183375f83830152505050565b5f6107b76107b284610767565b610741565b9050828152602081018484840111156107d3576107d2610763565b5b6107de848285610797565b509392505050565b5f82601f8301126107fa576107f961075f565b5b813561080a8482602086016107a5565b91505092915050565b5f60408284031215610828576108276106df565b5b6108326040610741565b90505f610841848285016104eb565b5f83015250602082013567ffffffffffffffff8111156108645761086361075b565b5b610870848285016107e6565b60208301525092915050565b5f67ffffffffffffffff821115610896576108956106e3565b5b602082029050602081019050919050565b5f80fd5b5f6108bd6108b88461087c565b610741565b905080838252602082019050602084028301858111156108e0576108df6108a7565b5b835b8181101561090957806108f588826104eb565b8452602084019350506020810190506108e2565b5050509392505050565b5f82601f8301126109275761092661075f565b5b81356109378482602086016108ab565b91505092915050565b6002811061094c575f80fd5b50565b5f8135905061095d81610940565b92915050565b5f805f806080858703121561097b5761097a6104c4565b5b5f610988878288016106cb565b945050602085013567ffffffffffffffff8111156109a9576109a86104c8565b5b6109b587828801610813565b935050604085013567ffffffffffffffff8111156109d6576109d56104c8565b5b6109e287828801610913565b92505060606109f38782880161094f565b91505092959194509250565b5f67ffffffffffffffff821115610a1957610a186106e3565b5b602082029050919050565b5f610a36610a31846109ff565b610741565b90508060208402830185811115610a5057610a4f6108a7565b5b835b81811015610a795780610a6588826104eb565b845260208401935050602081019050610a52565b5050509392505050565b5f82601f830112610a9757610a9661075f565b5b6003610aa4848285610a24565b91505092915050565b5f60608284031215610ac257610ac16104c4565b5b5f610acf84828501610a83565b91505092915050565b5f67ffffffffffffffff821115610af257610af16106e3565b5b610afb826105a9565b9050602081019050919050565b5f610b1a610b1584610ad8565b610741565b905082815260208101848484011115610b3657610b35610763565b5b610b41848285610797565b509392505050565b5f82601f830112610b5d57610b5c61075f565b5b8135610b6d848260208601610b08565b91505092915050565b5f8060408385031215610b8c57610b8b6104c4565b5b5f83013567ffffffffffffffff811115610ba957610ba86104c8565b5b610bb585828601610913565b925050602083013567ffffffffffffffff811115610bd657610bd56104c8565b5b610be285828601610b49565b9150509250929050565b5f819050919050565b5f60ff82169050919050565b5f819050919050565b5f610c24610c1f610c1a84610bec565b610c01565b610bf5565b9050919050565b610c3481610c0a565b82525050565b5f604082019050610c4d5f830185610c2b565b610c5a6020830184610572565b9392505050565b5f81905092915050565b5f610c7582610581565b610c7f8185610c61565b9350610c8f81856020860161059b565b80840191505092915050565b5f610ca68284610c6b565b915081905092915050565b5f610cbc838561058b565b9350610cc9838584610797565b610cd2836105a9565b840190509392505050565b5f6020820190508181035f830152610cf6818486610cb1565b9050939250505056fea264697066735822122004da8f810f9dec15a77ed1b147f09c348b5fe29a4b2a752b4d76afe65027333964736f6c634300081a0033",
			"opcodes": "PUSH1 0x80 PUSH1 0x40 MSTORE CALLVALUE DUP1 ISZERO PUSH1 0xE JUMPI PUSH0 DUP1 REVERT JUMPDEST POP PUSH2 0xD35 DUP1 PUSH2 0x1C PUSH0 CODECOPY PUSH0 RETURN INVALID PUSH1 0x80 PUSH1 0x40 MSTORE CALLVALUE DUP1 ISZERO PUSH2 0xF JUMPI PUSH0 DUP1 REVERT JUMPDEST POP PUSH1 0x4 CALLDATASIZE LT PUSH2 0x7B JUMPI PUSH0 CALLDATALOAD PUSH1 0xE0 SHR DUP1 PUSH4 0x6A627842 GT PUSH2 0x59 JUMPI DUP1 PUSH4 0x6A627842 EQ PUSH2 0xEC JUMPI DUP1 PUSH4 0xE355B0CE EQ PUSH2 0x108 JUMPI DUP1 PUSH4 0xEAD6B8BD EQ PUSH2 0x138 JUMPI DUP1 PUSH4 0xF0CA01DE EQ PUSH2 0x168 JUMPI PUSH2 0x7B JUMP JUMPDEST DUP1 PUSH4 0x46DAB16 EQ PUSH2 0x7F JUMPI DUP1 PUSH4 0x3EC37834 EQ PUSH2 0x9D JUMPI DUP1 PUSH4 0x59EBEA23 EQ PUSH2 0xCD JUMPI JUMPDEST PUSH0 DUP1 REVERT JUMPDEST PUSH2 0x87 PUSH2 0x198 JUMP JUMPDEST PUSH1 0x40 MLOAD PUSH2 0x94 SWAP2 SWAP1 PUSH2 0x4A2 JUMP JUMPDEST PUSH1 0x40 MLOAD DUP1 SWAP2 SUB SWAP1 RETURN JUMPDEST PUSH2 0xB7 PUSH1 0x4 DUP1 CALLDATASIZE SUB DUP2 ADD SWAP1 PUSH2 0xB2 SWAP2 SWAP1 PUSH2 0x534 JUMP JUMPDEST PUSH2 0x1BF JUMP JUMPDEST PUSH1 0x40 MLOAD PUSH2 0xC4 SWAP2 SWAP1 PUSH2 0x4A2 JUMP JUMPDEST PUSH1 0x40 MLOAD DUP1 SWAP2 SUB SWAP1 RETURN JUMPDEST PUSH2 0xD5 PUSH2 0x227 JUMP JUMPDEST PUSH1 0x40 MLOAD PUSH2 0xE3 SWAP3 SWAP2 SWAP1 PUSH2 0x5F1 JUMP JUMPDEST PUSH1 0x40 MLOAD DUP1 SWAP2 SUB SWAP1 RETURN JUMPDEST PUSH2 0x106 PUSH1 0x4 DUP1 CALLDATASIZE SUB DUP2 ADD SWAP1 PUSH2 0x101 SWAP2 SWAP1 PUSH2 0x679 JUMP JUMPDEST PUSH2 0x2F3 JUMP JUMPDEST STOP JUMPDEST PUSH2 0x122 PUSH1 0x4 DUP1 CALLDATASIZE SUB DUP2 ADD SWAP1 PUSH2 0x11D SWAP2 SWAP1 PUSH2 0x963 JUMP JUMPDEST PUSH2 0x32F JUMP JUMPDEST PUSH1 0x40 MLOAD PUSH2 0x12F SWAP2 SWAP1 PUSH2 0x4A2 JUMP JUMPDEST PUSH1 0x40 MLOAD DUP1 SWAP2 SUB SWAP1 RETURN JUMPDEST PUSH2 0x152 PUSH1 0x4 DUP1 CALLDATASIZE SUB DUP2 ADD SWAP1 PUSH2 0x14D SWAP2 SWAP1 PUSH2 0xAAD JUMP JUMPDEST PUSH2 0x399 JUMP JUMPDEST PUSH1 0x40 MLOAD PUSH2 0x15F SWAP2 SWAP1 PUSH2 0x4A2 JUMP JUMPDEST PUSH1 0x40 MLOAD DUP1 SWAP2 SUB SWAP1 RETURN JUMPDEST PUSH2 0x182 PUSH1 0x4 DUP1 CALLDATASIZE SUB DUP2 ADD SWAP1 PUSH2 0x17D SWAP2 SWAP1 PUSH2 0xB76 JUMP JUMPDEST PUSH2 0x400 JUMP JUMPDEST PUSH1 0x40 MLOAD PUSH2 0x18F SWAP2 SWAP1 PUSH2 0x4A2 JUMP JUMPDEST PUSH1 0x40 MLOAD DUP1 SWAP2 SUB SWAP1 RETURN JUMPDEST PUSH0 PUSH32 0x6A627842F752DE95745EF8F3CA67858982B5F585D752F8163E5855050041CB3C SWAP1 POP SWAP1 JUMP JUMPDEST PUSH0 PUSH32 0x87C76683E354ABE8640B03C72D02C9175D9A00A6C0101D5BC4BE081B9B8199EB PUSH4 0x3EC37834 PUSH1 0xE0 SHL PUSH1 0x40 MLOAD PUSH2 0x1F6 SWAP2 SWAP1 PUSH2 0x4A2 JUMP JUMPDEST PUSH1 0x40 MLOAD DUP1 SWAP2 SUB SWAP1 LOG1 PUSH32 0x3EC3783488BFC90ED98DC398CD67F30F42B252C8CE7D59A4DCE63A149C452548 SWAP1 POP SWAP3 SWAP2 POP POP JUMP JUMPDEST PUSH0 PUSH1 0x60 PUSH0 DUP1 ADDRESS PUSH20 0xFFFFFFFFFFFFFFFFFFFFFFFFFFFFFFFFFFFFFFFF AND PUSH4 0x3EC37834 PUSH1 0x1 DUP1 PUSH1 0x40 MLOAD PUSH1 0x24 ADD PUSH2 0x25C SWAP3 SWAP2 SWAP1 PUSH2 0xC3A JUMP JUMPDEST PUSH1 0x40 MLOAD PUSH1 0x20 DUP2 DUP4 SUB SUB DUP2 MSTORE SWAP1 PUSH1 0x40 MSTORE SWAP1 PUSH1 0xE0 SHL PUSH1 0x20 DUP3 ADD DUP1 MLOAD PUSH28 0xFFFFFFFFFFFFFFFFFFFFFFFFFFFFFFFFFFFFFFFFFFFFFFFFFFFFFFFF DUP4 DUP2 DUP4 AND OR DUP4 MSTORE POP POP POP POP PUSH1 0x40 MLOAD PUSH2 0x2AA SWAP2 SWAP1 PUSH2 0xC9B JUMP JUMPDEST PUSH0 PUSH1 0x40 MLOAD DUP1 DUP4 SUB DUP2 PUSH0 DUP7 GAS CALL SWAP2 POP POP RETURNDATASIZE DUP1 PUSH0 DUP2 EQ PUSH2 0x2E3 JUMPI PUSH1 0x40 MLOAD SWAP2 POP PUSH1 0x1F NOT PUSH1 0x3F RETURNDATASIZE ADD AND DUP3 ADD PUSH1 0x40 MSTORE RETURNDATASIZE DUP3 MSTORE RETURNDATASIZE PUSH0 PUSH1 0x20 DUP5 ADD RETURNDATACOPY PUSH2 0x2E8 JUMP JUMPDEST PUSH1 0x60 SWAP2 POP JUMPDEST POP SWAP2 POP SWAP2 POP POP POP SWAP1 SWAP2 JUMP JUMPDEST PUSH32 0xAFABCF2DD47E06A477A89E49C03F8EBE8E0A7E94F775B25BBB24227C9D0110B2 PUSH0 CALLDATASIZE PUSH1 0x40 MLOAD PUSH2 0x324 SWAP3 SWAP2 SWAP1 PUSH2 0xCDD JUMP JUMPDEST PUSH1 0x40 MLOAD DUP1 SWAP2 SUB SWAP1 LOG1 POP JUMP JUMPDEST PUSH0 PUSH32 0x87C76683E354ABE8640B03C72D02C9175D9A00A6C0101D5BC4BE081B9B8199EB PUSH4 0xE355B0CE PUSH1 0xE0 SHL PUSH1 0x40 MLOAD PUSH2 0x366 SWAP2 SWAP1 PUSH2 0x4A2 JUMP JUMPDEST PUSH1 0x40 MLOAD DUP1 SWAP2 SUB SWAP1 LOG1 PUSH32 0xE355B0CEECDC5A85BC460808AED3B4D8EAA7935DBF79D2DB6FFCF71E5C352576 SWAP1 POP SWAP5 SWAP4 POP POP POP POP JUMP JUMPDEST PUSH0 PUSH32 0x87C76683E354ABE8640B03C72D02C9175D9A00A6C0101D5BC4BE081B9B8199EB PUSH4 0xEAD6B8BD PUSH1 0xE0 SHL PUSH1 0x40 MLOAD PUSH2 0x3D0 SWAP2 SWAP1 PUSH2 0x4A2 JUMP JUMPDEST PUSH1 0x40 MLOAD DUP1 SWAP2 SUB SWAP1 LOG1 PUSH32 0xEAD6B8BDECE33532847146A6FE63967E794EF7C18F3B888AE6FB3AEBB4EF1B95 SWAP1 POP SWAP2 SWAP1 POP JUMP JUMPDEST PUSH0 PUSH32 0x87C76683E354ABE8640B03C72D02C9175D9A00A6C0101D5BC4BE081B9B8199EB PUSH4 0xF0CA01DE PUSH1 0xE0 SHL PUSH1 0x40 MLOAD PUSH2 0x437 SWAP2 SWAP1 PUSH2 0x4A2 JUMP JUMPDEST PUSH1 0x40 MLOAD DUP1 SWAP2 SUB SWAP1 LOG1 PUSH32 0xF0CA01DE95639524000D6FF4E9309B96C7F67F7961BF24B33F8B20E85F6AD977 SWAP1 POP SWAP3 SWAP2 POP POP JUMP JUMPDEST PUSH0 PUSH32 0xFFFFFFFF00000000000000000000000000000000000000000000000000000000 DUP3 AND SWAP1 POP SWAP2 SWAP1 POP JUMP JUMPDEST PUSH2 0x49C DUP2 PUSH2 0x468 JUMP JUMPDEST DUP3 MSTORE POP POP JUMP JUMPDEST PUSH0 PUSH1 0x20 DUP3 ADD SWAP1 POP PUSH2 0x4B5 PUSH0 DUP4 ADD DUP5 PUSH2 0x493 JUMP JUMPDEST SWAP3 SWAP2 POP POP JUMP JUMPDEST PUSH0 PUSH1 0x40 MLOAD SWAP1 POP SWAP1 JUMP JUMPDEST PUSH0 DUP1 REVERT JUMPDEST PUSH0 DUP1 REVERT JUMPDEST PUSH0 DUP2 SWAP1 POP SWAP2 SWAP1 POP JUMP JUMPDEST PUSH2 0x4DE DUP2 PUSH2 0x4CC JUMP JUMPDEST DUP2 EQ PUSH2 0x4E8 JUMPI PUSH0 DUP1 REVERT JUMPDEST POP JUMP JUMPDEST PUSH0 DUP2 CALLDATALOAD SWAP1 POP PUSH2 0x4F9 DUP2 PUSH2 0x4D5 JUMP JUMPDEST SWAP3 SWAP2 POP POP JUMP JUMPDEST PUSH0 DUP2 ISZERO ISZERO SWAP1 POP SWAP2 SWAP1 POP JUMP JUMPDEST PUSH2 0x513 DUP2 PUSH2 0x4FF JUMP JUMPDEST DUP2 EQ PUSH2 0x51D JUMPI PUSH0 DUP1 REVERT JUMPDEST POP JUMP JUMPDEST PUSH0 DUP2 CALLDATALOAD SWAP1 POP PUSH2 0x52E DUP2 PUSH2 0x50A JUMP JUMPDEST SWAP3 SWAP2 POP POP JUMP JUMPDEST PUSH0 DUP1 PUSH1 0x40 DUP4 DUP6 SUB SLT ISZERO PUSH2 0x54A JUMPI PUSH2 0x549 PUSH2 0x4C4 JUMP JUMPDEST JUMPDEST PUSH0 PUSH2 0x557 DUP6 DUP3 DUP7 ADD PUSH2 0x4EB JUMP JUMPDEST SWAP3 POP POP PUSH1 0x20 PUSH2 0x568 DUP6 DUP3 DUP7 ADD PUSH2 0x520 JUMP JUMPDEST SWAP2 POP POP SWAP3 POP SWAP3 SWAP1 POP JUMP JUMPDEST PUSH2 0x57B DUP2 PUSH2 0x4FF JUMP JUMPDEST DUP3 MSTORE POP POP JUMP JUMPDEST PUSH0 DUP2 MLOAD SWAP1 POP SWAP2 SWAP1 POP JUMP JUMPDEST PUSH0 DUP3 DUP3 MSTORE PUSH1 0x20 DUP3 ADD SWAP1 POP SWAP3 SWAP2 POP POP JUMP JUMPDEST DUP3 DUP2 DUP4 MCOPY PUSH0 DUP4 DUP4 ADD MSTORE POP POP POP JUMP JUMPDEST PUSH0 PUSH1 0x1F NOT PUSH1 0x1F DUP4 ADD AND SWAP1 POP SWAP2 SWAP1 POP JUMP JUMPDEST PUSH0 PUSH2 0x5C3 DUP3 PUSH2 0x581 JUMP JUMPDEST PUSH2 0x5CD DUP2 DUP6 PUSH2 0x58B JUMP JUMPDEST SWAP4 POP PUSH2 0x5DD DUP2 DUP6 PUSH1 0x20 DUP7 ADD PUSH2 0x59B JUMP JUMPDEST PUSH2 0x5E6 DUP2 PUSH2 0x5A9 JUMP JUMPDEST DUP5 ADD SWAP2 POP POP SWAP3 SWAP2 POP POP JUMP JUMPDEST PUSH0 PUSH1 0x40 DUP3 ADD SWAP1 POP PUSH2 0x604 PUSH0 DUP4 ADD DUP6 PUSH2 0x572 JUMP JUMPDEST DUP2 DUP2 SUB PUSH1 0x20 DUP4 ADD MSTORE PUSH2 0x616 DUP2 DUP5 PUSH2 0x5B9 JUMP JUMPDEST SWAP1 POP SWAP4 SWAP3 POP POP POP JUMP JUMPDEST PUSH0 PUSH20 0xFFFFFFFFFFFFFFFFFFFFFFFFFFFFFFFFFFFFFFFF DUP3 AND SWAP1 POP SWAP2 SWAP1 POP JUMP JUMPDEST PUSH0 PUSH2 0x648 DUP3 PUSH2 0x61F JUMP JUMPDEST SWAP1 POP SWAP2 SWAP1 POP JUMP JUMPDEST PUSH2 0x658 DUP2 PUSH2 0x63E JUMP JUMPDEST DUP2 EQ PUSH2 0x662 JUMPI PUSH0 DUP1 REVERT JUMPDEST POP JUMP JUMPDEST PUSH0 DUP2 CALLDATALOAD SWAP1 POP PUSH2 0x673 DUP2 PUSH2 0x64F JUMP JUMPDEST SWAP3 SWAP2 POP POP JUMP JUMPDEST PUSH0 PUSH1 0x20 DUP3 DUP5 SUB SLT ISZERO PUSH2 0x68E JUMPI PUSH2 0x68D PUSH2 0x4C4 JUMP JUMPDEST JUMPDEST PUSH0 PUSH2 0x69B DUP5 DUP3 DUP6 ADD PUSH2 0x665 JUMP JUMPDEST SWAP2 POP POP SWAP3 SWAP2 POP POP JUMP JUMPDEST PUSH0 PUSH2 0x6AE DUP3 PUSH2 0x63E JUMP JUMPDEST SWAP1 POP SWAP2 SWAP1 POP JUMP JUMPDEST PUSH2 0x6BE DUP2 PUSH2 0x6A4 JUMP JUMPDEST DUP2 EQ PUSH2 0x6C8 JUMPI PUSH0 DUP1 REVERT JUMPDEST POP JUMP JUMPDEST PUSH0 DUP2 CALLDATALOAD SWAP1 POP PUSH2 0x6D9 DUP2 PUSH2 0x6B5 JUMP JUMPDEST SWAP3 SWAP2 POP POP JUMP JUMPDEST PUSH0 DUP1 REVERT JUMPDEST PUSH32 0x4E487B7100000000000000000000000000000000000000000000000000000000 PUSH0 MSTORE PUSH1 0x41 PUSH1 0x4 MSTORE PUSH1 0x24 PUSH0 REVERT JUMPDEST PUSH2 0x719 DUP3 PUSH2 0x5A9 JUMP JUMPDEST DUP2 ADD DUP2 DUP2 LT PUSH8 0xFFFFFFFFFFFFFFFF DUP3 GT OR ISZERO PUSH2 0x738 JUMPI PUSH2 0x737 PUSH2 0x6E3 JUMP JUMPDEST JUMPDEST DUP1 PUSH1 0x40 MSTORE POP POP POP JUMP JUMPDEST PUSH0 PUSH2 0x74A PUSH2 0x4BB JUMP JUMPDEST SWAP1 POP PUSH2 0x756 DUP3 DUP3 PUSH2 0x710 JUMP JUMPDEST SWAP2 SWAP1 POP JUMP JUMPDEST PUSH0 DUP1 REVERT JUMPDEST PUSH0 DUP1 REVERT JUMPDEST PUSH0 DUP1 REVERT JUMPDEST PUSH0 PUSH8 0xFFFFFFFFFFFFFFFF DUP3 GT ISZERO PUSH2 0x781 JUMPI PUSH2 0x780 PUSH2 0x6E3 JUMP JUMPDEST JUMPDEST PUSH2 0x78A DUP3 PUSH2 0x5A9 JUMP JUMPDEST SWAP1 POP PUSH1 0x20 DUP2 ADD SWAP1 POP SWAP2 SWAP1 POP JUMP JUMPDEST DUP3 DUP2 DUP4 CALLDATACOPY PUSH0 DUP4 DUP4 ADD MSTORE POP POP POP JUMP JUMPDEST PUSH0 PUSH2 0x7B7 PUSH2 0x7B2 DUP5 PUSH2 0x767 JUMP JUMPDEST PUSH2 0x741 JUMP JUMPDEST SWAP1 POP DUP3 DUP2 MSTORE PUSH1 0x20 DUP2 ADD DUP5 DUP5 DUP5 ADD GT ISZERO PUSH2 0x7D3 JUMPI PUSH2 0x7D2 PUSH2 0x763 JUMP JUMPDEST JUMPDEST PUSH2 0x7DE DUP5 DUP3 DUP6 PUSH2 0x797 JUMP JUMPDEST POP SWAP4 SWAP3 POP POP POP JUMP JUMPDEST PUSH0 DUP3 PUSH1 0x1F DUP4 ADD SLT PUSH2 0x7FA JUMPI PUSH2 0x7F9 PUSH2 0x75F JUMP JUMPDEST JUMPDEST DUP2 CALLDATALOAD PUSH2 0x80A DUP5 DUP3 PUSH1 0x20 DUP7 ADD PUSH2 0x7A5 JUMP JUMPDEST SWAP2 POP POP SWAP3 SWAP2 POP POP JUMP JUMPDEST PUSH0 PUSH1 0x40 DUP3 DUP5 SUB SLT ISZERO PUSH2 0x828 JUMPI PUSH2 0x827 PUSH2 0x6DF JUMP JUMPDEST JUMPDEST PUSH2 0x832 PUSH1 0x40 PUSH2 0x741 JUMP JUMPDEST SWAP1 POP PUSH0 PUSH2 0x841 DUP5 DUP3 DUP6 ADD PUSH2 0x4EB JUMP JUMPDEST PUSH0 DUP4 ADD MSTORE POP PUSH1 0x20 DUP3 ADD CALLDATALOAD PUSH8 0xFFFFFFFFFFFFFFFF DUP2 GT ISZERO PUSH2 0x864 JUMPI PUSH2 0x863 PUSH2 0x75B JUMP JUMPDEST JUMPDEST PUSH2 0x870 DUP5 DUP3 DUP6 ADD PUSH2 0x7E6 JUMP JUMPDEST PUSH1 0x20 DUP4 ADD MSTORE POP SWAP3 SWAP2 POP POP JUMP JUMPDEST PUSH0 PUSH8 0xFFFFFFFFFFFFFFFF DUP3 GT ISZERO PUSH2 0x896 JUMPI PUSH2 0x895 PUSH2 0x6E3 JUMP JUMPDEST JUMPDEST PUSH1 0x20 DUP3 MUL SWAP1 POP PUSH1 0x20 DUP2 ADD SWAP1 POP SWAP2 SWAP1 POP JUMP JUMPDEST PUSH0 DUP1 REVERT JUMPDEST PUSH0 PUSH2 0x8BD PUSH2 0x8B8 DUP5 PUSH2 0x87C JUMP JUMPDEST PUSH2 0x741 JUMP JUMPDEST SWAP1 POP DUP1 DUP4 DUP3 MSTORE PUSH1 0x20 DUP3 ADD SWAP1 POP PUSH1 0x20 DUP5 MUL DUP4 ADD DUP6 DUP2 GT ISZERO PUSH2 0x8E0 JUMPI PUSH2 0x8DF PUSH2 0x8A7 JUMP JUMPDEST JUMPDEST DUP4 JUMPDEST DUP2 DUP2 LT ISZERO PUSH2 0x909 JUMPI DUP1 PUSH2 0x8F5 DUP9 DUP3 PUSH2 0x4EB JUMP JUMPDEST DUP5 MSTORE PUSH1 0x20 DUP5 ADD SWAP4 POP POP PUSH1 0x20 DUP2 ADD SWAP1 POP PUSH2 0x8E2 JUMP JUMPDEST POP POP POP SWAP4 SWAP3 POP POP POP JUMP JUMPDEST PUSH0 DUP3 PUSH1 0x1F DUP4 ADD SLT PUSH2 0x927 JUMPI PUSH2 0x926 PUSH2 0x75F JUMP JUMPDEST JUMPDEST DUP2 CALLDATALOAD PUSH2 0x937 DUP5 DUP3 PUSH1 0x20 DUP7 ADD PUSH2 0x8AB JUMP JUMPDEST SWAP2 POP POP SWAP3 SWAP2 POP POP JUMP JUMPDEST PUSH1 0x2 DUP2 LT PUSH2 0x94C JUMPI PUSH0 DUP1 REVERT JUMPDEST POP JUMP JUMPDEST PUSH0 DUP2 CALLDATALOAD SWAP1 POP PUSH2 0x95D DUP2 PUSH2 0x940 JUMP JUMPDEST SWAP3 SWAP2 POP POP JUMP JUMPDEST PUSH0 DUP1 PUSH0 DUP1 PUSH1 0x80 DUP6 DUP8 SUB SLT ISZERO PUSH2 0x97B JUMPI PUSH2 0x97A PUSH2 0x4C4 JUMP JUMPDEST JUMPDEST PUSH0 PUSH2 0x988 DUP8 DUP3 DUP9 ADD PUSH2 0x6CB JUMP JUMPDEST SWAP5 POP POP PUSH1 0x20 DUP6 ADD CALLDATALOAD PUSH8 0xFFFFFFFFFFFFFFFF DUP2 GT ISZERO PUSH2 0x9A9 JUMPI PUSH2 0x9A8 PUSH2 0x4C8 JUMP JUMPDEST JUMPDEST PUSH2 0x9B5 DUP8 DUP3 DUP9 ADD PUSH2 0x813 JUMP JUMPDEST SWAP4 POP POP PUSH1 0x40 DUP6 ADD CALLDATALOAD PUSH8 0xFFFFFFFFFFFFFFFF DUP2 GT ISZERO PUSH2 0x9D6 JUMPI PUSH2 0x9D5 PUSH2 0x4C8 JUMP JUMPDEST JUMPDEST PUSH2 0x9E2 DUP8 DUP3 DUP9 ADD PUSH2 0x913 JUMP JUMPDEST SWAP3 POP POP PUSH1 0x60 PUSH2 0x9F3 DUP8 DUP3 DUP9 ADD PUSH2 0x94F JUMP JUMPDEST SWAP2 POP POP SWAP3 SWAP6 SWAP2 SWAP5 POP SWAP3 POP JUMP JUMPDEST PUSH0 PUSH8 0xFFFFFFFFFFFFFFFF DUP3 GT ISZERO PUSH2 0xA19 JUMPI PUSH2 0xA18 PUSH2 0x6E3 JUMP JUMPDEST JUMPDEST PUSH1 0x20 DUP3 MUL SWAP1 POP SWAP2 SWAP1 POP JUMP JUMPDEST PUSH0 PUSH2 0xA36 PUSH2 0xA31 DUP5 PUSH2 0x9FF JUMP JUMPDEST PUSH2 0x741 JUMP JUMPDEST SWAP1 POP DUP1 PUSH1 0x20 DUP5 MUL DUP4 ADD DUP6 DUP2 GT ISZERO PUSH2 0xA50 JUMPI PUSH2 0xA4F PUSH2 0x8A7 JUMP JUMPDEST JUMPDEST DUP4 JUMPDEST DUP2 DUP2 LT ISZERO PUSH2 0xA79 JUMPI DUP1 PUSH2 0xA65 DUP9 DUP3 PUSH2 0x4EB JUMP JUMPDEST DUP5 MSTORE PUSH1 0x20 DUP5 ADD SWAP4 POP POP PUSH1 0x20 DUP2 ADD SWAP1 POP PUSH2 0xA52 JUMP JUMPDEST POP POP POP SWAP4 SWAP3 POP POP POP JUMP JUMPDEST PUSH0 DUP3 PUSH1 0x1F DUP4 ADD SLT PUSH2 0xA97 JUMPI PUSH2 0xA96 PUSH2 0x75F JUMP JUMPDEST JUMPDEST PUSH1 0x3 PUSH2 0xAA4 DUP5 DUP3 DUP6 PUSH2 0xA24 JUMP JUMPDEST SWAP2 POP POP SWAP3 SWAP2 POP POP JUMP JUMPDEST PUSH0 PUSH1 0x60 DUP3 DUP5 SUB SLT ISZERO PUSH2 0xAC2 JUMPI PUSH2 0xAC1 PUSH2 0x4C4 JUMP JUMPDEST JUMPDEST PUSH0 PUSH2 0xACF DUP5 DUP3 DUP6 ADD PUSH2 0xA83 JUMP JUMPDEST SWAP2 POP POP SWAP3 SWAP2 POP POP JUMP JUMPDEST PUSH0 PUSH8 0xFFFFFFFFFFFFFFFF DUP3 GT ISZERO PUSH2 0xAF2 JUMPI PUSH2 0xAF1 PUSH2 0x6E3 JUMP JUMPDEST JUMPDEST PUSH2 0xAFB DUP3 PUSH2 0x5A9 JUMP JUMPDEST SWAP1 POP PUSH1 0x20 DUP2 ADD SWAP1 POP SWAP2 SWAP1 POP JUMP JUMPDEST PUSH0 PUSH2 0xB1A PUSH2 0xB15 DUP5 PUSH2 0xAD8 JUMP JUMPDEST PUSH2 0x741 JUMP JUMPDEST SWAP1 POP DUP3 DUP2 MSTORE PUSH1 0x20 DUP2 ADD DUP5 DUP5 DUP5 ADD GT ISZERO PUSH2 0xB36 JUMPI PUSH2 0xB35 PUSH2 0x763 JUMP JUMPDEST JUMPDEST PUSH2 0xB41 DUP5 DUP3 DUP6 PUSH2 0x797 JUMP JUMPDEST POP SWAP4 SWAP3 POP POP POP JUMP JUMPDEST PUSH0 DUP3 PUSH1 0x1F DUP4 ADD SLT PUSH2 0xB5D JUMPI PUSH2 0xB5C PUSH2 0x75F JUMP JUMPDEST JUMPDEST DUP2 CALLDATALOAD PUSH2 0xB6D DUP5 DUP3 PUSH1 0x20 DUP7 ADD PUSH2 0xB08 JUMP JUMPDEST SWAP2 POP POP SWAP3 SWAP2 POP POP JUMP JUMPDEST PUSH0 DUP1 PUSH1 0x40 DUP4 DUP6 SUB SLT ISZERO PUSH2 0xB8C JUMPI PUSH2 0xB8B PUSH2 0x4C4 JUMP JUMPDEST JUMPDEST PUSH0 DUP4 ADD CALLDATALOAD PUSH8 0xFFFFFFFFFFFFFFFF DUP2 GT ISZERO PUSH2 0xBA9 JUMPI PUSH2 0xBA8 PUSH2 0x4C8 JUMP JUMPDEST JUMPDEST PUSH2 0xBB5 DUP6 DUP3 DUP7 ADD PUSH2 0x913 JUMP JUMPDEST SWAP3 POP POP PUSH1 0x20 DUP4 ADD CALLDATALOAD PUSH8 0xFFFFFFFFFFFFFFFF DUP2 GT ISZERO PUSH2 0xBD6 JUMPI PUSH2 0xBD5 PUSH2 0x4C8 JUMP JUMPDEST JUMPDEST PUSH2 0xBE2 DUP6 DUP3 DUP7 ADD PUSH2 0xB49 JUMP JUMPDEST SWAP2 POP POP SWAP3 POP SWAP3 SWAP1 POP JUMP JUMPDEST PUSH0 DUP2 SWAP1 POP SWAP2 SWAP1 POP JUMP JUMPDEST PUSH0 PUSH1 0xFF DUP3 AND SWAP1 POP SWAP2 SWAP1 POP JUMP JUMPDEST PUSH0 DUP2 SWAP1 POP SWAP2 SWAP1 POP JUMP JUMPDEST PUSH0 PUSH2 0xC24 PUSH2 0xC1F PUSH2 0xC1A DUP5 PUSH2 0xBEC JUMP JUMPDEST PUSH2 0xC01 JUMP JUMPDEST PUSH2 0xBF5 JUMP JUMPDEST SWAP1 POP SWAP2 SWAP1 POP JUMP JUMPDEST PUSH2 0xC34 DUP2 PUSH2 0xC0A JUMP JUMPDEST DUP3 MSTORE POP POP JUMP JUMPDEST PUSH0 PUSH1 0x40 DUP3 ADD SWAP1 POP PUSH2 0xC4D PUSH0 DUP4 ADD DUP6 PUSH2 0xC2B JUMP JUMPDEST PUSH2 0xC5A PUSH1 0x20 DUP4 ADD DUP5 PUSH2 0x572 JUMP JUMPDEST SWAP4 SWAP3 POP POP POP JUMP JUMPDEST PUSH0 DUP2 SWAP1 POP SWAP3 SWAP2 POP POP JUMP JUMPDEST PUSH0 PUSH2 0xC75 DUP3 PUSH2 0x581 JUMP JUMPDEST PUSH2 0xC7F DUP2 DUP6 PUSH2 0xC61 JUMP JUMPDEST SWAP4 POP PUSH2 0xC8F DUP2 DUP6 PUSH1 0x20 DUP7 ADD PUSH2 0x59B JUMP JUMPDEST DUP1 DUP5 ADD SWAP2 POP POP SWAP3 SWAP2 POP POP JUMP JUMPDEST PUSH0 PUSH2 0xCA6 DUP3 DUP5 PUSH2 0xC6B JUMP JUMPDEST SWAP2 POP DUP2 SWAP1 POP SWAP3 SWAP2 POP POP JUMP JUMPDEST PUSH0 PUSH2 0xCBC DUP4 DUP6 PUSH2 0x58B JUMP JUMPDEST SWAP4 POP PUSH2 0xCC9 DUP4 DUP6 DUP5 PUSH2 0x797 JUMP JUMPDEST PUSH2 0xCD2 DUP4 PUSH2 0x5A9 JUMP JUMPDEST DUP5 ADD SWAP1 POP SWAP4 SWAP3 POP POP POP JUMP JUMPDEST PUSH0 PUSH1 0x20 DUP3 ADD SWAP1 POP DUP2 DUP2 SUB PUSH0 DUP4 ADD MSTORE PUSH2 0xCF6 DUP2 DUP5 DUP7 PUSH2 0xCB1 JUMP JUMPDEST SWAP1 POP SWAP4 SWAP3 POP POP POP JUMP INVALID LOG2 PUSH5 0x6970667358 0x22 SLT KECCAK256 DIV 0xDA DUP16 DUP2 0xF SWAP14 0xEC ISZERO 0xA7 PUSH31 0xD1B147F09C348B5FE29A4B2A752B4D76AFE65027333964736F6C634300081A STOP CALLER "
		},
		"gasEstimates": {
			"creation": {
				"codeDepositCost": "676200",
				"executionCost": "706",
				"totalCost": "676906"
			},
			"external": {
				"callWithSignature()": "infinite",
				"elementaryParamSelector(uint256,bool)": "infinite",
				"fixedSizeParamSelector(uint256[3])": "infinite",
				"mappingParamSelector(address,(uint256,bytes),uint256[],uint8)": "infinite",
				"mint(address)": "infinite",
				"mintSelector()": "339",
				"nonFixedSizeParamSelector(uint256[],string)": "infinite"
			}
		},
		"methodIdentifiers": {
			"callWithSignature()": "59ebea23",
			"elementaryParamSelector(uint256,bool)": "3ec37834",
			"fixedSizeParamSelector(uint256[3])": "ead6b8bd",
			"mappingParamSelector(address,(uint256,bytes),uint256[],uint8)": "e355b0ce",
			"mint(address)": "6a627842",
			"mintSelector()": "046dab16",
			"nonFixedSizeParamSelector(uint256[],string)": "f0ca01de"
		}
	},
	"abi": [
		{
			"anonymous": false,
			"inputs": [
				{
					"indexed": false,
					"internalType": "bytes",
					"name": "data",
					"type": "bytes"
				}
			],
			"name": "Log",
			"type": "event"
		},
		{
			"anonymous": false,
			"inputs": [
				{
					"indexed": false,
					"internalType": "bytes4",
					"name": "selector",
					"type": "bytes4"
				}
			],
			"name": "SelectorEvent",
			"type": "event"
		},
		{
			"inputs": [],
			"name": "callWithSignature",
			"outputs": [
				{
					"internalType": "bool",
					"name": "success",
					"type": "bool"
				},
				{
					"internalType": "bytes",
					"name": "data",
					"type": "bytes"
				}
			],
			"stateMutability": "nonpayable",
			"type": "function"
		},
		{
			"inputs": [
				{
					"internalType": "uint256",
					"name": "param1",
					"type": "uint256"
				},
				{
					"internalType": "bool",
					"name": "param2",
					"type": "bool"
				}
			],
			"name": "elementaryParamSelector",
			"outputs": [
				{
					"internalType": "bytes4",
					"name": "selectorWithElementaryParam",
					"type": "bytes4"
				}
			],
			"stateMutability": "nonpayable",
			"type": "function"
		},
		{
			"inputs": [
				{
					"internalType": "uint256[3]",
					"name": "param1",
					"type": "uint256[3]"
				}
			],
			"name": "fixedSizeParamSelector",
			"outputs": [
				{
					"internalType": "bytes4",
					"name": "selectorWithFixedSizeParam",
					"type": "bytes4"
				}
			],
			"stateMutability": "nonpayable",
			"type": "function"
		},
		{
			"inputs": [
				{
					"internalType": "contract DemoContract",
					"name": "demo",
					"type": "address"
				},
				{
					"components": [
						{
							"internalType": "uint256",
							"name": "uid",
							"type": "uint256"
						},
						{
							"internalType": "bytes",
							"name": "name",
							"type": "bytes"
						}
					],
					"internalType": "struct Selector.User",
					"name": "user",
					"type": "tuple"
				},
				{
					"internalType": "uint256[]",
					"name": "count",
					"type": "uint256[]"
				},
				{
					"internalType": "enum Selector.Side",
					"name": "side",
					"type": "uint8"
				}
			],
			"name": "mappingParamSelector",
			"outputs": [
				{
					"internalType": "bytes4",
					"name": "selectorWithMappingParam",
					"type": "bytes4"
				}
			],
			"stateMutability": "nonpayable",
			"type": "function"
		},
		{
			"inputs": [
				{
					"internalType": "address",
					"name": "to",
					"type": "address"
				}
			],
			"name": "mint",
			"outputs": [],
			"stateMutability": "nonpayable",
			"type": "function"
		},
		{
			"inputs": [],
			"name": "mintSelector",
			"outputs": [
				{
					"internalType": "bytes4",
					"name": "selector",
					"type": "bytes4"
				}
			],
			"stateMutability": "pure",
			"type": "function"
		},
		{
			"inputs": [
				{
					"internalType": "uint256[]",
					"name": "param1",
					"type": "uint256[]"
				},
				{
					"internalType": "string",
					"name": "param2",
					"type": "string"
				}
			],
			"name": "nonFixedSizeParamSelector",
			"outputs": [
				{
					"internalType": "bytes4",
					"name": "selectorWithNonFixedSizeParam",
					"type": "bytes4"
				}
			],
			"stateMutability": "nonpayable",
			"type": "function"
		}
	]
}